{"contracts/FractionalCertificateToken.sol":{"FractionalCertificateToken":{"abi":[{"inputs":[{"internalType":"uint256","name":"totalFractions","type":"uint256"},{"internalType":"string","name":"tokenName","type":"string"},{"internalType":"string","name":"tokenSymbol","type":"string"},{"internalType":"address","name":"certificateContractAddress","type":"address"},{"internalType":"uint256","name":"certificateTokenId_","type":"uint256"}],"stateMutability":"nonpayable","type":"constructor"},{"inputs":[],"name":"ECDSAInvalidSignature","type":"error"},{"inputs":[{"internalType":"uint256","name":"length","type":"uint256"}],"name":"ECDSAInvalidSignatureLength","type":"error"},{"inputs":[{"internalType":"bytes32","name":"s","type":"bytes32"}],"name":"ECDSAInvalidSignatureS","type":"error"},{"inputs":[{"internalType":"address","name":"spender","type":"address"},{"internalType":"uint256","name":"allowance","type":"uint256"},{"internalType":"uint256","name":"needed","type":"uint256"}],"name":"ERC20InsufficientAllowance","type":"error"},{"inputs":[{"internalType":"address","name":"sender","type":"address"},{"internalType":"uint256","name":"balance","type":"uint256"},{"internalType":"uint256","name":"needed","type":"uint256"}],"name":"ERC20InsufficientBalance","type":"error"},{"inputs":[{"internalType":"address","name":"approver","type":"address"}],"name":"ERC20InvalidApprover","type":"error"},{"inputs":[{"internalType":"address","name":"receiver","type":"address"}],"name":"ERC20InvalidReceiver","type":"error"},{"inputs":[{"internalType":"address","name":"sender","type":"address"}],"name":"ERC20InvalidSender","type":"error"},{"inputs":[{"internalType":"address","name":"spender","type":"address"}],"name":"ERC20InvalidSpender","type":"error"},{"inputs":[{"internalType":"uint256","name":"deadline","type":"uint256"}],"name":"ERC2612ExpiredSignature","type":"error"},{"inputs":[{"internalType":"address","name":"signer","type":"address"},{"internalType":"address","name":"owner","type":"address"}],"name":"ERC2612InvalidSigner","type":"error"},{"inputs":[{"internalType":"address","name":"account","type":"address"},{"internalType":"uint256","name":"currentNonce","type":"uint256"}],"name":"InvalidAccountNonce","type":"error"},{"inputs":[],"name":"InvalidShortString","type":"error"},{"inputs":[{"internalType":"address","name":"owner","type":"address"}],"name":"OwnableInvalidOwner","type":"error"},{"inputs":[{"internalType":"address","name":"account","type":"address"}],"name":"OwnableUnauthorizedAccount","type":"error"},{"inputs":[{"internalType":"string","name":"str","type":"string"}],"name":"StringTooLong","type":"error"},{"anonymous":false,"inputs":[{"indexed":true,"internalType":"address","name":"owner","type":"address"},{"indexed":true,"internalType":"address","name":"spender","type":"address"},{"indexed":false,"internalType":"uint256","name":"value","type":"uint256"}],"name":"Approval","type":"event"},{"anonymous":false,"inputs":[{"indexed":false,"internalType":"uint256","name":"tokenId","type":"uint256"},{"indexed":false,"internalType":"uint256","name":"totalFractions","type":"uint256"},{"indexed":true,"internalType":"address","name":"initiator","type":"address"}],"name":"CertificateFractionalized","type":"event"},{"anonymous":false,"inputs":[],"name":"EIP712DomainChanged","type":"event"},{"anonymous":false,"inputs":[{"indexed":true,"internalType":"address","name":"previousOwner","type":"address"},{"indexed":true,"internalType":"address","name":"newOwner","type":"address"}],"name":"OwnershipTransferred","type":"event"},{"anonymous":false,"inputs":[{"indexed":true,"internalType":"address","name":"from","type":"address"},{"indexed":true,"internalType":"address","name":"to","type":"address"},{"indexed":false,"internalType":"uint256","name":"value","type":"uint256"}],"name":"Transfer","type":"event"},{"inputs":[],"name":"DOMAIN_SEPARATOR","outputs":[{"internalType":"bytes32","name":"","type":"bytes32"}],"stateMutability":"view","type":"function"},{"inputs":[{"internalType":"address","name":"owner","type":"address"},{"internalType":"address","name":"spender","type":"address"}],"name":"allowance","outputs":[{"internalType":"uint256","name":"","type":"uint256"}],"stateMutability":"view","type":"function"},{"inputs":[{"internalType":"address","name":"spender","type":"address"},{"internalType":"uint256","name":"value","type":"uint256"}],"name":"approve","outputs":[{"internalType":"bool","name":"","type":"bool"}],"stateMutability":"nonpayable","type":"function"},{"inputs":[{"internalType":"address","name":"account","type":"address"}],"name":"balanceOf","outputs":[{"internalType":"uint256","name":"","type":"uint256"}],"stateMutability":"view","type":"function"},{"inputs":[],"name":"certificateTokenId","outputs":[{"internalType":"uint256","name":"","type":"uint256"}],"stateMutability":"view","type":"function"},{"inputs":[],"name":"decimals","outputs":[{"internalType":"uint8","name":"","type":"uint8"}],"stateMutability":"view","type":"function"},{"inputs":[],"name":"eip712Domain","outputs":[{"internalType":"bytes1","name":"fields","type":"bytes1"},{"internalType":"string","name":"name","type":"string"},{"internalType":"string","name":"version","type":"string"},{"internalType":"uint256","name":"chainId","type":"uint256"},{"internalType":"address","name":"verifyingContract","type":"address"},{"internalType":"bytes32","name":"salt","type":"bytes32"},{"internalType":"uint256[]","name":"extensions","type":"uint256[]"}],"stateMutability":"view","type":"function"},{"inputs":[],"name":"fractionalizeCertificate","outputs":[],"stateMutability":"nonpayable","type":"function"},{"inputs":[],"name":"getFractionInfo","outputs":[{"internalType":"address","name":"nftAddress","type":"address"},{"internalType":"uint256","name":"tokenId","type":"uint256"},{"internalType":"uint256","name":"totalFractions","type":"uint256"},{"internalType":"address","name":"ownerAddress","type":"address"}],"stateMutability":"view","type":"function"},{"inputs":[],"name":"iRecCertificateContract","outputs":[{"internalType":"contract IERC721","name":"","type":"address"}],"stateMutability":"view","type":"function"},{"inputs":[],"name":"isFractionalized","outputs":[{"internalType":"bool","name":"","type":"bool"}],"stateMutability":"view","type":"function"},{"inputs":[],"name":"name","outputs":[{"internalType":"string","name":"","type":"string"}],"stateMutability":"view","type":"function"},{"inputs":[{"internalType":"address","name":"owner","type":"address"}],"name":"nonces","outputs":[{"internalType":"uint256","name":"","type":"uint256"}],"stateMutability":"view","type":"function"},{"inputs":[{"internalType":"address","name":"","type":"address"},{"internalType":"address","name":"","type":"address"},{"internalType":"uint256","name":"","type":"uint256"},{"internalType":"bytes","name":"","type":"bytes"}],"name":"onERC721Received","outputs":[{"internalType":"bytes4","name":"","type":"bytes4"}],"stateMutability":"nonpayable","type":"function"},{"inputs":[],"name":"owner","outputs":[{"internalType":"address","name":"","type":"address"}],"stateMutability":"view","type":"function"},{"inputs":[{"internalType":"address","name":"owner","type":"address"},{"internalType":"address","name":"spender","type":"address"},{"internalType":"uint256","name":"value","type":"uint256"},{"internalType":"uint256","name":"deadline","type":"uint256"},{"internalType":"uint8","name":"v","type":"uint8"},{"internalType":"bytes32","name":"r","type":"bytes32"},{"internalType":"bytes32","name":"s","type":"bytes32"}],"name":"permit","outputs":[],"stateMutability":"nonpayable","type":"function"},{"inputs":[],"name":"renounceOwnership","outputs":[],"stateMutability":"nonpayable","type":"function"},{"inputs":[],"name":"symbol","outputs":[{"internalType":"string","name":"","type":"string"}],"stateMutability":"view","type":"function"},{"inputs":[],"name":"totalSupply","outputs":[{"internalType":"uint256","name":"","type":"uint256"}],"stateMutability":"view","type":"function"},{"inputs":[{"internalType":"address","name":"to","type":"address"},{"internalType":"uint256","name":"value","type":"uint256"}],"name":"transfer","outputs":[{"internalType":"bool","name":"","type":"bool"}],"stateMutability":"nonpayable","type":"function"},{"inputs":[{"internalType":"address","name":"from","type":"address"},{"internalType":"address","name":"to","type":"address"},{"internalType":"uint256","name":"value","type":"uint256"}],"name":"transferFrom","outputs":[{"internalType":"bool","name":"","type":"bool"}],"stateMutability":"nonpayable","type":"function"},{"inputs":[{"internalType":"address","name":"newOwner","type":"address"}],"name":"transferOwnership","outputs":[],"stateMutability":"nonpayable","type":"function"}],"evm":{"bytecode":{"linkReferences":{},"object":"6101a060405234801561001157600080fd5b506040516134de3803806134de833981810160405281019061003391906108ae565b83806040518060400160405280600181526020017f3100000000000000000000000000000000000000000000000000000000000000815250338787816003908161007d9190610b78565b50806004908161008d9190610b78565b505050600073ffffffffffffffffffffffffffffffffffffffff168173ffffffffffffffffffffffffffffffffffffffff16036101025760006040517f1e4fbdf70000000000000000000000000000000000000000000000000000000081526004016100f99190610c59565b60405180910390fd5b6101118161021560201b60201c565b506101266006836102db60201b90919060201c565b61012081815250506101426007826102db60201b90919060201c565b6101408181525050818051906020012060e08181525050808051906020012061010081815250504660a0818152505061017f61032b60201b60201c565b608081815250503073ffffffffffffffffffffffffffffffffffffffff1660c08173ffffffffffffffffffffffffffffffffffffffff16815250505050508173ffffffffffffffffffffffffffffffffffffffff166101608173ffffffffffffffffffffffffffffffffffffffff168152505080610180818152505061020b338661038660201b60201c565b5050505050610ea7565b6000600560009054906101000a900473ffffffffffffffffffffffffffffffffffffffff16905081600560006101000a81548173ffffffffffffffffffffffffffffffffffffffff021916908373ffffffffffffffffffffffffffffffffffffffff1602179055508173ffffffffffffffffffffffffffffffffffffffff168173ffffffffffffffffffffffffffffffffffffffff167f8be0079c531659141344cd1fd0a4f28419497f9722a3daafe3b4186f6b6457e060405160405180910390a35050565b60006020835110156102fd576102f68361040e60201b60201c565b9050610325565b8261030d8361047660201b60201c565b600001908161031c9190610b78565b5060ff60001b90505b92915050565b60007f8b73c3c69bb8fe3d512ecc4cf759cc79239f7b179b0ffacaa9a75d522b39400f60e05161010051463060405160200161036b959493929190610c9c565b60405160208183030381529060405280519060200120905090565b600073ffffffffffffffffffffffffffffffffffffffff168273ffffffffffffffffffffffffffffffffffffffff16036103f85760006040517fec442f050000000000000000000000000000000000000000000000000000000081526004016103ef9190610c59565b60405180910390fd5b61040a6000838361048060201b60201c565b5050565b600080829050601f8151111561045b57826040517f305a27a90000000000000000000000000000000000000000000000000000000081526004016104529190610d39565b60405180910390fd5b80518161046790610d8b565b60001c1760001b915050919050565b6000819050919050565b600073ffffffffffffffffffffffffffffffffffffffff168373ffffffffffffffffffffffffffffffffffffffff16036104d25780600260008282546104c69190610e21565b925050819055506105a5565b60008060008573ffffffffffffffffffffffffffffffffffffffff1673ffffffffffffffffffffffffffffffffffffffff1681526020019081526020016000205490508181101561055e578381836040517fe450d38c00000000000000000000000000000000000000000000000000000000815260040161055593929190610e55565b60405180910390fd5b8181036000808673ffffffffffffffffffffffffffffffffffffffff1673ffffffffffffffffffffffffffffffffffffffff16815260200190815260200160002081905550505b600073ffffffffffffffffffffffffffffffffffffffff168273ffffffffffffffffffffffffffffffffffffffff16036105ee578060026000828254039250508190555061063b565b806000808473ffffffffffffffffffffffffffffffffffffffff1673ffffffffffffffffffffffffffffffffffffffff168152602001908152602001600020600082825401925050819055505b8173ffffffffffffffffffffffffffffffffffffffff168373ffffffffffffffffffffffffffffffffffffffff167fddf252ad1be2c89b69c2b068fc378daa952ba7f163c4a11628f55a4df523b3ef836040516106989190610e8c565b60405180910390a3505050565b6000604051905090565b600080fd5b600080fd5b6000819050919050565b6106cc816106b9565b81146106d757600080fd5b50565b6000815190506106e9816106c3565b92915050565b600080fd5b600080fd5b6000601f19601f8301169050919050565b7f4e487b7100000000000000000000000000000000000000000000000000000000600052604160045260246000fd5b610742826106f9565b810181811067ffffffffffffffff821117156107615761076061070a565b5b80604052505050565b60006107746106a5565b90506107808282610739565b919050565b600067ffffffffffffffff8211156107a05761079f61070a565b5b6107a9826106f9565b9050602081019050919050565b60005b838110156107d45780820151818401526020810190506107b9565b60008484015250505050565b60006107f36107ee84610785565b61076a565b90508281526020810184848401111561080f5761080e6106f4565b5b61081a8482856107b6565b509392505050565b600082601f830112610837576108366106ef565b5b81516108478482602086016107e0565b91505092915050565b600073ffffffffffffffffffffffffffffffffffffffff82169050919050565b600061087b82610850565b9050919050565b61088b81610870565b811461089657600080fd5b50565b6000815190506108a881610882565b92915050565b600080600080600060a086880312156108ca576108c96106af565b5b60006108d8888289016106da565b955050602086015167ffffffffffffffff8111156108f9576108f86106b4565b5b61090588828901610822565b945050604086015167ffffffffffffffff811115610926576109256106b4565b5b61093288828901610822565b935050606061094388828901610899565b9250506080610954888289016106da565b9150509295509295909350565b600081519050919050565b7f4e487b7100000000000000000000000000000000000000000000000000000000600052602260045260246000fd5b600060028204905060018216806109b357607f821691505b6020821081036109c6576109c561096c565b5b50919050565b60008190508160005260206000209050919050565b60006020601f8301049050919050565b600082821b905092915050565b600060088302610a2e7fffffffffffffffffffffffffffffffffffffffffffffffffffffffffffffffff826109f1565b610a3886836109f1565b95508019841693508086168417925050509392505050565b6000819050919050565b6000610a75610a70610a6b846106b9565b610a50565b6106b9565b9050919050565b6000819050919050565b610a8f83610a5a565b610aa3610a9b82610a7c565b8484546109fe565b825550505050565b600090565b610ab8610aab565b610ac3818484610a86565b505050565b5b81811015610ae757610adc600082610ab0565b600181019050610ac9565b5050565b601f821115610b2c57610afd816109cc565b610b06846109e1565b81016020851015610b15578190505b610b29610b21856109e1565b830182610ac8565b50505b505050565b600082821c905092915050565b6000610b4f60001984600802610b31565b1980831691505092915050565b6000610b688383610b3e565b9150826002028217905092915050565b610b8182610961565b67ffffffffffffffff811115610b9a57610b9961070a565b5b610ba4825461099b565b610baf828285610aeb565b600060209050601f831160018114610be25760008415610bd0578287015190505b610bda8582610b5c565b865550610c42565b601f198416610bf0866109cc565b60005b82811015610c1857848901518255600182019150602085019450602081019050610bf3565b86831015610c355784890151610c31601f891682610b3e565b8355505b6001600288020188555050505b505050505050565b610c5381610870565b82525050565b6000602082019050610c6e6000830184610c4a565b92915050565b6000819050919050565b610c8781610c74565b82525050565b610c96816106b9565b82525050565b600060a082019050610cb16000830188610c7e565b610cbe6020830187610c7e565b610ccb6040830186610c7e565b610cd86060830185610c8d565b610ce56080830184610c4a565b9695505050505050565b600082825260208201905092915050565b6000610d0b82610961565b610d158185610cef565b9350610d258185602086016107b6565b610d2e816106f9565b840191505092915050565b60006020820190508181036000830152610d538184610d00565b905092915050565b600081519050919050565b6000819050602082019050919050565b6000610d828251610c74565b80915050919050565b6000610d9682610d5b565b82610da084610d66565b9050610dab81610d76565b92506020821015610deb57610de67fffffffffffffffffffffffffffffffffffffffffffffffffffffffffffffffff836020036008026109f1565b831692505b5050919050565b7f4e487b7100000000000000000000000000000000000000000000000000000000600052601160045260246000fd5b6000610e2c826106b9565b9150610e37836106b9565b9250828201905080821115610e4f57610e4e610df2565b5b92915050565b6000606082019050610e6a6000830186610c4a565b610e776020830185610c8d565b610e846040830184610c8d565b949350505050565b6000602082019050610ea16000830184610c8d565b92915050565b60805160a05160c05160e05161010051610120516101405161016051610180516125a4610f3a60003960008181610565015281816106670152818161072b0152610bbb0152600081816106290152818161091b0152610b9a0152600061102c01526000610ff1015260006115410152600061152001526000610d9f01526000610df501526000610e1e01526125a46000f3fe608060405234801561001057600080fd5b50600436106101425760003560e01c8063715018a6116100b8578063a9059cbb1161007c578063a9059cbb1461035f578063b01d6d821461038f578063d505accf146103ad578063dd62ed3e146103c9578063f2fde38b146103f9578063fb647cd91461041557610142565b8063715018a6146102c55780637ecebe00146102cf57806384b0196e146102ff5780638da5cb5b1461032357806395d89b411461034157610142565b8063313ce5671161010a578063313ce567146102135780633644e515146102315780633fb3ca201461024f5780634b24691f1461026d57806370a082311461028b57806370be42a6146102bb57610142565b806306fdde0314610147578063095ea7b314610165578063150b7a021461019557806318160ddd146101c557806323b872dd146101e3575b600080fd5b61014f610436565b60405161015c9190611a2e565b60405180910390f35b61017f600480360381019061017a9190611af8565b6104c8565b60405161018c9190611b53565b60405180910390f35b6101af60048036038101906101aa9190611ca3565b6104eb565b6040516101bc9190611d61565b60405180910390f35b6101cd6104ff565b6040516101da9190611d8b565b60405180910390f35b6101fd60048036038101906101f89190611da6565b610509565b60405161020a9190611b53565b60405180910390f35b61021b610538565b6040516102289190611e15565b60405180910390f35b610239610541565b6040516102469190611e49565b60405180910390f35b610257610550565b6040516102649190611b53565b60405180910390f35b610275610563565b6040516102829190611d8b565b60405180910390f35b6102a560048036038101906102a09190611e64565b610587565b6040516102b29190611d8b565b60405180910390f35b6102c36105cf565b005b6102cd61076a565b005b6102e960048036038101906102e49190611e64565b61077e565b6040516102f69190611d8b565b60405180910390f35b610307610790565b60405161031a9796959493929190611f99565b60405180910390f35b61032b61083a565b604051610338919061201d565b60405180910390f35b610349610864565b6040516103569190611a2e565b60405180910390f35b61037960048036038101906103749190611af8565b6108f6565b6040516103869190611b53565b60405180910390f35b610397610919565b6040516103a49190612097565b60405180910390f35b6103c760048036038101906103c2919061210a565b61093d565b005b6103e360048036038101906103de91906121ac565b610a85565b6040516103f09190611d8b565b60405180910390f35b610413600480360381019061040e9190611e64565b610b0c565b005b61041d610b92565b60405161042d94939291906121ec565b60405180910390f35b60606003805461044590612260565b80601f016020809104026020016040519081016040528092919081815260200182805461047190612260565b80156104be5780601f10610493576101008083540402835291602001916104be565b820191906000526020600020905b8154815290600101906020018083116104a157829003601f168201915b5050505050905090565b6000806104d3610bf8565b90506104e0818585610c00565b600191505092915050565b600063150b7a0260e01b9050949350505050565b6000600254905090565b600080610514610bf8565b9050610521858285610c12565b61052c858585610ca7565b60019150509392505050565b60006012905090565b600061054b610d9b565b905090565b600960009054906101000a900460ff1681565b7f000000000000000000000000000000000000000000000000000000000000000081565b60008060008373ffffffffffffffffffffffffffffffffffffffff1673ffffffffffffffffffffffffffffffffffffffff168152602001908152602001600020549050919050565b6105d7610e52565b600960009054906101000a900460ff1615610627576040517f08c379a000000000000000000000000000000000000000000000000000000000815260040161061e90612303565b60405180910390fd5b7f000000000000000000000000000000000000000000000000000000000000000073ffffffffffffffffffffffffffffffffffffffff166342842e0e33307f00000000000000000000000000000000000000000000000000000000000000006040518463ffffffff1660e01b81526004016106a493929190612323565b600060405180830381600087803b1580156106be57600080fd5b505af11580156106d2573d6000803e3d6000fd5b505050506001600960006101000a81548160ff0219169083151502179055503373ffffffffffffffffffffffffffffffffffffffff167f467dbdf4e2cf848cda2e91cd4fe12eed702c327975f0ca15fc227e822e72ca5b7f00000000000000000000000000000000000000000000000000000000000000006107526104ff565b60405161076092919061235a565b60405180910390a2565b610772610e52565b61077c6000610ed9565b565b600061078982610f9f565b9050919050565b6000606080600080600060606107a4610fe8565b6107ac611023565b46306000801b600067ffffffffffffffff8111156107cd576107cc611b78565b5b6040519080825280602002602001820160405280156107fb5781602001602082028036833780820191505090505b507f0f00000000000000000000000000000000000000000000000000000000000000959493929190965096509650965096509650965090919293949596565b6000600560009054906101000a900473ffffffffffffffffffffffffffffffffffffffff16905090565b60606004805461087390612260565b80601f016020809104026020016040519081016040528092919081815260200182805461089f90612260565b80156108ec5780601f106108c1576101008083540402835291602001916108ec565b820191906000526020600020905b8154815290600101906020018083116108cf57829003601f168201915b5050505050905090565b600080610901610bf8565b905061090e818585610ca7565b600191505092915050565b7f000000000000000000000000000000000000000000000000000000000000000081565b8342111561098257836040517f627913020000000000000000000000000000000000000000000000000000000081526004016109799190611d8b565b60405180910390fd5b60007f6e71edae12b1b97f4d1f60370fef10105fa2faae0126114a169c64845d6126c98888886109b18c61105e565b896040516020016109c796959493929190612383565b60405160208183030381529060405280519060200120905060006109ea826110b5565b905060006109fa828787876110cf565b90508973ffffffffffffffffffffffffffffffffffffffff168173ffffffffffffffffffffffffffffffffffffffff1614610a6e57808a6040517f4b800e46000000000000000000000000000000000000000000000000000000008152600401610a659291906123e4565b60405180910390fd5b610a798a8a8a610c00565b50505050505050505050565b6000600160008473ffffffffffffffffffffffffffffffffffffffff1673ffffffffffffffffffffffffffffffffffffffff16815260200190815260200160002060008373ffffffffffffffffffffffffffffffffffffffff1673ffffffffffffffffffffffffffffffffffffffff16815260200190815260200160002054905092915050565b610b14610e52565b600073ffffffffffffffffffffffffffffffffffffffff168173ffffffffffffffffffffffffffffffffffffffff1603610b865760006040517f1e4fbdf7000000000000000000000000000000000000000000000000000000008152600401610b7d919061201d565b60405180910390fd5b610b8f81610ed9565b50565b6000806000807f00000000000000000000000000000000000000000000000000000000000000007f0000000000000000000000000000000000000000000000000000000000000000610be26104ff565b610bea61083a565b935093509350935090919293565b600033905090565b610c0d83838360016110ff565b505050565b6000610c1e8484610a85565b90507fffffffffffffffffffffffffffffffffffffffffffffffffffffffffffffffff811015610ca15781811015610c91578281836040517ffb8f41b2000000000000000000000000000000000000000000000000000000008152600401610c889392919061240d565b60405180910390fd5b610ca0848484840360006110ff565b5b50505050565b600073ffffffffffffffffffffffffffffffffffffffff168373ffffffffffffffffffffffffffffffffffffffff1603610d195760006040517f96c6fd1e000000000000000000000000000000000000000000000000000000008152600401610d10919061201d565b60405180910390fd5b600073ffffffffffffffffffffffffffffffffffffffff168273ffffffffffffffffffffffffffffffffffffffff1603610d8b5760006040517fec442f05000000000000000000000000000000000000000000000000000000008152600401610d82919061201d565b60405180910390fd5b610d968383836112d6565b505050565b60007f000000000000000000000000000000000000000000000000000000000000000073ffffffffffffffffffffffffffffffffffffffff163073ffffffffffffffffffffffffffffffffffffffff16148015610e1757507f000000000000000000000000000000000000000000000000000000000000000046145b15610e44577f00000000000000000000000000000000000000000000000000000000000000009050610e4f565b610e4c6114fb565b90505b90565b610e5a610bf8565b73ffffffffffffffffffffffffffffffffffffffff16610e7861083a565b73ffffffffffffffffffffffffffffffffffffffff1614610ed757610e9b610bf8565b6040517f118cdaa7000000000000000000000000000000000000000000000000000000008152600401610ece919061201d565b60405180910390fd5b565b6000600560009054906101000a900473ffffffffffffffffffffffffffffffffffffffff16905081600560006101000a81548173ffffffffffffffffffffffffffffffffffffffff021916908373ffffffffffffffffffffffffffffffffffffffff1602179055508173ffffffffffffffffffffffffffffffffffffffff168173ffffffffffffffffffffffffffffffffffffffff167f8be0079c531659141344cd1fd0a4f28419497f9722a3daafe3b4186f6b6457e060405160405180910390a35050565b6000600860008373ffffffffffffffffffffffffffffffffffffffff1673ffffffffffffffffffffffffffffffffffffffff168152602001908152602001600020549050919050565b606061101e60067f000000000000000000000000000000000000000000000000000000000000000061159190919063ffffffff16565b905090565b606061105960077f000000000000000000000000000000000000000000000000000000000000000061159190919063ffffffff16565b905090565b6000600860008373ffffffffffffffffffffffffffffffffffffffff1673ffffffffffffffffffffffffffffffffffffffff1681526020019081526020016000206000815480929190600101919050559050919050565b60006110c86110c2610d9b565b83611641565b9050919050565b6000806000806110e188888888611682565b9250925092506110f18282611776565b829350505050949350505050565b600073ffffffffffffffffffffffffffffffffffffffff168473ffffffffffffffffffffffffffffffffffffffff16036111715760006040517fe602df05000000000000000000000000000000000000000000000000000000008152600401611168919061201d565b60405180910390fd5b600073ffffffffffffffffffffffffffffffffffffffff168373ffffffffffffffffffffffffffffffffffffffff16036111e35760006040517f94280d620000000000000000000000000000000000000000000000000000000081526004016111da919061201d565b60405180910390fd5b81600160008673ffffffffffffffffffffffffffffffffffffffff1673ffffffffffffffffffffffffffffffffffffffff16815260200190815260200160002060008573ffffffffffffffffffffffffffffffffffffffff1673ffffffffffffffffffffffffffffffffffffffff1681526020019081526020016000208190555080156112d0578273ffffffffffffffffffffffffffffffffffffffff168473ffffffffffffffffffffffffffffffffffffffff167f8c5be1e5ebec7d5bd14f71427d1e84f3dd0314c0f7b2291e5b200ac8c7c3b925846040516112c79190611d8b565b60405180910390a35b50505050565b600073ffffffffffffffffffffffffffffffffffffffff168373ffffffffffffffffffffffffffffffffffffffff160361132857806002600082825461131c9190612473565b925050819055506113fb565b60008060008573ffffffffffffffffffffffffffffffffffffffff1673ffffffffffffffffffffffffffffffffffffffff168152602001908152602001600020549050818110156113b4578381836040517fe450d38c0000000000000000000000000000000000000000000000000000000081526004016113ab9392919061240d565b60405180910390fd5b8181036000808673ffffffffffffffffffffffffffffffffffffffff1673ffffffffffffffffffffffffffffffffffffffff16815260200190815260200160002081905550505b600073ffffffffffffffffffffffffffffffffffffffff168273ffffffffffffffffffffffffffffffffffffffff16036114445780600260008282540392505081905550611491565b806000808473ffffffffffffffffffffffffffffffffffffffff1673ffffffffffffffffffffffffffffffffffffffff168152602001908152602001600020600082825401925050819055505b8173ffffffffffffffffffffffffffffffffffffffff168373ffffffffffffffffffffffffffffffffffffffff167fddf252ad1be2c89b69c2b068fc378daa952ba7f163c4a11628f55a4df523b3ef836040516114ee9190611d8b565b60405180910390a3505050565b60007f8b73c3c69bb8fe3d512ecc4cf759cc79239f7b179b0ffacaa9a75d522b39400f7f00000000000000000000000000000000000000000000000000000000000000007f000000000000000000000000000000000000000000000000000000000000000046306040516020016115769594939291906124a7565b60405160208183030381529060405280519060200120905090565b606060ff60001b83146115ae576115a7836118da565b905061163b565b8180546115ba90612260565b80601f01602080910402602001604051908101604052809291908181526020018280546115e690612260565b80156116335780601f1061160857610100808354040283529160200191611633565b820191906000526020600020905b81548152906001019060200180831161161657829003601f168201915b505050505090505b92915050565b60006040517f190100000000000000000000000000000000000000000000000000000000000081528360028201528260228201526042812091505092915050565b60008060007f7fffffffffffffffffffffffffffffff5d576e7357a4501ddfe92f46681b20a08460001c11156116c257600060038592509250925061176c565b6000600188888888604051600081526020016040526040516116e794939291906124fa565b6020604051602081039080840390855afa158015611709573d6000803e3d6000fd5b505050602060405103519050600073ffffffffffffffffffffffffffffffffffffffff168173ffffffffffffffffffffffffffffffffffffffff160361175d57600060016000801b9350935093505061176c565b8060008060001b935093509350505b9450945094915050565b6000600381111561178a5761178961253f565b5b82600381111561179d5761179c61253f565b5b03156118d657600160038111156117b7576117b661253f565b5b8260038111156117ca576117c961253f565b5b03611801576040517ff645eedf00000000000000000000000000000000000000000000000000000000815260040160405180910390fd5b600260038111156118155761181461253f565b5b8260038111156118285761182761253f565b5b0361186d578060001c6040517ffce698f70000000000000000000000000000000000000000000000000000000081526004016118649190611d8b565b60405180910390fd5b6003808111156118805761187f61253f565b5b8260038111156118935761189261253f565b5b036118d557806040517fd78bce0c0000000000000000000000000000000000000000000000000000000081526004016118cc9190611e49565b60405180910390fd5b5b5050565b606060006118e78361194e565b90506000602067ffffffffffffffff81111561190657611905611b78565b5b6040519080825280601f01601f1916602001820160405280156119385781602001600182028036833780820191505090505b5090508181528360208201528092505050919050565b60008060ff8360001c169050601f811115611995576040517fb3512b0c00000000000000000000000000000000000000000000000000000000815260040160405180910390fd5b80915050919050565b600081519050919050565b600082825260208201905092915050565b60005b838110156119d85780820151818401526020810190506119bd565b60008484015250505050565b6000601f19601f8301169050919050565b6000611a008261199e565b611a0a81856119a9565b9350611a1a8185602086016119ba565b611a23816119e4565b840191505092915050565b60006020820190508181036000830152611a4881846119f5565b905092915050565b6000604051905090565b600080fd5b600080fd5b600073ffffffffffffffffffffffffffffffffffffffff82169050919050565b6000611a8f82611a64565b9050919050565b611a9f81611a84565b8114611aaa57600080fd5b50565b600081359050611abc81611a96565b92915050565b6000819050919050565b611ad581611ac2565b8114611ae057600080fd5b50565b600081359050611af281611acc565b92915050565b60008060408385031215611b0f57611b0e611a5a565b5b6000611b1d85828601611aad565b9250506020611b2e85828601611ae3565b9150509250929050565b60008115159050919050565b611b4d81611b38565b82525050565b6000602082019050611b686000830184611b44565b92915050565b600080fd5b600080fd5b7f4e487b7100000000000000000000000000000000000000000000000000000000600052604160045260246000fd5b611bb0826119e4565b810181811067ffffffffffffffff82111715611bcf57611bce611b78565b5b80604052505050565b6000611be2611a50565b9050611bee8282611ba7565b919050565b600067ffffffffffffffff821115611c0e57611c0d611b78565b5b611c17826119e4565b9050602081019050919050565b82818337600083830152505050565b6000611c46611c4184611bf3565b611bd8565b905082815260208101848484011115611c6257611c61611b73565b5b611c6d848285611c24565b509392505050565b600082601f830112611c8a57611c89611b6e565b5b8135611c9a848260208601611c33565b91505092915050565b60008060008060808587031215611cbd57611cbc611a5a565b5b6000611ccb87828801611aad565b9450506020611cdc87828801611aad565b9350506040611ced87828801611ae3565b925050606085013567ffffffffffffffff811115611d0e57611d0d611a5f565b5b611d1a87828801611c75565b91505092959194509250565b60007fffffffff0000000000000000000000000000000000000000000000000000000082169050919050565b611d5b81611d26565b82525050565b6000602082019050611d766000830184611d52565b92915050565b611d8581611ac2565b82525050565b6000602082019050611da06000830184611d7c565b92915050565b600080600060608486031215611dbf57611dbe611a5a565b5b6000611dcd86828701611aad565b9350506020611dde86828701611aad565b9250506040611def86828701611ae3565b9150509250925092565b600060ff82169050919050565b611e0f81611df9565b82525050565b6000602082019050611e2a6000830184611e06565b92915050565b6000819050919050565b611e4381611e30565b82525050565b6000602082019050611e5e6000830184611e3a565b92915050565b600060208284031215611e7a57611e79611a5a565b5b6000611e8884828501611aad565b91505092915050565b60007fff0000000000000000000000000000000000000000000000000000000000000082169050919050565b611ec681611e91565b82525050565b611ed581611a84565b82525050565b600081519050919050565b600082825260208201905092915050565b6000819050602082019050919050565b611f1081611ac2565b82525050565b6000611f228383611f07565b60208301905092915050565b6000602082019050919050565b6000611f4682611edb565b611f508185611ee6565b9350611f5b83611ef7565b8060005b83811015611f8c578151611f738882611f16565b9750611f7e83611f2e565b925050600181019050611f5f565b5085935050505092915050565b600060e082019050611fae600083018a611ebd565b8181036020830152611fc081896119f5565b90508181036040830152611fd481886119f5565b9050611fe36060830187611d7c565b611ff06080830186611ecc565b611ffd60a0830185611e3a565b81810360c083015261200f8184611f3b565b905098975050505050505050565b60006020820190506120326000830184611ecc565b92915050565b6000819050919050565b600061205d61205861205384611a64565b612038565b611a64565b9050919050565b600061206f82612042565b9050919050565b600061208182612064565b9050919050565b61209181612076565b82525050565b60006020820190506120ac6000830184612088565b92915050565b6120bb81611df9565b81146120c657600080fd5b50565b6000813590506120d8816120b2565b92915050565b6120e781611e30565b81146120f257600080fd5b50565b600081359050612104816120de565b92915050565b600080600080600080600060e0888a03121561212957612128611a5a565b5b60006121378a828b01611aad565b97505060206121488a828b01611aad565b96505060406121598a828b01611ae3565b955050606061216a8a828b01611ae3565b945050608061217b8a828b016120c9565b93505060a061218c8a828b016120f5565b92505060c061219d8a828b016120f5565b91505092959891949750929550565b600080604083850312156121c3576121c2611a5a565b5b60006121d185828601611aad565b92505060206121e285828601611aad565b9150509250929050565b60006080820190506122016000830187611ecc565b61220e6020830186611d7c565b61221b6040830185611d7c565b6122286060830184611ecc565b95945050505050565b7f4e487b7100000000000000000000000000000000000000000000000000000000600052602260045260246000fd5b6000600282049050600182168061227857607f821691505b60208210810361228b5761228a612231565b5b50919050565b7f436572746966696361746520616c7265616479206672616374696f6e616c697a60008201527f6564000000000000000000000000000000000000000000000000000000000000602082015250565b60006122ed6022836119a9565b91506122f882612291565b604082019050919050565b6000602082019050818103600083015261231c816122e0565b9050919050565b60006060820190506123386000830186611ecc565b6123456020830185611ecc565b6123526040830184611d7c565b949350505050565b600060408201905061236f6000830185611d7c565b61237c6020830184611d7c565b9392505050565b600060c0820190506123986000830189611e3a565b6123a56020830188611ecc565b6123b26040830187611ecc565b6123bf6060830186611d7c565b6123cc6080830185611d7c565b6123d960a0830184611d7c565b979650505050505050565b60006040820190506123f96000830185611ecc565b6124066020830184611ecc565b9392505050565b60006060820190506124226000830186611ecc565b61242f6020830185611d7c565b61243c6040830184611d7c565b949350505050565b7f4e487b7100000000000000000000000000000000000000000000000000000000600052601160045260246000fd5b600061247e82611ac2565b915061248983611ac2565b92508282019050808211156124a1576124a0612444565b5b92915050565b600060a0820190506124bc6000830188611e3a565b6124c96020830187611e3a565b6124d66040830186611e3a565b6124e36060830185611d7c565b6124f06080830184611ecc565b9695505050505050565b600060808201905061250f6000830187611e3a565b61251c6020830186611e06565b6125296040830185611e3a565b6125366060830184611e3a565b95945050505050565b7f4e487b7100000000000000000000000000000000000000000000000000000000600052602160045260246000fdfea264697066735822122018d1336427f0c98878277d4ffa8935600a098749af3405a62d20ef13749ed50e64736f6c634300081c0033","opcodes":"PUSH2 0x1A0 PUSH1 0x40 MSTORE CALLVALUE DUP1 ISZERO PUSH2 0x11 JUMPI PUSH1 0x0 DUP1 REVERT JUMPDEST POP PUSH1 0x40 MLOAD PUSH2 0x34DE CODESIZE SUB DUP1 PUSH2 0x34DE DUP4 CODECOPY DUP2 DUP2 ADD PUSH1 0x40 MSTORE DUP2 ADD SWAP1 PUSH2 0x33 SWAP2 SWAP1 PUSH2 0x8AE JUMP JUMPDEST DUP4 DUP1 PUSH1 0x40 MLOAD DUP1 PUSH1 0x40 ADD PUSH1 0x40 MSTORE DUP1 PUSH1 0x1 DUP2 MSTORE PUSH1 0x20 ADD PUSH32 0x3100000000000000000000000000000000000000000000000000000000000000 DUP2 MSTORE POP CALLER DUP8 DUP8 DUP2 PUSH1 0x3 SWAP1 DUP2 PUSH2 0x7D SWAP2 SWAP1 PUSH2 0xB78 JUMP JUMPDEST POP DUP1 PUSH1 0x4 SWAP1 DUP2 PUSH2 0x8D SWAP2 SWAP1 PUSH2 0xB78 JUMP JUMPDEST POP POP POP PUSH1 0x0 PUSH20 0xFFFFFFFFFFFFFFFFFFFFFFFFFFFFFFFFFFFFFFFF AND DUP2 PUSH20 0xFFFFFFFFFFFFFFFFFFFFFFFFFFFFFFFFFFFFFFFF AND SUB PUSH2 0x102 JUMPI PUSH1 0x0 PUSH1 0x40 MLOAD PUSH32 0x1E4FBDF700000000000000000000000000000000000000000000000000000000 DUP2 MSTORE PUSH1 0x4 ADD PUSH2 0xF9 SWAP2 SWAP1 PUSH2 0xC59 JUMP JUMPDEST PUSH1 0x40 MLOAD DUP1 SWAP2 SUB SWAP1 REVERT JUMPDEST PUSH2 0x111 DUP2 PUSH2 0x215 PUSH1 0x20 SHL PUSH1 0x20 SHR JUMP JUMPDEST POP PUSH2 0x126 PUSH1 0x6 DUP4 PUSH2 0x2DB PUSH1 0x20 SHL SWAP1 SWAP2 SWAP1 PUSH1 0x20 SHR JUMP JUMPDEST PUSH2 0x120 DUP2 DUP2 MSTORE POP POP PUSH2 0x142 PUSH1 0x7 DUP3 PUSH2 0x2DB PUSH1 0x20 SHL SWAP1 SWAP2 SWAP1 PUSH1 0x20 SHR JUMP JUMPDEST PUSH2 0x140 DUP2 DUP2 MSTORE POP POP DUP2 DUP1 MLOAD SWAP1 PUSH1 0x20 ADD KECCAK256 PUSH1 0xE0 DUP2 DUP2 MSTORE POP POP DUP1 DUP1 MLOAD SWAP1 PUSH1 0x20 ADD KECCAK256 PUSH2 0x100 DUP2 DUP2 MSTORE POP POP CHAINID PUSH1 0xA0 DUP2 DUP2 MSTORE POP POP PUSH2 0x17F PUSH2 0x32B PUSH1 0x20 SHL PUSH1 0x20 SHR JUMP JUMPDEST PUSH1 0x80 DUP2 DUP2 MSTORE POP POP ADDRESS PUSH20 0xFFFFFFFFFFFFFFFFFFFFFFFFFFFFFFFFFFFFFFFF AND PUSH1 0xC0 DUP2 PUSH20 0xFFFFFFFFFFFFFFFFFFFFFFFFFFFFFFFFFFFFFFFF AND DUP2 MSTORE POP POP POP POP POP DUP2 PUSH20 0xFFFFFFFFFFFFFFFFFFFFFFFFFFFFFFFFFFFFFFFF AND PUSH2 0x160 DUP2 PUSH20 0xFFFFFFFFFFFFFFFFFFFFFFFFFFFFFFFFFFFFFFFF AND DUP2 MSTORE POP POP DUP1 PUSH2 0x180 DUP2 DUP2 MSTORE POP POP PUSH2 0x20B CALLER DUP7 PUSH2 0x386 PUSH1 0x20 SHL PUSH1 0x20 SHR JUMP JUMPDEST POP POP POP POP POP PUSH2 0xEA7 JUMP JUMPDEST PUSH1 0x0 PUSH1 0x5 PUSH1 0x0 SWAP1 SLOAD SWAP1 PUSH2 0x100 EXP SWAP1 DIV PUSH20 0xFFFFFFFFFFFFFFFFFFFFFFFFFFFFFFFFFFFFFFFF AND SWAP1 POP DUP2 PUSH1 0x5 PUSH1 0x0 PUSH2 0x100 EXP DUP2 SLOAD DUP2 PUSH20 0xFFFFFFFFFFFFFFFFFFFFFFFFFFFFFFFFFFFFFFFF MUL NOT AND SWAP1 DUP4 PUSH20 0xFFFFFFFFFFFFFFFFFFFFFFFFFFFFFFFFFFFFFFFF AND MUL OR SWAP1 SSTORE POP DUP2 PUSH20 0xFFFFFFFFFFFFFFFFFFFFFFFFFFFFFFFFFFFFFFFF AND DUP2 PUSH20 0xFFFFFFFFFFFFFFFFFFFFFFFFFFFFFFFFFFFFFFFF AND PUSH32 0x8BE0079C531659141344CD1FD0A4F28419497F9722A3DAAFE3B4186F6B6457E0 PUSH1 0x40 MLOAD PUSH1 0x40 MLOAD DUP1 SWAP2 SUB SWAP1 LOG3 POP POP JUMP JUMPDEST PUSH1 0x0 PUSH1 0x20 DUP4 MLOAD LT ISZERO PUSH2 0x2FD JUMPI PUSH2 0x2F6 DUP4 PUSH2 0x40E PUSH1 0x20 SHL PUSH1 0x20 SHR JUMP JUMPDEST SWAP1 POP PUSH2 0x325 JUMP JUMPDEST DUP3 PUSH2 0x30D DUP4 PUSH2 0x476 PUSH1 0x20 SHL PUSH1 0x20 SHR JUMP JUMPDEST PUSH1 0x0 ADD SWAP1 DUP2 PUSH2 0x31C SWAP2 SWAP1 PUSH2 0xB78 JUMP JUMPDEST POP PUSH1 0xFF PUSH1 0x0 SHL SWAP1 POP JUMPDEST SWAP3 SWAP2 POP POP JUMP JUMPDEST PUSH1 0x0 PUSH32 0x8B73C3C69BB8FE3D512ECC4CF759CC79239F7B179B0FFACAA9A75D522B39400F PUSH1 0xE0 MLOAD PUSH2 0x100 MLOAD CHAINID ADDRESS PUSH1 0x40 MLOAD PUSH1 0x20 ADD PUSH2 0x36B SWAP6 SWAP5 SWAP4 SWAP3 SWAP2 SWAP1 PUSH2 0xC9C JUMP JUMPDEST PUSH1 0x40 MLOAD PUSH1 0x20 DUP2 DUP4 SUB SUB DUP2 MSTORE SWAP1 PUSH1 0x40 MSTORE DUP1 MLOAD SWAP1 PUSH1 0x20 ADD KECCAK256 SWAP1 POP SWAP1 JUMP JUMPDEST PUSH1 0x0 PUSH20 0xFFFFFFFFFFFFFFFFFFFFFFFFFFFFFFFFFFFFFFFF AND DUP3 PUSH20 0xFFFFFFFFFFFFFFFFFFFFFFFFFFFFFFFFFFFFFFFF AND SUB PUSH2 0x3F8 JUMPI PUSH1 0x0 PUSH1 0x40 MLOAD PUSH32 0xEC442F0500000000000000000000000000000000000000000000000000000000 DUP2 MSTORE PUSH1 0x4 ADD PUSH2 0x3EF SWAP2 SWAP1 PUSH2 0xC59 JUMP JUMPDEST PUSH1 0x40 MLOAD DUP1 SWAP2 SUB SWAP1 REVERT JUMPDEST PUSH2 0x40A PUSH1 0x0 DUP4 DUP4 PUSH2 0x480 PUSH1 0x20 SHL PUSH1 0x20 SHR JUMP JUMPDEST POP POP JUMP JUMPDEST PUSH1 0x0 DUP1 DUP3 SWAP1 POP PUSH1 0x1F DUP2 MLOAD GT ISZERO PUSH2 0x45B JUMPI DUP3 PUSH1 0x40 MLOAD PUSH32 0x305A27A900000000000000000000000000000000000000000000000000000000 DUP2 MSTORE PUSH1 0x4 ADD PUSH2 0x452 SWAP2 SWAP1 PUSH2 0xD39 JUMP JUMPDEST PUSH1 0x40 MLOAD DUP1 SWAP2 SUB SWAP1 REVERT JUMPDEST DUP1 MLOAD DUP2 PUSH2 0x467 SWAP1 PUSH2 0xD8B JUMP JUMPDEST PUSH1 0x0 SHR OR PUSH1 0x0 SHL SWAP2 POP POP SWAP2 SWAP1 POP JUMP JUMPDEST PUSH1 0x0 DUP2 SWAP1 POP SWAP2 SWAP1 POP JUMP JUMPDEST PUSH1 0x0 PUSH20 0xFFFFFFFFFFFFFFFFFFFFFFFFFFFFFFFFFFFFFFFF AND DUP4 PUSH20 0xFFFFFFFFFFFFFFFFFFFFFFFFFFFFFFFFFFFFFFFF AND SUB PUSH2 0x4D2 JUMPI DUP1 PUSH1 0x2 PUSH1 0x0 DUP3 DUP3 SLOAD PUSH2 0x4C6 SWAP2 SWAP1 PUSH2 0xE21 JUMP JUMPDEST SWAP3 POP POP DUP2 SWAP1 SSTORE POP PUSH2 0x5A5 JUMP JUMPDEST PUSH1 0x0 DUP1 PUSH1 0x0 DUP6 PUSH20 0xFFFFFFFFFFFFFFFFFFFFFFFFFFFFFFFFFFFFFFFF AND PUSH20 0xFFFFFFFFFFFFFFFFFFFFFFFFFFFFFFFFFFFFFFFF AND DUP2 MSTORE PUSH1 0x20 ADD SWAP1 DUP2 MSTORE PUSH1 0x20 ADD PUSH1 0x0 KECCAK256 SLOAD SWAP1 POP DUP2 DUP2 LT ISZERO PUSH2 0x55E JUMPI DUP4 DUP2 DUP4 PUSH1 0x40 MLOAD PUSH32 0xE450D38C00000000000000000000000000000000000000000000000000000000 DUP2 MSTORE PUSH1 0x4 ADD PUSH2 0x555 SWAP4 SWAP3 SWAP2 SWAP1 PUSH2 0xE55 JUMP JUMPDEST PUSH1 0x40 MLOAD DUP1 SWAP2 SUB SWAP1 REVERT JUMPDEST DUP2 DUP2 SUB PUSH1 0x0 DUP1 DUP7 PUSH20 0xFFFFFFFFFFFFFFFFFFFFFFFFFFFFFFFFFFFFFFFF AND PUSH20 0xFFFFFFFFFFFFFFFFFFFFFFFFFFFFFFFFFFFFFFFF AND DUP2 MSTORE PUSH1 0x20 ADD SWAP1 DUP2 MSTORE PUSH1 0x20 ADD PUSH1 0x0 KECCAK256 DUP2 SWAP1 SSTORE POP POP JUMPDEST PUSH1 0x0 PUSH20 0xFFFFFFFFFFFFFFFFFFFFFFFFFFFFFFFFFFFFFFFF AND DUP3 PUSH20 0xFFFFFFFFFFFFFFFFFFFFFFFFFFFFFFFFFFFFFFFF AND SUB PUSH2 0x5EE JUMPI DUP1 PUSH1 0x2 PUSH1 0x0 DUP3 DUP3 SLOAD SUB SWAP3 POP POP DUP2 SWAP1 SSTORE POP PUSH2 0x63B JUMP JUMPDEST DUP1 PUSH1 0x0 DUP1 DUP5 PUSH20 0xFFFFFFFFFFFFFFFFFFFFFFFFFFFFFFFFFFFFFFFF AND PUSH20 0xFFFFFFFFFFFFFFFFFFFFFFFFFFFFFFFFFFFFFFFF AND DUP2 MSTORE PUSH1 0x20 ADD SWAP1 DUP2 MSTORE PUSH1 0x20 ADD PUSH1 0x0 KECCAK256 PUSH1 0x0 DUP3 DUP3 SLOAD ADD SWAP3 POP POP DUP2 SWAP1 SSTORE POP JUMPDEST DUP2 PUSH20 0xFFFFFFFFFFFFFFFFFFFFFFFFFFFFFFFFFFFFFFFF AND DUP4 PUSH20 0xFFFFFFFFFFFFFFFFFFFFFFFFFFFFFFFFFFFFFFFF AND PUSH32 0xDDF252AD1BE2C89B69C2B068FC378DAA952BA7F163C4A11628F55A4DF523B3EF DUP4 PUSH1 0x40 MLOAD PUSH2 0x698 SWAP2 SWAP1 PUSH2 0xE8C JUMP JUMPDEST PUSH1 0x40 MLOAD DUP1 SWAP2 SUB SWAP1 LOG3 POP POP POP JUMP JUMPDEST PUSH1 0x0 PUSH1 0x40 MLOAD SWAP1 POP SWAP1 JUMP JUMPDEST PUSH1 0x0 DUP1 REVERT JUMPDEST PUSH1 0x0 DUP1 REVERT JUMPDEST PUSH1 0x0 DUP2 SWAP1 POP SWAP2 SWAP1 POP JUMP JUMPDEST PUSH2 0x6CC DUP2 PUSH2 0x6B9 JUMP JUMPDEST DUP2 EQ PUSH2 0x6D7 JUMPI PUSH1 0x0 DUP1 REVERT JUMPDEST POP JUMP JUMPDEST PUSH1 0x0 DUP2 MLOAD SWAP1 POP PUSH2 0x6E9 DUP2 PUSH2 0x6C3 JUMP JUMPDEST SWAP3 SWAP2 POP POP JUMP JUMPDEST PUSH1 0x0 DUP1 REVERT JUMPDEST PUSH1 0x0 DUP1 REVERT JUMPDEST PUSH1 0x0 PUSH1 0x1F NOT PUSH1 0x1F DUP4 ADD AND SWAP1 POP SWAP2 SWAP1 POP JUMP JUMPDEST PUSH32 0x4E487B7100000000000000000000000000000000000000000000000000000000 PUSH1 0x0 MSTORE PUSH1 0x41 PUSH1 0x4 MSTORE PUSH1 0x24 PUSH1 0x0 REVERT JUMPDEST PUSH2 0x742 DUP3 PUSH2 0x6F9 JUMP JUMPDEST DUP2 ADD DUP2 DUP2 LT PUSH8 0xFFFFFFFFFFFFFFFF DUP3 GT OR ISZERO PUSH2 0x761 JUMPI PUSH2 0x760 PUSH2 0x70A JUMP JUMPDEST JUMPDEST DUP1 PUSH1 0x40 MSTORE POP POP POP JUMP JUMPDEST PUSH1 0x0 PUSH2 0x774 PUSH2 0x6A5 JUMP JUMPDEST SWAP1 POP PUSH2 0x780 DUP3 DUP3 PUSH2 0x739 JUMP JUMPDEST SWAP2 SWAP1 POP JUMP JUMPDEST PUSH1 0x0 PUSH8 0xFFFFFFFFFFFFFFFF DUP3 GT ISZERO PUSH2 0x7A0 JUMPI PUSH2 0x79F PUSH2 0x70A JUMP JUMPDEST JUMPDEST PUSH2 0x7A9 DUP3 PUSH2 0x6F9 JUMP JUMPDEST SWAP1 POP PUSH1 0x20 DUP2 ADD SWAP1 POP SWAP2 SWAP1 POP JUMP JUMPDEST PUSH1 0x0 JUMPDEST DUP4 DUP2 LT ISZERO PUSH2 0x7D4 JUMPI DUP1 DUP3 ADD MLOAD DUP2 DUP5 ADD MSTORE PUSH1 0x20 DUP2 ADD SWAP1 POP PUSH2 0x7B9 JUMP JUMPDEST PUSH1 0x0 DUP5 DUP5 ADD MSTORE POP POP POP POP JUMP JUMPDEST PUSH1 0x0 PUSH2 0x7F3 PUSH2 0x7EE DUP5 PUSH2 0x785 JUMP JUMPDEST PUSH2 0x76A JUMP JUMPDEST SWAP1 POP DUP3 DUP2 MSTORE PUSH1 0x20 DUP2 ADD DUP5 DUP5 DUP5 ADD GT ISZERO PUSH2 0x80F JUMPI PUSH2 0x80E PUSH2 0x6F4 JUMP JUMPDEST JUMPDEST PUSH2 0x81A DUP5 DUP3 DUP6 PUSH2 0x7B6 JUMP JUMPDEST POP SWAP4 SWAP3 POP POP POP JUMP JUMPDEST PUSH1 0x0 DUP3 PUSH1 0x1F DUP4 ADD SLT PUSH2 0x837 JUMPI PUSH2 0x836 PUSH2 0x6EF JUMP JUMPDEST JUMPDEST DUP2 MLOAD PUSH2 0x847 DUP5 DUP3 PUSH1 0x20 DUP7 ADD PUSH2 0x7E0 JUMP JUMPDEST SWAP2 POP POP SWAP3 SWAP2 POP POP JUMP JUMPDEST PUSH1 0x0 PUSH20 0xFFFFFFFFFFFFFFFFFFFFFFFFFFFFFFFFFFFFFFFF DUP3 AND SWAP1 POP SWAP2 SWAP1 POP JUMP JUMPDEST PUSH1 0x0 PUSH2 0x87B DUP3 PUSH2 0x850 JUMP JUMPDEST SWAP1 POP SWAP2 SWAP1 POP JUMP JUMPDEST PUSH2 0x88B DUP2 PUSH2 0x870 JUMP JUMPDEST DUP2 EQ PUSH2 0x896 JUMPI PUSH1 0x0 DUP1 REVERT JUMPDEST POP JUMP JUMPDEST PUSH1 0x0 DUP2 MLOAD SWAP1 POP PUSH2 0x8A8 DUP2 PUSH2 0x882 JUMP JUMPDEST SWAP3 SWAP2 POP POP JUMP JUMPDEST PUSH1 0x0 DUP1 PUSH1 0x0 DUP1 PUSH1 0x0 PUSH1 0xA0 DUP7 DUP9 SUB SLT ISZERO PUSH2 0x8CA JUMPI PUSH2 0x8C9 PUSH2 0x6AF JUMP JUMPDEST JUMPDEST PUSH1 0x0 PUSH2 0x8D8 DUP9 DUP3 DUP10 ADD PUSH2 0x6DA JUMP JUMPDEST SWAP6 POP POP PUSH1 0x20 DUP7 ADD MLOAD PUSH8 0xFFFFFFFFFFFFFFFF DUP2 GT ISZERO PUSH2 0x8F9 JUMPI PUSH2 0x8F8 PUSH2 0x6B4 JUMP JUMPDEST JUMPDEST PUSH2 0x905 DUP9 DUP3 DUP10 ADD PUSH2 0x822 JUMP JUMPDEST SWAP5 POP POP PUSH1 0x40 DUP7 ADD MLOAD PUSH8 0xFFFFFFFFFFFFFFFF DUP2 GT ISZERO PUSH2 0x926 JUMPI PUSH2 0x925 PUSH2 0x6B4 JUMP JUMPDEST JUMPDEST PUSH2 0x932 DUP9 DUP3 DUP10 ADD PUSH2 0x822 JUMP JUMPDEST SWAP4 POP POP PUSH1 0x60 PUSH2 0x943 DUP9 DUP3 DUP10 ADD PUSH2 0x899 JUMP JUMPDEST SWAP3 POP POP PUSH1 0x80 PUSH2 0x954 DUP9 DUP3 DUP10 ADD PUSH2 0x6DA JUMP JUMPDEST SWAP2 POP POP SWAP3 SWAP6 POP SWAP3 SWAP6 SWAP1 SWAP4 POP JUMP JUMPDEST PUSH1 0x0 DUP2 MLOAD SWAP1 POP SWAP2 SWAP1 POP JUMP JUMPDEST PUSH32 0x4E487B7100000000000000000000000000000000000000000000000000000000 PUSH1 0x0 MSTORE PUSH1 0x22 PUSH1 0x4 MSTORE PUSH1 0x24 PUSH1 0x0 REVERT JUMPDEST PUSH1 0x0 PUSH1 0x2 DUP3 DIV SWAP1 POP PUSH1 0x1 DUP3 AND DUP1 PUSH2 0x9B3 JUMPI PUSH1 0x7F DUP3 AND SWAP2 POP JUMPDEST PUSH1 0x20 DUP3 LT DUP2 SUB PUSH2 0x9C6 JUMPI PUSH2 0x9C5 PUSH2 0x96C JUMP JUMPDEST JUMPDEST POP SWAP2 SWAP1 POP JUMP JUMPDEST PUSH1 0x0 DUP2 SWAP1 POP DUP2 PUSH1 0x0 MSTORE PUSH1 0x20 PUSH1 0x0 KECCAK256 SWAP1 POP SWAP2 SWAP1 POP JUMP JUMPDEST PUSH1 0x0 PUSH1 0x20 PUSH1 0x1F DUP4 ADD DIV SWAP1 POP SWAP2 SWAP1 POP JUMP JUMPDEST PUSH1 0x0 DUP3 DUP3 SHL SWAP1 POP SWAP3 SWAP2 POP POP JUMP JUMPDEST PUSH1 0x0 PUSH1 0x8 DUP4 MUL PUSH2 0xA2E PUSH32 0xFFFFFFFFFFFFFFFFFFFFFFFFFFFFFFFFFFFFFFFFFFFFFFFFFFFFFFFFFFFFFFFF DUP3 PUSH2 0x9F1 JUMP JUMPDEST PUSH2 0xA38 DUP7 DUP4 PUSH2 0x9F1 JUMP JUMPDEST SWAP6 POP DUP1 NOT DUP5 AND SWAP4 POP DUP1 DUP7 AND DUP5 OR SWAP3 POP POP POP SWAP4 SWAP3 POP POP POP JUMP JUMPDEST PUSH1 0x0 DUP2 SWAP1 POP SWAP2 SWAP1 POP JUMP JUMPDEST PUSH1 0x0 PUSH2 0xA75 PUSH2 0xA70 PUSH2 0xA6B DUP5 PUSH2 0x6B9 JUMP JUMPDEST PUSH2 0xA50 JUMP JUMPDEST PUSH2 0x6B9 JUMP JUMPDEST SWAP1 POP SWAP2 SWAP1 POP JUMP JUMPDEST PUSH1 0x0 DUP2 SWAP1 POP SWAP2 SWAP1 POP JUMP JUMPDEST PUSH2 0xA8F DUP4 PUSH2 0xA5A JUMP JUMPDEST PUSH2 0xAA3 PUSH2 0xA9B DUP3 PUSH2 0xA7C JUMP JUMPDEST DUP5 DUP5 SLOAD PUSH2 0x9FE JUMP JUMPDEST DUP3 SSTORE POP POP POP POP JUMP JUMPDEST PUSH1 0x0 SWAP1 JUMP JUMPDEST PUSH2 0xAB8 PUSH2 0xAAB JUMP JUMPDEST PUSH2 0xAC3 DUP2 DUP5 DUP5 PUSH2 0xA86 JUMP JUMPDEST POP POP POP JUMP JUMPDEST JUMPDEST DUP2 DUP2 LT ISZERO PUSH2 0xAE7 JUMPI PUSH2 0xADC PUSH1 0x0 DUP3 PUSH2 0xAB0 JUMP JUMPDEST PUSH1 0x1 DUP2 ADD SWAP1 POP PUSH2 0xAC9 JUMP JUMPDEST POP POP JUMP JUMPDEST PUSH1 0x1F DUP3 GT ISZERO PUSH2 0xB2C JUMPI PUSH2 0xAFD DUP2 PUSH2 0x9CC JUMP JUMPDEST PUSH2 0xB06 DUP5 PUSH2 0x9E1 JUMP JUMPDEST DUP2 ADD PUSH1 0x20 DUP6 LT ISZERO PUSH2 0xB15 JUMPI DUP2 SWAP1 POP JUMPDEST PUSH2 0xB29 PUSH2 0xB21 DUP6 PUSH2 0x9E1 JUMP JUMPDEST DUP4 ADD DUP3 PUSH2 0xAC8 JUMP JUMPDEST POP POP JUMPDEST POP POP POP JUMP JUMPDEST PUSH1 0x0 DUP3 DUP3 SHR SWAP1 POP SWAP3 SWAP2 POP POP JUMP JUMPDEST PUSH1 0x0 PUSH2 0xB4F PUSH1 0x0 NOT DUP5 PUSH1 0x8 MUL PUSH2 0xB31 JUMP JUMPDEST NOT DUP1 DUP4 AND SWAP2 POP POP SWAP3 SWAP2 POP POP JUMP JUMPDEST PUSH1 0x0 PUSH2 0xB68 DUP4 DUP4 PUSH2 0xB3E JUMP JUMPDEST SWAP2 POP DUP3 PUSH1 0x2 MUL DUP3 OR SWAP1 POP SWAP3 SWAP2 POP POP JUMP JUMPDEST PUSH2 0xB81 DUP3 PUSH2 0x961 JUMP JUMPDEST PUSH8 0xFFFFFFFFFFFFFFFF DUP2 GT ISZERO PUSH2 0xB9A JUMPI PUSH2 0xB99 PUSH2 0x70A JUMP JUMPDEST JUMPDEST PUSH2 0xBA4 DUP3 SLOAD PUSH2 0x99B JUMP JUMPDEST PUSH2 0xBAF DUP3 DUP3 DUP6 PUSH2 0xAEB JUMP JUMPDEST PUSH1 0x0 PUSH1 0x20 SWAP1 POP PUSH1 0x1F DUP4 GT PUSH1 0x1 DUP2 EQ PUSH2 0xBE2 JUMPI PUSH1 0x0 DUP5 ISZERO PUSH2 0xBD0 JUMPI DUP3 DUP8 ADD MLOAD SWAP1 POP JUMPDEST PUSH2 0xBDA DUP6 DUP3 PUSH2 0xB5C JUMP JUMPDEST DUP7 SSTORE POP PUSH2 0xC42 JUMP JUMPDEST PUSH1 0x1F NOT DUP5 AND PUSH2 0xBF0 DUP7 PUSH2 0x9CC JUMP JUMPDEST PUSH1 0x0 JUMPDEST DUP3 DUP2 LT ISZERO PUSH2 0xC18 JUMPI DUP5 DUP10 ADD MLOAD DUP3 SSTORE PUSH1 0x1 DUP3 ADD SWAP2 POP PUSH1 0x20 DUP6 ADD SWAP5 POP PUSH1 0x20 DUP2 ADD SWAP1 POP PUSH2 0xBF3 JUMP JUMPDEST DUP7 DUP4 LT ISZERO PUSH2 0xC35 JUMPI DUP5 DUP10 ADD MLOAD PUSH2 0xC31 PUSH1 0x1F DUP10 AND DUP3 PUSH2 0xB3E JUMP JUMPDEST DUP4 SSTORE POP JUMPDEST PUSH1 0x1 PUSH1 0x2 DUP9 MUL ADD DUP9 SSTORE POP POP POP JUMPDEST POP POP POP POP POP POP JUMP JUMPDEST PUSH2 0xC53 DUP2 PUSH2 0x870 JUMP JUMPDEST DUP3 MSTORE POP POP JUMP JUMPDEST PUSH1 0x0 PUSH1 0x20 DUP3 ADD SWAP1 POP PUSH2 0xC6E PUSH1 0x0 DUP4 ADD DUP5 PUSH2 0xC4A JUMP JUMPDEST SWAP3 SWAP2 POP POP JUMP JUMPDEST PUSH1 0x0 DUP2 SWAP1 POP SWAP2 SWAP1 POP JUMP JUMPDEST PUSH2 0xC87 DUP2 PUSH2 0xC74 JUMP JUMPDEST DUP3 MSTORE POP POP JUMP JUMPDEST PUSH2 0xC96 DUP2 PUSH2 0x6B9 JUMP JUMPDEST DUP3 MSTORE POP POP JUMP JUMPDEST PUSH1 0x0 PUSH1 0xA0 DUP3 ADD SWAP1 POP PUSH2 0xCB1 PUSH1 0x0 DUP4 ADD DUP9 PUSH2 0xC7E JUMP JUMPDEST PUSH2 0xCBE PUSH1 0x20 DUP4 ADD DUP8 PUSH2 0xC7E JUMP JUMPDEST PUSH2 0xCCB PUSH1 0x40 DUP4 ADD DUP7 PUSH2 0xC7E JUMP JUMPDEST PUSH2 0xCD8 PUSH1 0x60 DUP4 ADD DUP6 PUSH2 0xC8D JUMP JUMPDEST PUSH2 0xCE5 PUSH1 0x80 DUP4 ADD DUP5 PUSH2 0xC4A JUMP JUMPDEST SWAP7 SWAP6 POP POP POP POP POP POP JUMP JUMPDEST PUSH1 0x0 DUP3 DUP3 MSTORE PUSH1 0x20 DUP3 ADD SWAP1 POP SWAP3 SWAP2 POP POP JUMP JUMPDEST PUSH1 0x0 PUSH2 0xD0B DUP3 PUSH2 0x961 JUMP JUMPDEST PUSH2 0xD15 DUP2 DUP6 PUSH2 0xCEF JUMP JUMPDEST SWAP4 POP PUSH2 0xD25 DUP2 DUP6 PUSH1 0x20 DUP7 ADD PUSH2 0x7B6 JUMP JUMPDEST PUSH2 0xD2E DUP2 PUSH2 0x6F9 JUMP JUMPDEST DUP5 ADD SWAP2 POP POP SWAP3 SWAP2 POP POP JUMP JUMPDEST PUSH1 0x0 PUSH1 0x20 DUP3 ADD SWAP1 POP DUP2 DUP2 SUB PUSH1 0x0 DUP4 ADD MSTORE PUSH2 0xD53 DUP2 DUP5 PUSH2 0xD00 JUMP JUMPDEST SWAP1 POP SWAP3 SWAP2 POP POP JUMP JUMPDEST PUSH1 0x0 DUP2 MLOAD SWAP1 POP SWAP2 SWAP1 POP JUMP JUMPDEST PUSH1 0x0 DUP2 SWAP1 POP PUSH1 0x20 DUP3 ADD SWAP1 POP SWAP2 SWAP1 POP JUMP JUMPDEST PUSH1 0x0 PUSH2 0xD82 DUP3 MLOAD PUSH2 0xC74 JUMP JUMPDEST DUP1 SWAP2 POP POP SWAP2 SWAP1 POP JUMP JUMPDEST PUSH1 0x0 PUSH2 0xD96 DUP3 PUSH2 0xD5B JUMP JUMPDEST DUP3 PUSH2 0xDA0 DUP5 PUSH2 0xD66 JUMP JUMPDEST SWAP1 POP PUSH2 0xDAB DUP2 PUSH2 0xD76 JUMP JUMPDEST SWAP3 POP PUSH1 0x20 DUP3 LT ISZERO PUSH2 0xDEB JUMPI PUSH2 0xDE6 PUSH32 0xFFFFFFFFFFFFFFFFFFFFFFFFFFFFFFFFFFFFFFFFFFFFFFFFFFFFFFFFFFFFFFFF DUP4 PUSH1 0x20 SUB PUSH1 0x8 MUL PUSH2 0x9F1 JUMP JUMPDEST DUP4 AND SWAP3 POP JUMPDEST POP POP SWAP2 SWAP1 POP JUMP JUMPDEST PUSH32 0x4E487B7100000000000000000000000000000000000000000000000000000000 PUSH1 0x0 MSTORE PUSH1 0x11 PUSH1 0x4 MSTORE PUSH1 0x24 PUSH1 0x0 REVERT JUMPDEST PUSH1 0x0 PUSH2 0xE2C DUP3 PUSH2 0x6B9 JUMP JUMPDEST SWAP2 POP PUSH2 0xE37 DUP4 PUSH2 0x6B9 JUMP JUMPDEST SWAP3 POP DUP3 DUP3 ADD SWAP1 POP DUP1 DUP3 GT ISZERO PUSH2 0xE4F JUMPI PUSH2 0xE4E PUSH2 0xDF2 JUMP JUMPDEST JUMPDEST SWAP3 SWAP2 POP POP JUMP JUMPDEST PUSH1 0x0 PUSH1 0x60 DUP3 ADD SWAP1 POP PUSH2 0xE6A PUSH1 0x0 DUP4 ADD DUP7 PUSH2 0xC4A JUMP JUMPDEST PUSH2 0xE77 PUSH1 0x20 DUP4 ADD DUP6 PUSH2 0xC8D JUMP JUMPDEST PUSH2 0xE84 PUSH1 0x40 DUP4 ADD DUP5 PUSH2 0xC8D JUMP JUMPDEST SWAP5 SWAP4 POP POP POP POP JUMP JUMPDEST PUSH1 0x0 PUSH1 0x20 DUP3 ADD SWAP1 POP PUSH2 0xEA1 PUSH1 0x0 DUP4 ADD DUP5 PUSH2 0xC8D JUMP JUMPDEST SWAP3 SWAP2 POP POP JUMP JUMPDEST PUSH1 0x80 MLOAD PUSH1 0xA0 MLOAD PUSH1 0xC0 MLOAD PUSH1 0xE0 MLOAD PUSH2 0x100 MLOAD PUSH2 0x120 MLOAD PUSH2 0x140 MLOAD PUSH2 0x160 MLOAD PUSH2 0x180 MLOAD PUSH2 0x25A4 PUSH2 0xF3A PUSH1 0x0 CODECOPY PUSH1 0x0 DUP2 DUP2 PUSH2 0x565 ADD MSTORE DUP2 DUP2 PUSH2 0x667 ADD MSTORE DUP2 DUP2 PUSH2 0x72B ADD MSTORE PUSH2 0xBBB ADD MSTORE PUSH1 0x0 DUP2 DUP2 PUSH2 0x629 ADD MSTORE DUP2 DUP2 PUSH2 0x91B ADD MSTORE PUSH2 0xB9A ADD MSTORE PUSH1 0x0 PUSH2 0x102C ADD MSTORE PUSH1 0x0 PUSH2 0xFF1 ADD MSTORE PUSH1 0x0 PUSH2 0x1541 ADD MSTORE PUSH1 0x0 PUSH2 0x1520 ADD MSTORE PUSH1 0x0 PUSH2 0xD9F ADD MSTORE PUSH1 0x0 PUSH2 0xDF5 ADD MSTORE PUSH1 0x0 PUSH2 0xE1E ADD MSTORE PUSH2 0x25A4 PUSH1 0x0 RETURN INVALID PUSH1 0x80 PUSH1 0x40 MSTORE CALLVALUE DUP1 ISZERO PUSH2 0x10 JUMPI PUSH1 0x0 DUP1 REVERT JUMPDEST POP PUSH1 0x4 CALLDATASIZE LT PUSH2 0x142 JUMPI PUSH1 0x0 CALLDATALOAD PUSH1 0xE0 SHR DUP1 PUSH4 0x715018A6 GT PUSH2 0xB8 JUMPI DUP1 PUSH4 0xA9059CBB GT PUSH2 0x7C JUMPI DUP1 PUSH4 0xA9059CBB EQ PUSH2 0x35F JUMPI DUP1 PUSH4 0xB01D6D82 EQ PUSH2 0x38F JUMPI DUP1 PUSH4 0xD505ACCF EQ PUSH2 0x3AD JUMPI DUP1 PUSH4 0xDD62ED3E EQ PUSH2 0x3C9 JUMPI DUP1 PUSH4 0xF2FDE38B EQ PUSH2 0x3F9 JUMPI DUP1 PUSH4 0xFB647CD9 EQ PUSH2 0x415 JUMPI PUSH2 0x142 JUMP JUMPDEST DUP1 PUSH4 0x715018A6 EQ PUSH2 0x2C5 JUMPI DUP1 PUSH4 0x7ECEBE00 EQ PUSH2 0x2CF JUMPI DUP1 PUSH4 0x84B0196E EQ PUSH2 0x2FF JUMPI DUP1 PUSH4 0x8DA5CB5B EQ PUSH2 0x323 JUMPI DUP1 PUSH4 0x95D89B41 EQ PUSH2 0x341 JUMPI PUSH2 0x142 JUMP JUMPDEST DUP1 PUSH4 0x313CE567 GT PUSH2 0x10A JUMPI DUP1 PUSH4 0x313CE567 EQ PUSH2 0x213 JUMPI DUP1 PUSH4 0x3644E515 EQ PUSH2 0x231 JUMPI DUP1 PUSH4 0x3FB3CA20 EQ PUSH2 0x24F JUMPI DUP1 PUSH4 0x4B24691F EQ PUSH2 0x26D JUMPI DUP1 PUSH4 0x70A08231 EQ PUSH2 0x28B JUMPI DUP1 PUSH4 0x70BE42A6 EQ PUSH2 0x2BB JUMPI PUSH2 0x142 JUMP JUMPDEST DUP1 PUSH4 0x6FDDE03 EQ PUSH2 0x147 JUMPI DUP1 PUSH4 0x95EA7B3 EQ PUSH2 0x165 JUMPI DUP1 PUSH4 0x150B7A02 EQ PUSH2 0x195 JUMPI DUP1 PUSH4 0x18160DDD EQ PUSH2 0x1C5 JUMPI DUP1 PUSH4 0x23B872DD EQ PUSH2 0x1E3 JUMPI JUMPDEST PUSH1 0x0 DUP1 REVERT JUMPDEST PUSH2 0x14F PUSH2 0x436 JUMP JUMPDEST PUSH1 0x40 MLOAD PUSH2 0x15C SWAP2 SWAP1 PUSH2 0x1A2E JUMP JUMPDEST PUSH1 0x40 MLOAD DUP1 SWAP2 SUB SWAP1 RETURN JUMPDEST PUSH2 0x17F PUSH1 0x4 DUP1 CALLDATASIZE SUB DUP2 ADD SWAP1 PUSH2 0x17A SWAP2 SWAP1 PUSH2 0x1AF8 JUMP JUMPDEST PUSH2 0x4C8 JUMP JUMPDEST PUSH1 0x40 MLOAD PUSH2 0x18C SWAP2 SWAP1 PUSH2 0x1B53 JUMP JUMPDEST PUSH1 0x40 MLOAD DUP1 SWAP2 SUB SWAP1 RETURN JUMPDEST PUSH2 0x1AF PUSH1 0x4 DUP1 CALLDATASIZE SUB DUP2 ADD SWAP1 PUSH2 0x1AA SWAP2 SWAP1 PUSH2 0x1CA3 JUMP JUMPDEST PUSH2 0x4EB JUMP JUMPDEST PUSH1 0x40 MLOAD PUSH2 0x1BC SWAP2 SWAP1 PUSH2 0x1D61 JUMP JUMPDEST PUSH1 0x40 MLOAD DUP1 SWAP2 SUB SWAP1 RETURN JUMPDEST PUSH2 0x1CD PUSH2 0x4FF JUMP JUMPDEST PUSH1 0x40 MLOAD PUSH2 0x1DA SWAP2 SWAP1 PUSH2 0x1D8B JUMP JUMPDEST PUSH1 0x40 MLOAD DUP1 SWAP2 SUB SWAP1 RETURN JUMPDEST PUSH2 0x1FD PUSH1 0x4 DUP1 CALLDATASIZE SUB DUP2 ADD SWAP1 PUSH2 0x1F8 SWAP2 SWAP1 PUSH2 0x1DA6 JUMP JUMPDEST PUSH2 0x509 JUMP JUMPDEST PUSH1 0x40 MLOAD PUSH2 0x20A SWAP2 SWAP1 PUSH2 0x1B53 JUMP JUMPDEST PUSH1 0x40 MLOAD DUP1 SWAP2 SUB SWAP1 RETURN JUMPDEST PUSH2 0x21B PUSH2 0x538 JUMP JUMPDEST PUSH1 0x40 MLOAD PUSH2 0x228 SWAP2 SWAP1 PUSH2 0x1E15 JUMP JUMPDEST PUSH1 0x40 MLOAD DUP1 SWAP2 SUB SWAP1 RETURN JUMPDEST PUSH2 0x239 PUSH2 0x541 JUMP JUMPDEST PUSH1 0x40 MLOAD PUSH2 0x246 SWAP2 SWAP1 PUSH2 0x1E49 JUMP JUMPDEST PUSH1 0x40 MLOAD DUP1 SWAP2 SUB SWAP1 RETURN JUMPDEST PUSH2 0x257 PUSH2 0x550 JUMP JUMPDEST PUSH1 0x40 MLOAD PUSH2 0x264 SWAP2 SWAP1 PUSH2 0x1B53 JUMP JUMPDEST PUSH1 0x40 MLOAD DUP1 SWAP2 SUB SWAP1 RETURN JUMPDEST PUSH2 0x275 PUSH2 0x563 JUMP JUMPDEST PUSH1 0x40 MLOAD PUSH2 0x282 SWAP2 SWAP1 PUSH2 0x1D8B JUMP JUMPDEST PUSH1 0x40 MLOAD DUP1 SWAP2 SUB SWAP1 RETURN JUMPDEST PUSH2 0x2A5 PUSH1 0x4 DUP1 CALLDATASIZE SUB DUP2 ADD SWAP1 PUSH2 0x2A0 SWAP2 SWAP1 PUSH2 0x1E64 JUMP JUMPDEST PUSH2 0x587 JUMP JUMPDEST PUSH1 0x40 MLOAD PUSH2 0x2B2 SWAP2 SWAP1 PUSH2 0x1D8B JUMP JUMPDEST PUSH1 0x40 MLOAD DUP1 SWAP2 SUB SWAP1 RETURN JUMPDEST PUSH2 0x2C3 PUSH2 0x5CF JUMP JUMPDEST STOP JUMPDEST PUSH2 0x2CD PUSH2 0x76A JUMP JUMPDEST STOP JUMPDEST PUSH2 0x2E9 PUSH1 0x4 DUP1 CALLDATASIZE SUB DUP2 ADD SWAP1 PUSH2 0x2E4 SWAP2 SWAP1 PUSH2 0x1E64 JUMP JUMPDEST PUSH2 0x77E JUMP JUMPDEST PUSH1 0x40 MLOAD PUSH2 0x2F6 SWAP2 SWAP1 PUSH2 0x1D8B JUMP JUMPDEST PUSH1 0x40 MLOAD DUP1 SWAP2 SUB SWAP1 RETURN JUMPDEST PUSH2 0x307 PUSH2 0x790 JUMP JUMPDEST PUSH1 0x40 MLOAD PUSH2 0x31A SWAP8 SWAP7 SWAP6 SWAP5 SWAP4 SWAP3 SWAP2 SWAP1 PUSH2 0x1F99 JUMP JUMPDEST PUSH1 0x40 MLOAD DUP1 SWAP2 SUB SWAP1 RETURN JUMPDEST PUSH2 0x32B PUSH2 0x83A JUMP JUMPDEST PUSH1 0x40 MLOAD PUSH2 0x338 SWAP2 SWAP1 PUSH2 0x201D JUMP JUMPDEST PUSH1 0x40 MLOAD DUP1 SWAP2 SUB SWAP1 RETURN JUMPDEST PUSH2 0x349 PUSH2 0x864 JUMP JUMPDEST PUSH1 0x40 MLOAD PUSH2 0x356 SWAP2 SWAP1 PUSH2 0x1A2E JUMP JUMPDEST PUSH1 0x40 MLOAD DUP1 SWAP2 SUB SWAP1 RETURN JUMPDEST PUSH2 0x379 PUSH1 0x4 DUP1 CALLDATASIZE SUB DUP2 ADD SWAP1 PUSH2 0x374 SWAP2 SWAP1 PUSH2 0x1AF8 JUMP JUMPDEST PUSH2 0x8F6 JUMP JUMPDEST PUSH1 0x40 MLOAD PUSH2 0x386 SWAP2 SWAP1 PUSH2 0x1B53 JUMP JUMPDEST PUSH1 0x40 MLOAD DUP1 SWAP2 SUB SWAP1 RETURN JUMPDEST PUSH2 0x397 PUSH2 0x919 JUMP JUMPDEST PUSH1 0x40 MLOAD PUSH2 0x3A4 SWAP2 SWAP1 PUSH2 0x2097 JUMP JUMPDEST PUSH1 0x40 MLOAD DUP1 SWAP2 SUB SWAP1 RETURN JUMPDEST PUSH2 0x3C7 PUSH1 0x4 DUP1 CALLDATASIZE SUB DUP2 ADD SWAP1 PUSH2 0x3C2 SWAP2 SWAP1 PUSH2 0x210A JUMP JUMPDEST PUSH2 0x93D JUMP JUMPDEST STOP JUMPDEST PUSH2 0x3E3 PUSH1 0x4 DUP1 CALLDATASIZE SUB DUP2 ADD SWAP1 PUSH2 0x3DE SWAP2 SWAP1 PUSH2 0x21AC JUMP JUMPDEST PUSH2 0xA85 JUMP JUMPDEST PUSH1 0x40 MLOAD PUSH2 0x3F0 SWAP2 SWAP1 PUSH2 0x1D8B JUMP JUMPDEST PUSH1 0x40 MLOAD DUP1 SWAP2 SUB SWAP1 RETURN JUMPDEST PUSH2 0x413 PUSH1 0x4 DUP1 CALLDATASIZE SUB DUP2 ADD SWAP1 PUSH2 0x40E SWAP2 SWAP1 PUSH2 0x1E64 JUMP JUMPDEST PUSH2 0xB0C JUMP JUMPDEST STOP JUMPDEST PUSH2 0x41D PUSH2 0xB92 JUMP JUMPDEST PUSH1 0x40 MLOAD PUSH2 0x42D SWAP5 SWAP4 SWAP3 SWAP2 SWAP1 PUSH2 0x21EC JUMP JUMPDEST PUSH1 0x40 MLOAD DUP1 SWAP2 SUB SWAP1 RETURN JUMPDEST PUSH1 0x60 PUSH1 0x3 DUP1 SLOAD PUSH2 0x445 SWAP1 PUSH2 0x2260 JUMP JUMPDEST DUP1 PUSH1 0x1F ADD PUSH1 0x20 DUP1 SWAP2 DIV MUL PUSH1 0x20 ADD PUSH1 0x40 MLOAD SWAP1 DUP2 ADD PUSH1 0x40 MSTORE DUP1 SWAP3 SWAP2 SWAP1 DUP2 DUP2 MSTORE PUSH1 0x20 ADD DUP3 DUP1 SLOAD PUSH2 0x471 SWAP1 PUSH2 0x2260 JUMP JUMPDEST DUP1 ISZERO PUSH2 0x4BE JUMPI DUP1 PUSH1 0x1F LT PUSH2 0x493 JUMPI PUSH2 0x100 DUP1 DUP4 SLOAD DIV MUL DUP4 MSTORE SWAP2 PUSH1 0x20 ADD SWAP2 PUSH2 0x4BE JUMP JUMPDEST DUP3 ADD SWAP2 SWAP1 PUSH1 0x0 MSTORE PUSH1 0x20 PUSH1 0x0 KECCAK256 SWAP1 JUMPDEST DUP2 SLOAD DUP2 MSTORE SWAP1 PUSH1 0x1 ADD SWAP1 PUSH1 0x20 ADD DUP1 DUP4 GT PUSH2 0x4A1 JUMPI DUP3 SWAP1 SUB PUSH1 0x1F AND DUP3 ADD SWAP2 JUMPDEST POP POP POP POP POP SWAP1 POP SWAP1 JUMP JUMPDEST PUSH1 0x0 DUP1 PUSH2 0x4D3 PUSH2 0xBF8 JUMP JUMPDEST SWAP1 POP PUSH2 0x4E0 DUP2 DUP6 DUP6 PUSH2 0xC00 JUMP JUMPDEST PUSH1 0x1 SWAP2 POP POP SWAP3 SWAP2 POP POP JUMP JUMPDEST PUSH1 0x0 PUSH4 0x150B7A02 PUSH1 0xE0 SHL SWAP1 POP SWAP5 SWAP4 POP POP POP POP JUMP JUMPDEST PUSH1 0x0 PUSH1 0x2 SLOAD SWAP1 POP SWAP1 JUMP JUMPDEST PUSH1 0x0 DUP1 PUSH2 0x514 PUSH2 0xBF8 JUMP JUMPDEST SWAP1 POP PUSH2 0x521 DUP6 DUP3 DUP6 PUSH2 0xC12 JUMP JUMPDEST PUSH2 0x52C DUP6 DUP6 DUP6 PUSH2 0xCA7 JUMP JUMPDEST PUSH1 0x1 SWAP2 POP POP SWAP4 SWAP3 POP POP POP JUMP JUMPDEST PUSH1 0x0 PUSH1 0x12 SWAP1 POP SWAP1 JUMP JUMPDEST PUSH1 0x0 PUSH2 0x54B PUSH2 0xD9B JUMP JUMPDEST SWAP1 POP SWAP1 JUMP JUMPDEST PUSH1 0x9 PUSH1 0x0 SWAP1 SLOAD SWAP1 PUSH2 0x100 EXP SWAP1 DIV PUSH1 0xFF AND DUP2 JUMP JUMPDEST PUSH32 0x0 DUP2 JUMP JUMPDEST PUSH1 0x0 DUP1 PUSH1 0x0 DUP4 PUSH20 0xFFFFFFFFFFFFFFFFFFFFFFFFFFFFFFFFFFFFFFFF AND PUSH20 0xFFFFFFFFFFFFFFFFFFFFFFFFFFFFFFFFFFFFFFFF AND DUP2 MSTORE PUSH1 0x20 ADD SWAP1 DUP2 MSTORE PUSH1 0x20 ADD PUSH1 0x0 KECCAK256 SLOAD SWAP1 POP SWAP2 SWAP1 POP JUMP JUMPDEST PUSH2 0x5D7 PUSH2 0xE52 JUMP JUMPDEST PUSH1 0x9 PUSH1 0x0 SWAP1 SLOAD SWAP1 PUSH2 0x100 EXP SWAP1 DIV PUSH1 0xFF AND ISZERO PUSH2 0x627 JUMPI PUSH1 0x40 MLOAD PUSH32 0x8C379A000000000000000000000000000000000000000000000000000000000 DUP2 MSTORE PUSH1 0x4 ADD PUSH2 0x61E SWAP1 PUSH2 0x2303 JUMP JUMPDEST PUSH1 0x40 MLOAD DUP1 SWAP2 SUB SWAP1 REVERT JUMPDEST PUSH32 0x0 PUSH20 0xFFFFFFFFFFFFFFFFFFFFFFFFFFFFFFFFFFFFFFFF AND PUSH4 0x42842E0E CALLER ADDRESS PUSH32 0x0 PUSH1 0x40 MLOAD DUP5 PUSH4 0xFFFFFFFF AND PUSH1 0xE0 SHL DUP2 MSTORE PUSH1 0x4 ADD PUSH2 0x6A4 SWAP4 SWAP3 SWAP2 SWAP1 PUSH2 0x2323 JUMP JUMPDEST PUSH1 0x0 PUSH1 0x40 MLOAD DUP1 DUP4 SUB DUP2 PUSH1 0x0 DUP8 DUP1 EXTCODESIZE ISZERO DUP1 ISZERO PUSH2 0x6BE JUMPI PUSH1 0x0 DUP1 REVERT JUMPDEST POP GAS CALL ISZERO DUP1 ISZERO PUSH2 0x6D2 JUMPI RETURNDATASIZE PUSH1 0x0 DUP1 RETURNDATACOPY RETURNDATASIZE PUSH1 0x0 REVERT JUMPDEST POP POP POP POP PUSH1 0x1 PUSH1 0x9 PUSH1 0x0 PUSH2 0x100 EXP DUP2 SLOAD DUP2 PUSH1 0xFF MUL NOT AND SWAP1 DUP4 ISZERO ISZERO MUL OR SWAP1 SSTORE POP CALLER PUSH20 0xFFFFFFFFFFFFFFFFFFFFFFFFFFFFFFFFFFFFFFFF AND PUSH32 0x467DBDF4E2CF848CDA2E91CD4FE12EED702C327975F0CA15FC227E822E72CA5B PUSH32 0x0 PUSH2 0x752 PUSH2 0x4FF JUMP JUMPDEST PUSH1 0x40 MLOAD PUSH2 0x760 SWAP3 SWAP2 SWAP1 PUSH2 0x235A JUMP JUMPDEST PUSH1 0x40 MLOAD DUP1 SWAP2 SUB SWAP1 LOG2 JUMP JUMPDEST PUSH2 0x772 PUSH2 0xE52 JUMP JUMPDEST PUSH2 0x77C PUSH1 0x0 PUSH2 0xED9 JUMP JUMPDEST JUMP JUMPDEST PUSH1 0x0 PUSH2 0x789 DUP3 PUSH2 0xF9F JUMP JUMPDEST SWAP1 POP SWAP2 SWAP1 POP JUMP JUMPDEST PUSH1 0x0 PUSH1 0x60 DUP1 PUSH1 0x0 DUP1 PUSH1 0x0 PUSH1 0x60 PUSH2 0x7A4 PUSH2 0xFE8 JUMP JUMPDEST PUSH2 0x7AC PUSH2 0x1023 JUMP JUMPDEST CHAINID ADDRESS PUSH1 0x0 DUP1 SHL PUSH1 0x0 PUSH8 0xFFFFFFFFFFFFFFFF DUP2 GT ISZERO PUSH2 0x7CD JUMPI PUSH2 0x7CC PUSH2 0x1B78 JUMP JUMPDEST JUMPDEST PUSH1 0x40 MLOAD SWAP1 DUP1 DUP3 MSTORE DUP1 PUSH1 0x20 MUL PUSH1 0x20 ADD DUP3 ADD PUSH1 0x40 MSTORE DUP1 ISZERO PUSH2 0x7FB JUMPI DUP2 PUSH1 0x20 ADD PUSH1 0x20 DUP3 MUL DUP1 CALLDATASIZE DUP4 CALLDATACOPY DUP1 DUP3 ADD SWAP2 POP POP SWAP1 POP JUMPDEST POP PUSH32 0xF00000000000000000000000000000000000000000000000000000000000000 SWAP6 SWAP5 SWAP4 SWAP3 SWAP2 SWAP1 SWAP7 POP SWAP7 POP SWAP7 POP SWAP7 POP SWAP7 POP SWAP7 POP SWAP7 POP SWAP1 SWAP2 SWAP3 SWAP4 SWAP5 SWAP6 SWAP7 JUMP JUMPDEST PUSH1 0x0 PUSH1 0x5 PUSH1 0x0 SWAP1 SLOAD SWAP1 PUSH2 0x100 EXP SWAP1 DIV PUSH20 0xFFFFFFFFFFFFFFFFFFFFFFFFFFFFFFFFFFFFFFFF AND SWAP1 POP SWAP1 JUMP JUMPDEST PUSH1 0x60 PUSH1 0x4 DUP1 SLOAD PUSH2 0x873 SWAP1 PUSH2 0x2260 JUMP JUMPDEST DUP1 PUSH1 0x1F ADD PUSH1 0x20 DUP1 SWAP2 DIV MUL PUSH1 0x20 ADD PUSH1 0x40 MLOAD SWAP1 DUP2 ADD PUSH1 0x40 MSTORE DUP1 SWAP3 SWAP2 SWAP1 DUP2 DUP2 MSTORE PUSH1 0x20 ADD DUP3 DUP1 SLOAD PUSH2 0x89F SWAP1 PUSH2 0x2260 JUMP JUMPDEST DUP1 ISZERO PUSH2 0x8EC JUMPI DUP1 PUSH1 0x1F LT PUSH2 0x8C1 JUMPI PUSH2 0x100 DUP1 DUP4 SLOAD DIV MUL DUP4 MSTORE SWAP2 PUSH1 0x20 ADD SWAP2 PUSH2 0x8EC JUMP JUMPDEST DUP3 ADD SWAP2 SWAP1 PUSH1 0x0 MSTORE PUSH1 0x20 PUSH1 0x0 KECCAK256 SWAP1 JUMPDEST DUP2 SLOAD DUP2 MSTORE SWAP1 PUSH1 0x1 ADD SWAP1 PUSH1 0x20 ADD DUP1 DUP4 GT PUSH2 0x8CF JUMPI DUP3 SWAP1 SUB PUSH1 0x1F AND DUP3 ADD SWAP2 JUMPDEST POP POP POP POP POP SWAP1 POP SWAP1 JUMP JUMPDEST PUSH1 0x0 DUP1 PUSH2 0x901 PUSH2 0xBF8 JUMP JUMPDEST SWAP1 POP PUSH2 0x90E DUP2 DUP6 DUP6 PUSH2 0xCA7 JUMP JUMPDEST PUSH1 0x1 SWAP2 POP POP SWAP3 SWAP2 POP POP JUMP JUMPDEST PUSH32 0x0 DUP2 JUMP JUMPDEST DUP4 TIMESTAMP GT ISZERO PUSH2 0x982 JUMPI DUP4 PUSH1 0x40 MLOAD PUSH32 0x6279130200000000000000000000000000000000000000000000000000000000 DUP2 MSTORE PUSH1 0x4 ADD PUSH2 0x979 SWAP2 SWAP1 PUSH2 0x1D8B JUMP JUMPDEST PUSH1 0x40 MLOAD DUP1 SWAP2 SUB SWAP1 REVERT JUMPDEST PUSH1 0x0 PUSH32 0x6E71EDAE12B1B97F4D1F60370FEF10105FA2FAAE0126114A169C64845D6126C9 DUP9 DUP9 DUP9 PUSH2 0x9B1 DUP13 PUSH2 0x105E JUMP JUMPDEST DUP10 PUSH1 0x40 MLOAD PUSH1 0x20 ADD PUSH2 0x9C7 SWAP7 SWAP6 SWAP5 SWAP4 SWAP3 SWAP2 SWAP1 PUSH2 0x2383 JUMP JUMPDEST PUSH1 0x40 MLOAD PUSH1 0x20 DUP2 DUP4 SUB SUB DUP2 MSTORE SWAP1 PUSH1 0x40 MSTORE DUP1 MLOAD SWAP1 PUSH1 0x20 ADD KECCAK256 SWAP1 POP PUSH1 0x0 PUSH2 0x9EA DUP3 PUSH2 0x10B5 JUMP JUMPDEST SWAP1 POP PUSH1 0x0 PUSH2 0x9FA DUP3 DUP8 DUP8 DUP8 PUSH2 0x10CF JUMP JUMPDEST SWAP1 POP DUP10 PUSH20 0xFFFFFFFFFFFFFFFFFFFFFFFFFFFFFFFFFFFFFFFF AND DUP2 PUSH20 0xFFFFFFFFFFFFFFFFFFFFFFFFFFFFFFFFFFFFFFFF AND EQ PUSH2 0xA6E JUMPI DUP1 DUP11 PUSH1 0x40 MLOAD PUSH32 0x4B800E4600000000000000000000000000000000000000000000000000000000 DUP2 MSTORE PUSH1 0x4 ADD PUSH2 0xA65 SWAP3 SWAP2 SWAP1 PUSH2 0x23E4 JUMP JUMPDEST PUSH1 0x40 MLOAD DUP1 SWAP2 SUB SWAP1 REVERT JUMPDEST PUSH2 0xA79 DUP11 DUP11 DUP11 PUSH2 0xC00 JUMP JUMPDEST POP POP POP POP POP POP POP POP POP POP JUMP JUMPDEST PUSH1 0x0 PUSH1 0x1 PUSH1 0x0 DUP5 PUSH20 0xFFFFFFFFFFFFFFFFFFFFFFFFFFFFFFFFFFFFFFFF AND PUSH20 0xFFFFFFFFFFFFFFFFFFFFFFFFFFFFFFFFFFFFFFFF AND DUP2 MSTORE PUSH1 0x20 ADD SWAP1 DUP2 MSTORE PUSH1 0x20 ADD PUSH1 0x0 KECCAK256 PUSH1 0x0 DUP4 PUSH20 0xFFFFFFFFFFFFFFFFFFFFFFFFFFFFFFFFFFFFFFFF AND PUSH20 0xFFFFFFFFFFFFFFFFFFFFFFFFFFFFFFFFFFFFFFFF AND DUP2 MSTORE PUSH1 0x20 ADD SWAP1 DUP2 MSTORE PUSH1 0x20 ADD PUSH1 0x0 KECCAK256 SLOAD SWAP1 POP SWAP3 SWAP2 POP POP JUMP JUMPDEST PUSH2 0xB14 PUSH2 0xE52 JUMP JUMPDEST PUSH1 0x0 PUSH20 0xFFFFFFFFFFFFFFFFFFFFFFFFFFFFFFFFFFFFFFFF AND DUP2 PUSH20 0xFFFFFFFFFFFFFFFFFFFFFFFFFFFFFFFFFFFFFFFF AND SUB PUSH2 0xB86 JUMPI PUSH1 0x0 PUSH1 0x40 MLOAD PUSH32 0x1E4FBDF700000000000000000000000000000000000000000000000000000000 DUP2 MSTORE PUSH1 0x4 ADD PUSH2 0xB7D SWAP2 SWAP1 PUSH2 0x201D JUMP JUMPDEST PUSH1 0x40 MLOAD DUP1 SWAP2 SUB SWAP1 REVERT JUMPDEST PUSH2 0xB8F DUP2 PUSH2 0xED9 JUMP JUMPDEST POP JUMP JUMPDEST PUSH1 0x0 DUP1 PUSH1 0x0 DUP1 PUSH32 0x0 PUSH32 0x0 PUSH2 0xBE2 PUSH2 0x4FF JUMP JUMPDEST PUSH2 0xBEA PUSH2 0x83A JUMP JUMPDEST SWAP4 POP SWAP4 POP SWAP4 POP SWAP4 POP SWAP1 SWAP2 SWAP3 SWAP4 JUMP JUMPDEST PUSH1 0x0 CALLER SWAP1 POP SWAP1 JUMP JUMPDEST PUSH2 0xC0D DUP4 DUP4 DUP4 PUSH1 0x1 PUSH2 0x10FF JUMP JUMPDEST POP POP POP JUMP JUMPDEST PUSH1 0x0 PUSH2 0xC1E DUP5 DUP5 PUSH2 0xA85 JUMP JUMPDEST SWAP1 POP PUSH32 0xFFFFFFFFFFFFFFFFFFFFFFFFFFFFFFFFFFFFFFFFFFFFFFFFFFFFFFFFFFFFFFFF DUP2 LT ISZERO PUSH2 0xCA1 JUMPI DUP2 DUP2 LT ISZERO PUSH2 0xC91 JUMPI DUP3 DUP2 DUP4 PUSH1 0x40 MLOAD PUSH32 0xFB8F41B200000000000000000000000000000000000000000000000000000000 DUP2 MSTORE PUSH1 0x4 ADD PUSH2 0xC88 SWAP4 SWAP3 SWAP2 SWAP1 PUSH2 0x240D JUMP JUMPDEST PUSH1 0x40 MLOAD DUP1 SWAP2 SUB SWAP1 REVERT JUMPDEST PUSH2 0xCA0 DUP5 DUP5 DUP5 DUP5 SUB PUSH1 0x0 PUSH2 0x10FF JUMP JUMPDEST JUMPDEST POP POP POP POP JUMP JUMPDEST PUSH1 0x0 PUSH20 0xFFFFFFFFFFFFFFFFFFFFFFFFFFFFFFFFFFFFFFFF AND DUP4 PUSH20 0xFFFFFFFFFFFFFFFFFFFFFFFFFFFFFFFFFFFFFFFF AND SUB PUSH2 0xD19 JUMPI PUSH1 0x0 PUSH1 0x40 MLOAD PUSH32 0x96C6FD1E00000000000000000000000000000000000000000000000000000000 DUP2 MSTORE PUSH1 0x4 ADD PUSH2 0xD10 SWAP2 SWAP1 PUSH2 0x201D JUMP JUMPDEST PUSH1 0x40 MLOAD DUP1 SWAP2 SUB SWAP1 REVERT JUMPDEST PUSH1 0x0 PUSH20 0xFFFFFFFFFFFFFFFFFFFFFFFFFFFFFFFFFFFFFFFF AND DUP3 PUSH20 0xFFFFFFFFFFFFFFFFFFFFFFFFFFFFFFFFFFFFFFFF AND SUB PUSH2 0xD8B JUMPI PUSH1 0x0 PUSH1 0x40 MLOAD PUSH32 0xEC442F0500000000000000000000000000000000000000000000000000000000 DUP2 MSTORE PUSH1 0x4 ADD PUSH2 0xD82 SWAP2 SWAP1 PUSH2 0x201D JUMP JUMPDEST PUSH1 0x40 MLOAD DUP1 SWAP2 SUB SWAP1 REVERT JUMPDEST PUSH2 0xD96 DUP4 DUP4 DUP4 PUSH2 0x12D6 JUMP JUMPDEST POP POP POP JUMP JUMPDEST PUSH1 0x0 PUSH32 0x0 PUSH20 0xFFFFFFFFFFFFFFFFFFFFFFFFFFFFFFFFFFFFFFFF AND ADDRESS PUSH20 0xFFFFFFFFFFFFFFFFFFFFFFFFFFFFFFFFFFFFFFFF AND EQ DUP1 ISZERO PUSH2 0xE17 JUMPI POP PUSH32 0x0 CHAINID EQ JUMPDEST ISZERO PUSH2 0xE44 JUMPI PUSH32 0x0 SWAP1 POP PUSH2 0xE4F JUMP JUMPDEST PUSH2 0xE4C PUSH2 0x14FB JUMP JUMPDEST SWAP1 POP JUMPDEST SWAP1 JUMP JUMPDEST PUSH2 0xE5A PUSH2 0xBF8 JUMP JUMPDEST PUSH20 0xFFFFFFFFFFFFFFFFFFFFFFFFFFFFFFFFFFFFFFFF AND PUSH2 0xE78 PUSH2 0x83A JUMP JUMPDEST PUSH20 0xFFFFFFFFFFFFFFFFFFFFFFFFFFFFFFFFFFFFFFFF AND EQ PUSH2 0xED7 JUMPI PUSH2 0xE9B PUSH2 0xBF8 JUMP JUMPDEST PUSH1 0x40 MLOAD PUSH32 0x118CDAA700000000000000000000000000000000000000000000000000000000 DUP2 MSTORE PUSH1 0x4 ADD PUSH2 0xECE SWAP2 SWAP1 PUSH2 0x201D JUMP JUMPDEST PUSH1 0x40 MLOAD DUP1 SWAP2 SUB SWAP1 REVERT JUMPDEST JUMP JUMPDEST PUSH1 0x0 PUSH1 0x5 PUSH1 0x0 SWAP1 SLOAD SWAP1 PUSH2 0x100 EXP SWAP1 DIV PUSH20 0xFFFFFFFFFFFFFFFFFFFFFFFFFFFFFFFFFFFFFFFF AND SWAP1 POP DUP2 PUSH1 0x5 PUSH1 0x0 PUSH2 0x100 EXP DUP2 SLOAD DUP2 PUSH20 0xFFFFFFFFFFFFFFFFFFFFFFFFFFFFFFFFFFFFFFFF MUL NOT AND SWAP1 DUP4 PUSH20 0xFFFFFFFFFFFFFFFFFFFFFFFFFFFFFFFFFFFFFFFF AND MUL OR SWAP1 SSTORE POP DUP2 PUSH20 0xFFFFFFFFFFFFFFFFFFFFFFFFFFFFFFFFFFFFFFFF AND DUP2 PUSH20 0xFFFFFFFFFFFFFFFFFFFFFFFFFFFFFFFFFFFFFFFF AND PUSH32 0x8BE0079C531659141344CD1FD0A4F28419497F9722A3DAAFE3B4186F6B6457E0 PUSH1 0x40 MLOAD PUSH1 0x40 MLOAD DUP1 SWAP2 SUB SWAP1 LOG3 POP POP JUMP JUMPDEST PUSH1 0x0 PUSH1 0x8 PUSH1 0x0 DUP4 PUSH20 0xFFFFFFFFFFFFFFFFFFFFFFFFFFFFFFFFFFFFFFFF AND PUSH20 0xFFFFFFFFFFFFFFFFFFFFFFFFFFFFFFFFFFFFFFFF AND DUP2 MSTORE PUSH1 0x20 ADD SWAP1 DUP2 MSTORE PUSH1 0x20 ADD PUSH1 0x0 KECCAK256 SLOAD SWAP1 POP SWAP2 SWAP1 POP JUMP JUMPDEST PUSH1 0x60 PUSH2 0x101E PUSH1 0x6 PUSH32 0x0 PUSH2 0x1591 SWAP1 SWAP2 SWAP1 PUSH4 0xFFFFFFFF AND JUMP JUMPDEST SWAP1 POP SWAP1 JUMP JUMPDEST PUSH1 0x60 PUSH2 0x1059 PUSH1 0x7 PUSH32 0x0 PUSH2 0x1591 SWAP1 SWAP2 SWAP1 PUSH4 0xFFFFFFFF AND JUMP JUMPDEST SWAP1 POP SWAP1 JUMP JUMPDEST PUSH1 0x0 PUSH1 0x8 PUSH1 0x0 DUP4 PUSH20 0xFFFFFFFFFFFFFFFFFFFFFFFFFFFFFFFFFFFFFFFF AND PUSH20 0xFFFFFFFFFFFFFFFFFFFFFFFFFFFFFFFFFFFFFFFF AND DUP2 MSTORE PUSH1 0x20 ADD SWAP1 DUP2 MSTORE PUSH1 0x20 ADD PUSH1 0x0 KECCAK256 PUSH1 0x0 DUP2 SLOAD DUP1 SWAP3 SWAP2 SWAP1 PUSH1 0x1 ADD SWAP2 SWAP1 POP SSTORE SWAP1 POP SWAP2 SWAP1 POP JUMP JUMPDEST PUSH1 0x0 PUSH2 0x10C8 PUSH2 0x10C2 PUSH2 0xD9B JUMP JUMPDEST DUP4 PUSH2 0x1641 JUMP JUMPDEST SWAP1 POP SWAP2 SWAP1 POP JUMP JUMPDEST PUSH1 0x0 DUP1 PUSH1 0x0 DUP1 PUSH2 0x10E1 DUP9 DUP9 DUP9 DUP9 PUSH2 0x1682 JUMP JUMPDEST SWAP3 POP SWAP3 POP SWAP3 POP PUSH2 0x10F1 DUP3 DUP3 PUSH2 0x1776 JUMP JUMPDEST DUP3 SWAP4 POP POP POP POP SWAP5 SWAP4 POP POP POP POP JUMP JUMPDEST PUSH1 0x0 PUSH20 0xFFFFFFFFFFFFFFFFFFFFFFFFFFFFFFFFFFFFFFFF AND DUP5 PUSH20 0xFFFFFFFFFFFFFFFFFFFFFFFFFFFFFFFFFFFFFFFF AND SUB PUSH2 0x1171 JUMPI PUSH1 0x0 PUSH1 0x40 MLOAD PUSH32 0xE602DF0500000000000000000000000000000000000000000000000000000000 DUP2 MSTORE PUSH1 0x4 ADD PUSH2 0x1168 SWAP2 SWAP1 PUSH2 0x201D JUMP JUMPDEST PUSH1 0x40 MLOAD DUP1 SWAP2 SUB SWAP1 REVERT JUMPDEST PUSH1 0x0 PUSH20 0xFFFFFFFFFFFFFFFFFFFFFFFFFFFFFFFFFFFFFFFF AND DUP4 PUSH20 0xFFFFFFFFFFFFFFFFFFFFFFFFFFFFFFFFFFFFFFFF AND SUB PUSH2 0x11E3 JUMPI PUSH1 0x0 PUSH1 0x40 MLOAD PUSH32 0x94280D6200000000000000000000000000000000000000000000000000000000 DUP2 MSTORE PUSH1 0x4 ADD PUSH2 0x11DA SWAP2 SWAP1 PUSH2 0x201D JUMP JUMPDEST PUSH1 0x40 MLOAD DUP1 SWAP2 SUB SWAP1 REVERT JUMPDEST DUP2 PUSH1 0x1 PUSH1 0x0 DUP7 PUSH20 0xFFFFFFFFFFFFFFFFFFFFFFFFFFFFFFFFFFFFFFFF AND PUSH20 0xFFFFFFFFFFFFFFFFFFFFFFFFFFFFFFFFFFFFFFFF AND DUP2 MSTORE PUSH1 0x20 ADD SWAP1 DUP2 MSTORE PUSH1 0x20 ADD PUSH1 0x0 KECCAK256 PUSH1 0x0 DUP6 PUSH20 0xFFFFFFFFFFFFFFFFFFFFFFFFFFFFFFFFFFFFFFFF AND PUSH20 0xFFFFFFFFFFFFFFFFFFFFFFFFFFFFFFFFFFFFFFFF AND DUP2 MSTORE PUSH1 0x20 ADD SWAP1 DUP2 MSTORE PUSH1 0x20 ADD PUSH1 0x0 KECCAK256 DUP2 SWAP1 SSTORE POP DUP1 ISZERO PUSH2 0x12D0 JUMPI DUP3 PUSH20 0xFFFFFFFFFFFFFFFFFFFFFFFFFFFFFFFFFFFFFFFF AND DUP5 PUSH20 0xFFFFFFFFFFFFFFFFFFFFFFFFFFFFFFFFFFFFFFFF AND PUSH32 0x8C5BE1E5EBEC7D5BD14F71427D1E84F3DD0314C0F7B2291E5B200AC8C7C3B925 DUP5 PUSH1 0x40 MLOAD PUSH2 0x12C7 SWAP2 SWAP1 PUSH2 0x1D8B JUMP JUMPDEST PUSH1 0x40 MLOAD DUP1 SWAP2 SUB SWAP1 LOG3 JUMPDEST POP POP POP POP JUMP JUMPDEST PUSH1 0x0 PUSH20 0xFFFFFFFFFFFFFFFFFFFFFFFFFFFFFFFFFFFFFFFF AND DUP4 PUSH20 0xFFFFFFFFFFFFFFFFFFFFFFFFFFFFFFFFFFFFFFFF AND SUB PUSH2 0x1328 JUMPI DUP1 PUSH1 0x2 PUSH1 0x0 DUP3 DUP3 SLOAD PUSH2 0x131C SWAP2 SWAP1 PUSH2 0x2473 JUMP JUMPDEST SWAP3 POP POP DUP2 SWAP1 SSTORE POP PUSH2 0x13FB JUMP JUMPDEST PUSH1 0x0 DUP1 PUSH1 0x0 DUP6 PUSH20 0xFFFFFFFFFFFFFFFFFFFFFFFFFFFFFFFFFFFFFFFF AND PUSH20 0xFFFFFFFFFFFFFFFFFFFFFFFFFFFFFFFFFFFFFFFF AND DUP2 MSTORE PUSH1 0x20 ADD SWAP1 DUP2 MSTORE PUSH1 0x20 ADD PUSH1 0x0 KECCAK256 SLOAD SWAP1 POP DUP2 DUP2 LT ISZERO PUSH2 0x13B4 JUMPI DUP4 DUP2 DUP4 PUSH1 0x40 MLOAD PUSH32 0xE450D38C00000000000000000000000000000000000000000000000000000000 DUP2 MSTORE PUSH1 0x4 ADD PUSH2 0x13AB SWAP4 SWAP3 SWAP2 SWAP1 PUSH2 0x240D JUMP JUMPDEST PUSH1 0x40 MLOAD DUP1 SWAP2 SUB SWAP1 REVERT JUMPDEST DUP2 DUP2 SUB PUSH1 0x0 DUP1 DUP7 PUSH20 0xFFFFFFFFFFFFFFFFFFFFFFFFFFFFFFFFFFFFFFFF AND PUSH20 0xFFFFFFFFFFFFFFFFFFFFFFFFFFFFFFFFFFFFFFFF AND DUP2 MSTORE PUSH1 0x20 ADD SWAP1 DUP2 MSTORE PUSH1 0x20 ADD PUSH1 0x0 KECCAK256 DUP2 SWAP1 SSTORE POP POP JUMPDEST PUSH1 0x0 PUSH20 0xFFFFFFFFFFFFFFFFFFFFFFFFFFFFFFFFFFFFFFFF AND DUP3 PUSH20 0xFFFFFFFFFFFFFFFFFFFFFFFFFFFFFFFFFFFFFFFF AND SUB PUSH2 0x1444 JUMPI DUP1 PUSH1 0x2 PUSH1 0x0 DUP3 DUP3 SLOAD SUB SWAP3 POP POP DUP2 SWAP1 SSTORE POP PUSH2 0x1491 JUMP JUMPDEST DUP1 PUSH1 0x0 DUP1 DUP5 PUSH20 0xFFFFFFFFFFFFFFFFFFFFFFFFFFFFFFFFFFFFFFFF AND PUSH20 0xFFFFFFFFFFFFFFFFFFFFFFFFFFFFFFFFFFFFFFFF AND DUP2 MSTORE PUSH1 0x20 ADD SWAP1 DUP2 MSTORE PUSH1 0x20 ADD PUSH1 0x0 KECCAK256 PUSH1 0x0 DUP3 DUP3 SLOAD ADD SWAP3 POP POP DUP2 SWAP1 SSTORE POP JUMPDEST DUP2 PUSH20 0xFFFFFFFFFFFFFFFFFFFFFFFFFFFFFFFFFFFFFFFF AND DUP4 PUSH20 0xFFFFFFFFFFFFFFFFFFFFFFFFFFFFFFFFFFFFFFFF AND PUSH32 0xDDF252AD1BE2C89B69C2B068FC378DAA952BA7F163C4A11628F55A4DF523B3EF DUP4 PUSH1 0x40 MLOAD PUSH2 0x14EE SWAP2 SWAP1 PUSH2 0x1D8B JUMP JUMPDEST PUSH1 0x40 MLOAD DUP1 SWAP2 SUB SWAP1 LOG3 POP POP POP JUMP JUMPDEST PUSH1 0x0 PUSH32 0x8B73C3C69BB8FE3D512ECC4CF759CC79239F7B179B0FFACAA9A75D522B39400F PUSH32 0x0 PUSH32 0x0 CHAINID ADDRESS PUSH1 0x40 MLOAD PUSH1 0x20 ADD PUSH2 0x1576 SWAP6 SWAP5 SWAP4 SWAP3 SWAP2 SWAP1 PUSH2 0x24A7 JUMP JUMPDEST PUSH1 0x40 MLOAD PUSH1 0x20 DUP2 DUP4 SUB SUB DUP2 MSTORE SWAP1 PUSH1 0x40 MSTORE DUP1 MLOAD SWAP1 PUSH1 0x20 ADD KECCAK256 SWAP1 POP SWAP1 JUMP JUMPDEST PUSH1 0x60 PUSH1 0xFF PUSH1 0x0 SHL DUP4 EQ PUSH2 0x15AE JUMPI PUSH2 0x15A7 DUP4 PUSH2 0x18DA JUMP JUMPDEST SWAP1 POP PUSH2 0x163B JUMP JUMPDEST DUP2 DUP1 SLOAD PUSH2 0x15BA SWAP1 PUSH2 0x2260 JUMP JUMPDEST DUP1 PUSH1 0x1F ADD PUSH1 0x20 DUP1 SWAP2 DIV MUL PUSH1 0x20 ADD PUSH1 0x40 MLOAD SWAP1 DUP2 ADD PUSH1 0x40 MSTORE DUP1 SWAP3 SWAP2 SWAP1 DUP2 DUP2 MSTORE PUSH1 0x20 ADD DUP3 DUP1 SLOAD PUSH2 0x15E6 SWAP1 PUSH2 0x2260 JUMP JUMPDEST DUP1 ISZERO PUSH2 0x1633 JUMPI DUP1 PUSH1 0x1F LT PUSH2 0x1608 JUMPI PUSH2 0x100 DUP1 DUP4 SLOAD DIV MUL DUP4 MSTORE SWAP2 PUSH1 0x20 ADD SWAP2 PUSH2 0x1633 JUMP JUMPDEST DUP3 ADD SWAP2 SWAP1 PUSH1 0x0 MSTORE PUSH1 0x20 PUSH1 0x0 KECCAK256 SWAP1 JUMPDEST DUP2 SLOAD DUP2 MSTORE SWAP1 PUSH1 0x1 ADD SWAP1 PUSH1 0x20 ADD DUP1 DUP4 GT PUSH2 0x1616 JUMPI DUP3 SWAP1 SUB PUSH1 0x1F AND DUP3 ADD SWAP2 JUMPDEST POP POP POP POP POP SWAP1 POP JUMPDEST SWAP3 SWAP2 POP POP JUMP JUMPDEST PUSH1 0x0 PUSH1 0x40 MLOAD PUSH32 0x1901000000000000000000000000000000000000000000000000000000000000 DUP2 MSTORE DUP4 PUSH1 0x2 DUP3 ADD MSTORE DUP3 PUSH1 0x22 DUP3 ADD MSTORE PUSH1 0x42 DUP2 KECCAK256 SWAP2 POP POP SWAP3 SWAP2 POP POP JUMP JUMPDEST PUSH1 0x0 DUP1 PUSH1 0x0 PUSH32 0x7FFFFFFFFFFFFFFFFFFFFFFFFFFFFFFF5D576E7357A4501DDFE92F46681B20A0 DUP5 PUSH1 0x0 SHR GT ISZERO PUSH2 0x16C2 JUMPI PUSH1 0x0 PUSH1 0x3 DUP6 SWAP3 POP SWAP3 POP SWAP3 POP PUSH2 0x176C JUMP JUMPDEST PUSH1 0x0 PUSH1 0x1 DUP9 DUP9 DUP9 DUP9 PUSH1 0x40 MLOAD PUSH1 0x0 DUP2 MSTORE PUSH1 0x20 ADD PUSH1 0x40 MSTORE PUSH1 0x40 MLOAD PUSH2 0x16E7 SWAP5 SWAP4 SWAP3 SWAP2 SWAP1 PUSH2 0x24FA JUMP JUMPDEST PUSH1 0x20 PUSH1 0x40 MLOAD PUSH1 0x20 DUP2 SUB SWAP1 DUP1 DUP5 SUB SWAP1 DUP6 GAS STATICCALL ISZERO DUP1 ISZERO PUSH2 0x1709 JUMPI RETURNDATASIZE PUSH1 0x0 DUP1 RETURNDATACOPY RETURNDATASIZE PUSH1 0x0 REVERT JUMPDEST POP POP POP PUSH1 0x20 PUSH1 0x40 MLOAD SUB MLOAD SWAP1 POP PUSH1 0x0 PUSH20 0xFFFFFFFFFFFFFFFFFFFFFFFFFFFFFFFFFFFFFFFF AND DUP2 PUSH20 0xFFFFFFFFFFFFFFFFFFFFFFFFFFFFFFFFFFFFFFFF AND SUB PUSH2 0x175D JUMPI PUSH1 0x0 PUSH1 0x1 PUSH1 0x0 DUP1 SHL SWAP4 POP SWAP4 POP SWAP4 POP POP PUSH2 0x176C JUMP JUMPDEST DUP1 PUSH1 0x0 DUP1 PUSH1 0x0 SHL SWAP4 POP SWAP4 POP SWAP4 POP POP JUMPDEST SWAP5 POP SWAP5 POP SWAP5 SWAP2 POP POP JUMP JUMPDEST PUSH1 0x0 PUSH1 0x3 DUP2 GT ISZERO PUSH2 0x178A JUMPI PUSH2 0x1789 PUSH2 0x253F JUMP JUMPDEST JUMPDEST DUP3 PUSH1 0x3 DUP2 GT ISZERO PUSH2 0x179D JUMPI PUSH2 0x179C PUSH2 0x253F JUMP JUMPDEST JUMPDEST SUB ISZERO PUSH2 0x18D6 JUMPI PUSH1 0x1 PUSH1 0x3 DUP2 GT ISZERO PUSH2 0x17B7 JUMPI PUSH2 0x17B6 PUSH2 0x253F JUMP JUMPDEST JUMPDEST DUP3 PUSH1 0x3 DUP2 GT ISZERO PUSH2 0x17CA JUMPI PUSH2 0x17C9 PUSH2 0x253F JUMP JUMPDEST JUMPDEST SUB PUSH2 0x1801 JUMPI PUSH1 0x40 MLOAD PUSH32 0xF645EEDF00000000000000000000000000000000000000000000000000000000 DUP2 MSTORE PUSH1 0x4 ADD PUSH1 0x40 MLOAD DUP1 SWAP2 SUB SWAP1 REVERT JUMPDEST PUSH1 0x2 PUSH1 0x3 DUP2 GT ISZERO PUSH2 0x1815 JUMPI PUSH2 0x1814 PUSH2 0x253F JUMP JUMPDEST JUMPDEST DUP3 PUSH1 0x3 DUP2 GT ISZERO PUSH2 0x1828 JUMPI PUSH2 0x1827 PUSH2 0x253F JUMP JUMPDEST JUMPDEST SUB PUSH2 0x186D JUMPI DUP1 PUSH1 0x0 SHR PUSH1 0x40 MLOAD PUSH32 0xFCE698F700000000000000000000000000000000000000000000000000000000 DUP2 MSTORE PUSH1 0x4 ADD PUSH2 0x1864 SWAP2 SWAP1 PUSH2 0x1D8B JUMP JUMPDEST PUSH1 0x40 MLOAD DUP1 SWAP2 SUB SWAP1 REVERT JUMPDEST PUSH1 0x3 DUP1 DUP2 GT ISZERO PUSH2 0x1880 JUMPI PUSH2 0x187F PUSH2 0x253F JUMP JUMPDEST JUMPDEST DUP3 PUSH1 0x3 DUP2 GT ISZERO PUSH2 0x1893 JUMPI PUSH2 0x1892 PUSH2 0x253F JUMP JUMPDEST JUMPDEST SUB PUSH2 0x18D5 JUMPI DUP1 PUSH1 0x40 MLOAD PUSH32 0xD78BCE0C00000000000000000000000000000000000000000000000000000000 DUP2 MSTORE PUSH1 0x4 ADD PUSH2 0x18CC SWAP2 SWAP1 PUSH2 0x1E49 JUMP JUMPDEST PUSH1 0x40 MLOAD DUP1 SWAP2 SUB SWAP1 REVERT JUMPDEST JUMPDEST POP POP JUMP JUMPDEST PUSH1 0x60 PUSH1 0x0 PUSH2 0x18E7 DUP4 PUSH2 0x194E JUMP JUMPDEST SWAP1 POP PUSH1 0x0 PUSH1 0x20 PUSH8 0xFFFFFFFFFFFFFFFF DUP2 GT ISZERO PUSH2 0x1906 JUMPI PUSH2 0x1905 PUSH2 0x1B78 JUMP JUMPDEST JUMPDEST PUSH1 0x40 MLOAD SWAP1 DUP1 DUP3 MSTORE DUP1 PUSH1 0x1F ADD PUSH1 0x1F NOT AND PUSH1 0x20 ADD DUP3 ADD PUSH1 0x40 MSTORE DUP1 ISZERO PUSH2 0x1938 JUMPI DUP2 PUSH1 0x20 ADD PUSH1 0x1 DUP3 MUL DUP1 CALLDATASIZE DUP4 CALLDATACOPY DUP1 DUP3 ADD SWAP2 POP POP SWAP1 POP JUMPDEST POP SWAP1 POP DUP2 DUP2 MSTORE DUP4 PUSH1 0x20 DUP3 ADD MSTORE DUP1 SWAP3 POP POP POP SWAP2 SWAP1 POP JUMP JUMPDEST PUSH1 0x0 DUP1 PUSH1 0xFF DUP4 PUSH1 0x0 SHR AND SWAP1 POP PUSH1 0x1F DUP2 GT ISZERO PUSH2 0x1995 JUMPI PUSH1 0x40 MLOAD PUSH32 0xB3512B0C00000000000000000000000000000000000000000000000000000000 DUP2 MSTORE PUSH1 0x4 ADD PUSH1 0x40 MLOAD DUP1 SWAP2 SUB SWAP1 REVERT JUMPDEST DUP1 SWAP2 POP POP SWAP2 SWAP1 POP JUMP JUMPDEST PUSH1 0x0 DUP2 MLOAD SWAP1 POP SWAP2 SWAP1 POP JUMP JUMPDEST PUSH1 0x0 DUP3 DUP3 MSTORE PUSH1 0x20 DUP3 ADD SWAP1 POP SWAP3 SWAP2 POP POP JUMP JUMPDEST PUSH1 0x0 JUMPDEST DUP4 DUP2 LT ISZERO PUSH2 0x19D8 JUMPI DUP1 DUP3 ADD MLOAD DUP2 DUP5 ADD MSTORE PUSH1 0x20 DUP2 ADD SWAP1 POP PUSH2 0x19BD JUMP JUMPDEST PUSH1 0x0 DUP5 DUP5 ADD MSTORE POP POP POP POP JUMP JUMPDEST PUSH1 0x0 PUSH1 0x1F NOT PUSH1 0x1F DUP4 ADD AND SWAP1 POP SWAP2 SWAP1 POP JUMP JUMPDEST PUSH1 0x0 PUSH2 0x1A00 DUP3 PUSH2 0x199E JUMP JUMPDEST PUSH2 0x1A0A DUP2 DUP6 PUSH2 0x19A9 JUMP JUMPDEST SWAP4 POP PUSH2 0x1A1A DUP2 DUP6 PUSH1 0x20 DUP7 ADD PUSH2 0x19BA JUMP JUMPDEST PUSH2 0x1A23 DUP2 PUSH2 0x19E4 JUMP JUMPDEST DUP5 ADD SWAP2 POP POP SWAP3 SWAP2 POP POP JUMP JUMPDEST PUSH1 0x0 PUSH1 0x20 DUP3 ADD SWAP1 POP DUP2 DUP2 SUB PUSH1 0x0 DUP4 ADD MSTORE PUSH2 0x1A48 DUP2 DUP5 PUSH2 0x19F5 JUMP JUMPDEST SWAP1 POP SWAP3 SWAP2 POP POP JUMP JUMPDEST PUSH1 0x0 PUSH1 0x40 MLOAD SWAP1 POP SWAP1 JUMP JUMPDEST PUSH1 0x0 DUP1 REVERT JUMPDEST PUSH1 0x0 DUP1 REVERT JUMPDEST PUSH1 0x0 PUSH20 0xFFFFFFFFFFFFFFFFFFFFFFFFFFFFFFFFFFFFFFFF DUP3 AND SWAP1 POP SWAP2 SWAP1 POP JUMP JUMPDEST PUSH1 0x0 PUSH2 0x1A8F DUP3 PUSH2 0x1A64 JUMP JUMPDEST SWAP1 POP SWAP2 SWAP1 POP JUMP JUMPDEST PUSH2 0x1A9F DUP2 PUSH2 0x1A84 JUMP JUMPDEST DUP2 EQ PUSH2 0x1AAA JUMPI PUSH1 0x0 DUP1 REVERT JUMPDEST POP JUMP JUMPDEST PUSH1 0x0 DUP2 CALLDATALOAD SWAP1 POP PUSH2 0x1ABC DUP2 PUSH2 0x1A96 JUMP JUMPDEST SWAP3 SWAP2 POP POP JUMP JUMPDEST PUSH1 0x0 DUP2 SWAP1 POP SWAP2 SWAP1 POP JUMP JUMPDEST PUSH2 0x1AD5 DUP2 PUSH2 0x1AC2 JUMP JUMPDEST DUP2 EQ PUSH2 0x1AE0 JUMPI PUSH1 0x0 DUP1 REVERT JUMPDEST POP JUMP JUMPDEST PUSH1 0x0 DUP2 CALLDATALOAD SWAP1 POP PUSH2 0x1AF2 DUP2 PUSH2 0x1ACC JUMP JUMPDEST SWAP3 SWAP2 POP POP JUMP JUMPDEST PUSH1 0x0 DUP1 PUSH1 0x40 DUP4 DUP6 SUB SLT ISZERO PUSH2 0x1B0F JUMPI PUSH2 0x1B0E PUSH2 0x1A5A JUMP JUMPDEST JUMPDEST PUSH1 0x0 PUSH2 0x1B1D DUP6 DUP3 DUP7 ADD PUSH2 0x1AAD JUMP JUMPDEST SWAP3 POP POP PUSH1 0x20 PUSH2 0x1B2E DUP6 DUP3 DUP7 ADD PUSH2 0x1AE3 JUMP JUMPDEST SWAP2 POP POP SWAP3 POP SWAP3 SWAP1 POP JUMP JUMPDEST PUSH1 0x0 DUP2 ISZERO ISZERO SWAP1 POP SWAP2 SWAP1 POP JUMP JUMPDEST PUSH2 0x1B4D DUP2 PUSH2 0x1B38 JUMP JUMPDEST DUP3 MSTORE POP POP JUMP JUMPDEST PUSH1 0x0 PUSH1 0x20 DUP3 ADD SWAP1 POP PUSH2 0x1B68 PUSH1 0x0 DUP4 ADD DUP5 PUSH2 0x1B44 JUMP JUMPDEST SWAP3 SWAP2 POP POP JUMP JUMPDEST PUSH1 0x0 DUP1 REVERT JUMPDEST PUSH1 0x0 DUP1 REVERT JUMPDEST PUSH32 0x4E487B7100000000000000000000000000000000000000000000000000000000 PUSH1 0x0 MSTORE PUSH1 0x41 PUSH1 0x4 MSTORE PUSH1 0x24 PUSH1 0x0 REVERT JUMPDEST PUSH2 0x1BB0 DUP3 PUSH2 0x19E4 JUMP JUMPDEST DUP2 ADD DUP2 DUP2 LT PUSH8 0xFFFFFFFFFFFFFFFF DUP3 GT OR ISZERO PUSH2 0x1BCF JUMPI PUSH2 0x1BCE PUSH2 0x1B78 JUMP JUMPDEST JUMPDEST DUP1 PUSH1 0x40 MSTORE POP POP POP JUMP JUMPDEST PUSH1 0x0 PUSH2 0x1BE2 PUSH2 0x1A50 JUMP JUMPDEST SWAP1 POP PUSH2 0x1BEE DUP3 DUP3 PUSH2 0x1BA7 JUMP JUMPDEST SWAP2 SWAP1 POP JUMP JUMPDEST PUSH1 0x0 PUSH8 0xFFFFFFFFFFFFFFFF DUP3 GT ISZERO PUSH2 0x1C0E JUMPI PUSH2 0x1C0D PUSH2 0x1B78 JUMP JUMPDEST JUMPDEST PUSH2 0x1C17 DUP3 PUSH2 0x19E4 JUMP JUMPDEST SWAP1 POP PUSH1 0x20 DUP2 ADD SWAP1 POP SWAP2 SWAP1 POP JUMP JUMPDEST DUP3 DUP2 DUP4 CALLDATACOPY PUSH1 0x0 DUP4 DUP4 ADD MSTORE POP POP POP JUMP JUMPDEST PUSH1 0x0 PUSH2 0x1C46 PUSH2 0x1C41 DUP5 PUSH2 0x1BF3 JUMP JUMPDEST PUSH2 0x1BD8 JUMP JUMPDEST SWAP1 POP DUP3 DUP2 MSTORE PUSH1 0x20 DUP2 ADD DUP5 DUP5 DUP5 ADD GT ISZERO PUSH2 0x1C62 JUMPI PUSH2 0x1C61 PUSH2 0x1B73 JUMP JUMPDEST JUMPDEST PUSH2 0x1C6D DUP5 DUP3 DUP6 PUSH2 0x1C24 JUMP JUMPDEST POP SWAP4 SWAP3 POP POP POP JUMP JUMPDEST PUSH1 0x0 DUP3 PUSH1 0x1F DUP4 ADD SLT PUSH2 0x1C8A JUMPI PUSH2 0x1C89 PUSH2 0x1B6E JUMP JUMPDEST JUMPDEST DUP2 CALLDATALOAD PUSH2 0x1C9A DUP5 DUP3 PUSH1 0x20 DUP7 ADD PUSH2 0x1C33 JUMP JUMPDEST SWAP2 POP POP SWAP3 SWAP2 POP POP JUMP JUMPDEST PUSH1 0x0 DUP1 PUSH1 0x0 DUP1 PUSH1 0x80 DUP6 DUP8 SUB SLT ISZERO PUSH2 0x1CBD JUMPI PUSH2 0x1CBC PUSH2 0x1A5A JUMP JUMPDEST JUMPDEST PUSH1 0x0 PUSH2 0x1CCB DUP8 DUP3 DUP9 ADD PUSH2 0x1AAD JUMP JUMPDEST SWAP5 POP POP PUSH1 0x20 PUSH2 0x1CDC DUP8 DUP3 DUP9 ADD PUSH2 0x1AAD JUMP JUMPDEST SWAP4 POP POP PUSH1 0x40 PUSH2 0x1CED DUP8 DUP3 DUP9 ADD PUSH2 0x1AE3 JUMP JUMPDEST SWAP3 POP POP PUSH1 0x60 DUP6 ADD CALLDATALOAD PUSH8 0xFFFFFFFFFFFFFFFF DUP2 GT ISZERO PUSH2 0x1D0E JUMPI PUSH2 0x1D0D PUSH2 0x1A5F JUMP JUMPDEST JUMPDEST PUSH2 0x1D1A DUP8 DUP3 DUP9 ADD PUSH2 0x1C75 JUMP JUMPDEST SWAP2 POP POP SWAP3 SWAP6 SWAP2 SWAP5 POP SWAP3 POP JUMP JUMPDEST PUSH1 0x0 PUSH32 0xFFFFFFFF00000000000000000000000000000000000000000000000000000000 DUP3 AND SWAP1 POP SWAP2 SWAP1 POP JUMP JUMPDEST PUSH2 0x1D5B DUP2 PUSH2 0x1D26 JUMP JUMPDEST DUP3 MSTORE POP POP JUMP JUMPDEST PUSH1 0x0 PUSH1 0x20 DUP3 ADD SWAP1 POP PUSH2 0x1D76 PUSH1 0x0 DUP4 ADD DUP5 PUSH2 0x1D52 JUMP JUMPDEST SWAP3 SWAP2 POP POP JUMP JUMPDEST PUSH2 0x1D85 DUP2 PUSH2 0x1AC2 JUMP JUMPDEST DUP3 MSTORE POP POP JUMP JUMPDEST PUSH1 0x0 PUSH1 0x20 DUP3 ADD SWAP1 POP PUSH2 0x1DA0 PUSH1 0x0 DUP4 ADD DUP5 PUSH2 0x1D7C JUMP JUMPDEST SWAP3 SWAP2 POP POP JUMP JUMPDEST PUSH1 0x0 DUP1 PUSH1 0x0 PUSH1 0x60 DUP5 DUP7 SUB SLT ISZERO PUSH2 0x1DBF JUMPI PUSH2 0x1DBE PUSH2 0x1A5A JUMP JUMPDEST JUMPDEST PUSH1 0x0 PUSH2 0x1DCD DUP7 DUP3 DUP8 ADD PUSH2 0x1AAD JUMP JUMPDEST SWAP4 POP POP PUSH1 0x20 PUSH2 0x1DDE DUP7 DUP3 DUP8 ADD PUSH2 0x1AAD JUMP JUMPDEST SWAP3 POP POP PUSH1 0x40 PUSH2 0x1DEF DUP7 DUP3 DUP8 ADD PUSH2 0x1AE3 JUMP JUMPDEST SWAP2 POP POP SWAP3 POP SWAP3 POP SWAP3 JUMP JUMPDEST PUSH1 0x0 PUSH1 0xFF DUP3 AND SWAP1 POP SWAP2 SWAP1 POP JUMP JUMPDEST PUSH2 0x1E0F DUP2 PUSH2 0x1DF9 JUMP JUMPDEST DUP3 MSTORE POP POP JUMP JUMPDEST PUSH1 0x0 PUSH1 0x20 DUP3 ADD SWAP1 POP PUSH2 0x1E2A PUSH1 0x0 DUP4 ADD DUP5 PUSH2 0x1E06 JUMP JUMPDEST SWAP3 SWAP2 POP POP JUMP JUMPDEST PUSH1 0x0 DUP2 SWAP1 POP SWAP2 SWAP1 POP JUMP JUMPDEST PUSH2 0x1E43 DUP2 PUSH2 0x1E30 JUMP JUMPDEST DUP3 MSTORE POP POP JUMP JUMPDEST PUSH1 0x0 PUSH1 0x20 DUP3 ADD SWAP1 POP PUSH2 0x1E5E PUSH1 0x0 DUP4 ADD DUP5 PUSH2 0x1E3A JUMP JUMPDEST SWAP3 SWAP2 POP POP JUMP JUMPDEST PUSH1 0x0 PUSH1 0x20 DUP3 DUP5 SUB SLT ISZERO PUSH2 0x1E7A JUMPI PUSH2 0x1E79 PUSH2 0x1A5A JUMP JUMPDEST JUMPDEST PUSH1 0x0 PUSH2 0x1E88 DUP5 DUP3 DUP6 ADD PUSH2 0x1AAD JUMP JUMPDEST SWAP2 POP POP SWAP3 SWAP2 POP POP JUMP JUMPDEST PUSH1 0x0 PUSH32 0xFF00000000000000000000000000000000000000000000000000000000000000 DUP3 AND SWAP1 POP SWAP2 SWAP1 POP JUMP JUMPDEST PUSH2 0x1EC6 DUP2 PUSH2 0x1E91 JUMP JUMPDEST DUP3 MSTORE POP POP JUMP JUMPDEST PUSH2 0x1ED5 DUP2 PUSH2 0x1A84 JUMP JUMPDEST DUP3 MSTORE POP POP JUMP JUMPDEST PUSH1 0x0 DUP2 MLOAD SWAP1 POP SWAP2 SWAP1 POP JUMP JUMPDEST PUSH1 0x0 DUP3 DUP3 MSTORE PUSH1 0x20 DUP3 ADD SWAP1 POP SWAP3 SWAP2 POP POP JUMP JUMPDEST PUSH1 0x0 DUP2 SWAP1 POP PUSH1 0x20 DUP3 ADD SWAP1 POP SWAP2 SWAP1 POP JUMP JUMPDEST PUSH2 0x1F10 DUP2 PUSH2 0x1AC2 JUMP JUMPDEST DUP3 MSTORE POP POP JUMP JUMPDEST PUSH1 0x0 PUSH2 0x1F22 DUP4 DUP4 PUSH2 0x1F07 JUMP JUMPDEST PUSH1 0x20 DUP4 ADD SWAP1 POP SWAP3 SWAP2 POP POP JUMP JUMPDEST PUSH1 0x0 PUSH1 0x20 DUP3 ADD SWAP1 POP SWAP2 SWAP1 POP JUMP JUMPDEST PUSH1 0x0 PUSH2 0x1F46 DUP3 PUSH2 0x1EDB JUMP JUMPDEST PUSH2 0x1F50 DUP2 DUP6 PUSH2 0x1EE6 JUMP JUMPDEST SWAP4 POP PUSH2 0x1F5B DUP4 PUSH2 0x1EF7 JUMP JUMPDEST DUP1 PUSH1 0x0 JUMPDEST DUP4 DUP2 LT ISZERO PUSH2 0x1F8C JUMPI DUP2 MLOAD PUSH2 0x1F73 DUP9 DUP3 PUSH2 0x1F16 JUMP JUMPDEST SWAP8 POP PUSH2 0x1F7E DUP4 PUSH2 0x1F2E JUMP JUMPDEST SWAP3 POP POP PUSH1 0x1 DUP2 ADD SWAP1 POP PUSH2 0x1F5F JUMP JUMPDEST POP DUP6 SWAP4 POP POP POP POP SWAP3 SWAP2 POP POP JUMP JUMPDEST PUSH1 0x0 PUSH1 0xE0 DUP3 ADD SWAP1 POP PUSH2 0x1FAE PUSH1 0x0 DUP4 ADD DUP11 PUSH2 0x1EBD JUMP JUMPDEST DUP2 DUP2 SUB PUSH1 0x20 DUP4 ADD MSTORE PUSH2 0x1FC0 DUP2 DUP10 PUSH2 0x19F5 JUMP JUMPDEST SWAP1 POP DUP2 DUP2 SUB PUSH1 0x40 DUP4 ADD MSTORE PUSH2 0x1FD4 DUP2 DUP9 PUSH2 0x19F5 JUMP JUMPDEST SWAP1 POP PUSH2 0x1FE3 PUSH1 0x60 DUP4 ADD DUP8 PUSH2 0x1D7C JUMP JUMPDEST PUSH2 0x1FF0 PUSH1 0x80 DUP4 ADD DUP7 PUSH2 0x1ECC JUMP JUMPDEST PUSH2 0x1FFD PUSH1 0xA0 DUP4 ADD DUP6 PUSH2 0x1E3A JUMP JUMPDEST DUP2 DUP2 SUB PUSH1 0xC0 DUP4 ADD MSTORE PUSH2 0x200F DUP2 DUP5 PUSH2 0x1F3B JUMP JUMPDEST SWAP1 POP SWAP9 SWAP8 POP POP POP POP POP POP POP POP JUMP JUMPDEST PUSH1 0x0 PUSH1 0x20 DUP3 ADD SWAP1 POP PUSH2 0x2032 PUSH1 0x0 DUP4 ADD DUP5 PUSH2 0x1ECC JUMP JUMPDEST SWAP3 SWAP2 POP POP JUMP JUMPDEST PUSH1 0x0 DUP2 SWAP1 POP SWAP2 SWAP1 POP JUMP JUMPDEST PUSH1 0x0 PUSH2 0x205D PUSH2 0x2058 PUSH2 0x2053 DUP5 PUSH2 0x1A64 JUMP JUMPDEST PUSH2 0x2038 JUMP JUMPDEST PUSH2 0x1A64 JUMP JUMPDEST SWAP1 POP SWAP2 SWAP1 POP JUMP JUMPDEST PUSH1 0x0 PUSH2 0x206F DUP3 PUSH2 0x2042 JUMP JUMPDEST SWAP1 POP SWAP2 SWAP1 POP JUMP JUMPDEST PUSH1 0x0 PUSH2 0x2081 DUP3 PUSH2 0x2064 JUMP JUMPDEST SWAP1 POP SWAP2 SWAP1 POP JUMP JUMPDEST PUSH2 0x2091 DUP2 PUSH2 0x2076 JUMP JUMPDEST DUP3 MSTORE POP POP JUMP JUMPDEST PUSH1 0x0 PUSH1 0x20 DUP3 ADD SWAP1 POP PUSH2 0x20AC PUSH1 0x0 DUP4 ADD DUP5 PUSH2 0x2088 JUMP JUMPDEST SWAP3 SWAP2 POP POP JUMP JUMPDEST PUSH2 0x20BB DUP2 PUSH2 0x1DF9 JUMP JUMPDEST DUP2 EQ PUSH2 0x20C6 JUMPI PUSH1 0x0 DUP1 REVERT JUMPDEST POP JUMP JUMPDEST PUSH1 0x0 DUP2 CALLDATALOAD SWAP1 POP PUSH2 0x20D8 DUP2 PUSH2 0x20B2 JUMP JUMPDEST SWAP3 SWAP2 POP POP JUMP JUMPDEST PUSH2 0x20E7 DUP2 PUSH2 0x1E30 JUMP JUMPDEST DUP2 EQ PUSH2 0x20F2 JUMPI PUSH1 0x0 DUP1 REVERT JUMPDEST POP JUMP JUMPDEST PUSH1 0x0 DUP2 CALLDATALOAD SWAP1 POP PUSH2 0x2104 DUP2 PUSH2 0x20DE JUMP JUMPDEST SWAP3 SWAP2 POP POP JUMP JUMPDEST PUSH1 0x0 DUP1 PUSH1 0x0 DUP1 PUSH1 0x0 DUP1 PUSH1 0x0 PUSH1 0xE0 DUP9 DUP11 SUB SLT ISZERO PUSH2 0x2129 JUMPI PUSH2 0x2128 PUSH2 0x1A5A JUMP JUMPDEST JUMPDEST PUSH1 0x0 PUSH2 0x2137 DUP11 DUP3 DUP12 ADD PUSH2 0x1AAD JUMP JUMPDEST SWAP8 POP POP PUSH1 0x20 PUSH2 0x2148 DUP11 DUP3 DUP12 ADD PUSH2 0x1AAD JUMP JUMPDEST SWAP7 POP POP PUSH1 0x40 PUSH2 0x2159 DUP11 DUP3 DUP12 ADD PUSH2 0x1AE3 JUMP JUMPDEST SWAP6 POP POP PUSH1 0x60 PUSH2 0x216A DUP11 DUP3 DUP12 ADD PUSH2 0x1AE3 JUMP JUMPDEST SWAP5 POP POP PUSH1 0x80 PUSH2 0x217B DUP11 DUP3 DUP12 ADD PUSH2 0x20C9 JUMP JUMPDEST SWAP4 POP POP PUSH1 0xA0 PUSH2 0x218C DUP11 DUP3 DUP12 ADD PUSH2 0x20F5 JUMP JUMPDEST SWAP3 POP POP PUSH1 0xC0 PUSH2 0x219D DUP11 DUP3 DUP12 ADD PUSH2 0x20F5 JUMP JUMPDEST SWAP2 POP POP SWAP3 SWAP6 SWAP9 SWAP2 SWAP5 SWAP8 POP SWAP3 SWAP6 POP JUMP JUMPDEST PUSH1 0x0 DUP1 PUSH1 0x40 DUP4 DUP6 SUB SLT ISZERO PUSH2 0x21C3 JUMPI PUSH2 0x21C2 PUSH2 0x1A5A JUMP JUMPDEST JUMPDEST PUSH1 0x0 PUSH2 0x21D1 DUP6 DUP3 DUP7 ADD PUSH2 0x1AAD JUMP JUMPDEST SWAP3 POP POP PUSH1 0x20 PUSH2 0x21E2 DUP6 DUP3 DUP7 ADD PUSH2 0x1AAD JUMP JUMPDEST SWAP2 POP POP SWAP3 POP SWAP3 SWAP1 POP JUMP JUMPDEST PUSH1 0x0 PUSH1 0x80 DUP3 ADD SWAP1 POP PUSH2 0x2201 PUSH1 0x0 DUP4 ADD DUP8 PUSH2 0x1ECC JUMP JUMPDEST PUSH2 0x220E PUSH1 0x20 DUP4 ADD DUP7 PUSH2 0x1D7C JUMP JUMPDEST PUSH2 0x221B PUSH1 0x40 DUP4 ADD DUP6 PUSH2 0x1D7C JUMP JUMPDEST PUSH2 0x2228 PUSH1 0x60 DUP4 ADD DUP5 PUSH2 0x1ECC JUMP JUMPDEST SWAP6 SWAP5 POP POP POP POP POP JUMP JUMPDEST PUSH32 0x4E487B7100000000000000000000000000000000000000000000000000000000 PUSH1 0x0 MSTORE PUSH1 0x22 PUSH1 0x4 MSTORE PUSH1 0x24 PUSH1 0x0 REVERT JUMPDEST PUSH1 0x0 PUSH1 0x2 DUP3 DIV SWAP1 POP PUSH1 0x1 DUP3 AND DUP1 PUSH2 0x2278 JUMPI PUSH1 0x7F DUP3 AND SWAP2 POP JUMPDEST PUSH1 0x20 DUP3 LT DUP2 SUB PUSH2 0x228B JUMPI PUSH2 0x228A PUSH2 0x2231 JUMP JUMPDEST JUMPDEST POP SWAP2 SWAP1 POP JUMP JUMPDEST PUSH32 0x436572746966696361746520616C7265616479206672616374696F6E616C697A PUSH1 0x0 DUP3 ADD MSTORE PUSH32 0x6564000000000000000000000000000000000000000000000000000000000000 PUSH1 0x20 DUP3 ADD MSTORE POP JUMP JUMPDEST PUSH1 0x0 PUSH2 0x22ED PUSH1 0x22 DUP4 PUSH2 0x19A9 JUMP JUMPDEST SWAP2 POP PUSH2 0x22F8 DUP3 PUSH2 0x2291 JUMP JUMPDEST PUSH1 0x40 DUP3 ADD SWAP1 POP SWAP2 SWAP1 POP JUMP JUMPDEST PUSH1 0x0 PUSH1 0x20 DUP3 ADD SWAP1 POP DUP2 DUP2 SUB PUSH1 0x0 DUP4 ADD MSTORE PUSH2 0x231C DUP2 PUSH2 0x22E0 JUMP JUMPDEST SWAP1 POP SWAP2 SWAP1 POP JUMP JUMPDEST PUSH1 0x0 PUSH1 0x60 DUP3 ADD SWAP1 POP PUSH2 0x2338 PUSH1 0x0 DUP4 ADD DUP7 PUSH2 0x1ECC JUMP JUMPDEST PUSH2 0x2345 PUSH1 0x20 DUP4 ADD DUP6 PUSH2 0x1ECC JUMP JUMPDEST PUSH2 0x2352 PUSH1 0x40 DUP4 ADD DUP5 PUSH2 0x1D7C JUMP JUMPDEST SWAP5 SWAP4 POP POP POP POP JUMP JUMPDEST PUSH1 0x0 PUSH1 0x40 DUP3 ADD SWAP1 POP PUSH2 0x236F PUSH1 0x0 DUP4 ADD DUP6 PUSH2 0x1D7C JUMP JUMPDEST PUSH2 0x237C PUSH1 0x20 DUP4 ADD DUP5 PUSH2 0x1D7C JUMP JUMPDEST SWAP4 SWAP3 POP POP POP JUMP JUMPDEST PUSH1 0x0 PUSH1 0xC0 DUP3 ADD SWAP1 POP PUSH2 0x2398 PUSH1 0x0 DUP4 ADD DUP10 PUSH2 0x1E3A JUMP JUMPDEST PUSH2 0x23A5 PUSH1 0x20 DUP4 ADD DUP9 PUSH2 0x1ECC JUMP JUMPDEST PUSH2 0x23B2 PUSH1 0x40 DUP4 ADD DUP8 PUSH2 0x1ECC JUMP JUMPDEST PUSH2 0x23BF PUSH1 0x60 DUP4 ADD DUP7 PUSH2 0x1D7C JUMP JUMPDEST PUSH2 0x23CC PUSH1 0x80 DUP4 ADD DUP6 PUSH2 0x1D7C JUMP JUMPDEST PUSH2 0x23D9 PUSH1 0xA0 DUP4 ADD DUP5 PUSH2 0x1D7C JUMP JUMPDEST SWAP8 SWAP7 POP POP POP POP POP POP POP JUMP JUMPDEST PUSH1 0x0 PUSH1 0x40 DUP3 ADD SWAP1 POP PUSH2 0x23F9 PUSH1 0x0 DUP4 ADD DUP6 PUSH2 0x1ECC JUMP JUMPDEST PUSH2 0x2406 PUSH1 0x20 DUP4 ADD DUP5 PUSH2 0x1ECC JUMP JUMPDEST SWAP4 SWAP3 POP POP POP JUMP JUMPDEST PUSH1 0x0 PUSH1 0x60 DUP3 ADD SWAP1 POP PUSH2 0x2422 PUSH1 0x0 DUP4 ADD DUP7 PUSH2 0x1ECC JUMP JUMPDEST PUSH2 0x242F PUSH1 0x20 DUP4 ADD DUP6 PUSH2 0x1D7C JUMP JUMPDEST PUSH2 0x243C PUSH1 0x40 DUP4 ADD DUP5 PUSH2 0x1D7C JUMP JUMPDEST SWAP5 SWAP4 POP POP POP POP JUMP JUMPDEST PUSH32 0x4E487B7100000000000000000000000000000000000000000000000000000000 PUSH1 0x0 MSTORE PUSH1 0x11 PUSH1 0x4 MSTORE PUSH1 0x24 PUSH1 0x0 REVERT JUMPDEST PUSH1 0x0 PUSH2 0x247E DUP3 PUSH2 0x1AC2 JUMP JUMPDEST SWAP2 POP PUSH2 0x2489 DUP4 PUSH2 0x1AC2 JUMP JUMPDEST SWAP3 POP DUP3 DUP3 ADD SWAP1 POP DUP1 DUP3 GT ISZERO PUSH2 0x24A1 JUMPI PUSH2 0x24A0 PUSH2 0x2444 JUMP JUMPDEST JUMPDEST SWAP3 SWAP2 POP POP JUMP JUMPDEST PUSH1 0x0 PUSH1 0xA0 DUP3 ADD SWAP1 POP PUSH2 0x24BC PUSH1 0x0 DUP4 ADD DUP9 PUSH2 0x1E3A JUMP JUMPDEST PUSH2 0x24C9 PUSH1 0x20 DUP4 ADD DUP8 PUSH2 0x1E3A JUMP JUMPDEST PUSH2 0x24D6 PUSH1 0x40 DUP4 ADD DUP7 PUSH2 0x1E3A JUMP JUMPDEST PUSH2 0x24E3 PUSH1 0x60 DUP4 ADD DUP6 PUSH2 0x1D7C JUMP JUMPDEST PUSH2 0x24F0 PUSH1 0x80 DUP4 ADD DUP5 PUSH2 0x1ECC JUMP JUMPDEST SWAP7 SWAP6 POP POP POP POP POP POP JUMP JUMPDEST PUSH1 0x0 PUSH1 0x80 DUP3 ADD SWAP1 POP PUSH2 0x250F PUSH1 0x0 DUP4 ADD DUP8 PUSH2 0x1E3A JUMP JUMPDEST PUSH2 0x251C PUSH1 0x20 DUP4 ADD DUP7 PUSH2 0x1E06 JUMP JUMPDEST PUSH2 0x2529 PUSH1 0x40 DUP4 ADD DUP6 PUSH2 0x1E3A JUMP JUMPDEST PUSH2 0x2536 PUSH1 0x60 DUP4 ADD DUP5 PUSH2 0x1E3A JUMP JUMPDEST SWAP6 SWAP5 POP POP POP POP POP JUMP JUMPDEST PUSH32 0x4E487B7100000000000000000000000000000000000000000000000000000000 PUSH1 0x0 MSTORE PUSH1 0x21 PUSH1 0x4 MSTORE PUSH1 0x24 PUSH1 0x0 REVERT INVALID LOG2 PUSH5 0x6970667358 0x22 SLT KECCAK256 XOR 0xD1 CALLER PUSH5 0x27F0C98878 0x27 PUSH30 0x4FFA8935600A098749AF3405A62D20EF13749ED50E64736F6C634300081C STOP CALLER "},"methodIdentifiers":{"DOMAIN_SEPARATOR()":"3644e515","allowance(address,address)":"dd62ed3e","approve(address,uint256)":"095ea7b3","balanceOf(address)":"70a08231","certificateTokenId()":"4b24691f","decimals()":"313ce567","eip712Domain()":"84b0196e","fractionalizeCertificate()":"70be42a6","getFractionInfo()":"fb647cd9","iRecCertificateContract()":"b01d6d82","isFractionalized()":"3fb3ca20","name()":"06fdde03","nonces(address)":"7ecebe00","onERC721Received(address,address,uint256,bytes)":"150b7a02","owner()":"8da5cb5b","permit(address,address,uint256,uint256,uint8,bytes32,bytes32)":"d505accf","renounceOwnership()":"715018a6","symbol()":"95d89b41","totalSupply()":"18160ddd","transfer(address,uint256)":"a9059cbb","transferFrom(address,address,uint256)":"23b872dd","transferOwnership(address)":"f2fde38b"}}}}}