{
  "_format": "hh-sol-artifact-1",
  "contractName": "IReCCertificate",
  "sourceName": "contracts/IReCCertificate.sol",
  "abi": [
    {
      "inputs": [
        {
          "internalType": "string",
          "name": "name",
          "type": "string"
        },
        {
          "internalType": "string",
          "name": "symbol",
          "type": "string"
        },
        {
          "internalType": "string",
          "name": "initialBaseURI",
          "type": "string"
        }
      ],
      "stateMutability": "nonpayable",
      "type": "constructor"
    },
    {
      "inputs": [
        {
          "internalType": "address",
          "name": "sender",
          "type": "address"
        },
        {
          "internalType": "uint256",
          "name": "tokenId",
          "type": "uint256"
        },
        {
          "internalType": "address",
          "name": "owner",
          "type": "address"
        }
      ],
      "name": "ERC721IncorrectOwner",
      "type": "error"
    },
    {
      "inputs": [
        {
          "internalType": "address",
          "name": "operator",
          "type": "address"
        },
        {
          "internalType": "uint256",
          "name": "tokenId",
          "type": "uint256"
        }
      ],
      "name": "ERC721InsufficientApproval",
      "type": "error"
    },
    {
      "inputs": [
        {
          "internalType": "address",
          "name": "approver",
          "type": "address"
        }
      ],
      "name": "ERC721InvalidApprover",
      "type": "error"
    },
    {
      "inputs": [
        {
          "internalType": "address",
          "name": "operator",
          "type": "address"
        }
      ],
      "name": "ERC721InvalidOperator",
      "type": "error"
    },
    {
      "inputs": [
        {
          "internalType": "address",
          "name": "owner",
          "type": "address"
        }
      ],
      "name": "ERC721InvalidOwner",
      "type": "error"
    },
    {
      "inputs": [
        {
          "internalType": "address",
          "name": "receiver",
          "type": "address"
        }
      ],
      "name": "ERC721InvalidReceiver",
      "type": "error"
    },
    {
      "inputs": [
        {
          "internalType": "address",
          "name": "sender",
          "type": "address"
        }
      ],
      "name": "ERC721InvalidSender",
      "type": "error"
    },
    {
      "inputs": [
        {
          "internalType": "uint256",
          "name": "tokenId",
          "type": "uint256"
        }
      ],
      "name": "ERC721NonexistentToken",
      "type": "error"
    },
    {
      "inputs": [
        {
          "internalType": "address",
          "name": "owner",
          "type": "address"
        }
      ],
      "name": "OwnableInvalidOwner",
      "type": "error"
    },
    {
      "inputs": [
        {
          "internalType": "address",
          "name": "account",
          "type": "address"
        }
      ],
      "name": "OwnableUnauthorizedAccount",
      "type": "error"
    },
    {
      "anonymous": false,
      "inputs": [
        {
          "indexed": true,
          "internalType": "address",
          "name": "owner",
          "type": "address"
        },
        {
          "indexed": true,
          "internalType": "address",
          "name": "approved",
          "type": "address"
        },
        {
          "indexed": true,
          "internalType": "uint256",
          "name": "tokenId",
          "type": "uint256"
        }
      ],
      "name": "Approval",
      "type": "event"
    },
    {
      "anonymous": false,
      "inputs": [
        {
          "indexed": true,
          "internalType": "address",
          "name": "owner",
          "type": "address"
        },
        {
          "indexed": true,
          "internalType": "address",
          "name": "operator",
          "type": "address"
        },
        {
          "indexed": false,
          "internalType": "bool",
          "name": "approved",
          "type": "bool"
        }
      ],
      "name": "ApprovalForAll",
      "type": "event"
    },
    {
      "anonymous": false,
      "inputs": [
        {
          "indexed": false,
          "internalType": "uint256",
          "name": "_fromTokenId",
          "type": "uint256"
        },
        {
          "indexed": false,
          "internalType": "uint256",
          "name": "_toTokenId",
          "type": "uint256"
        }
      ],
      "name": "BatchMetadataUpdate",
      "type": "event"
    },
    {
      "anonymous": false,
      "inputs": [
        {
          "indexed": false,
          "internalType": "uint256",
          "name": "tokenId",
          "type": "uint256"
        },
        {
          "indexed": false,
          "internalType": "address",
          "name": "burner",
          "type": "address"
        },
        {
          "indexed": false,
          "internalType": "uint256",
          "name": "energyAmount",
          "type": "uint256"
        }
      ],
      "name": "CertificateBurned",
      "type": "event"
    },
    {
      "anonymous": false,
      "inputs": [
        {
          "indexed": false,
          "internalType": "uint256",
          "name": "tokenId",
          "type": "uint256"
        }
      ],
      "name": "CertificateDetailsUpdated",
      "type": "event"
    },
    {
      "anonymous": false,
      "inputs": [
        {
          "indexed": false,
          "internalType": "uint256",
          "name": "tokenId",
          "type": "uint256"
        },
        {
          "indexed": false,
          "internalType": "address",
          "name": "owner",
          "type": "address"
        },
        {
          "indexed": false,
          "internalType": "uint256",
          "name": "energyAmount",
          "type": "uint256"
        }
      ],
      "name": "CertificateMinted",
      "type": "event"
    },
    {
      "anonymous": false,
      "inputs": [
        {
          "indexed": false,
          "internalType": "uint256",
          "name": "_tokenId",
          "type": "uint256"
        }
      ],
      "name": "MetadataUpdate",
      "type": "event"
    },
    {
      "anonymous": false,
      "inputs": [
        {
          "indexed": true,
          "internalType": "address",
          "name": "previousOwner",
          "type": "address"
        },
        {
          "indexed": true,
          "internalType": "address",
          "name": "newOwner",
          "type": "address"
        }
      ],
      "name": "OwnershipTransferred",
      "type": "event"
    },
    {
      "anonymous": false,
      "inputs": [
        {
          "indexed": true,
          "internalType": "address",
          "name": "from",
          "type": "address"
        },
        {
          "indexed": true,
          "internalType": "address",
          "name": "to",
          "type": "address"
        },
        {
          "indexed": true,
          "internalType": "uint256",
          "name": "tokenId",
          "type": "uint256"
        }
      ],
      "name": "Transfer",
      "type": "event"
    },
    {
      "inputs": [
        {
          "internalType": "address",
          "name": "to",
          "type": "address"
        },
        {
          "internalType": "uint256",
          "name": "tokenId",
          "type": "uint256"
        }
      ],
      "name": "approve",
      "outputs": [],
      "stateMutability": "nonpayable",
      "type": "function"
    },
    {
      "inputs": [
        {
          "internalType": "address",
          "name": "owner",
          "type": "address"
        }
      ],
      "name": "balanceOf",
      "outputs": [
        {
          "internalType": "uint256",
          "name": "",
          "type": "uint256"
        }
      ],
      "stateMutability": "view",
      "type": "function"
    },
    {
      "inputs": [
        {
          "internalType": "uint256",
          "name": "tokenId",
          "type": "uint256"
        }
      ],
      "name": "burnCertificate",
      "outputs": [],
      "stateMutability": "nonpayable",
      "type": "function"
    },
    {
      "inputs": [
        {
          "internalType": "uint256",
          "name": "",
          "type": "uint256"
        }
      ],
      "name": "certificates",
      "outputs": [
        {
          "internalType": "string",
          "name": "facilityName",
          "type": "string"
        },
        {
          "internalType": "string",
          "name": "energySource",
          "type": "string"
        },
        {
          "internalType": "uint256",
          "name": "productionDate",
          "type": "uint256"
        },
        {
          "internalType": "uint256",
          "name": "expiryDate",
          "type": "uint256"
        },
        {
          "internalType": "uint256",
          "name": "energyAmount",
          "type": "uint256"
        }
      ],
      "stateMutability": "view",
      "type": "function"
    },
    {
      "inputs": [
        {
          "internalType": "uint256",
          "name": "tokenId",
          "type": "uint256"
        }
      ],
      "name": "getApproved",
      "outputs": [
        {
          "internalType": "address",
          "name": "",
          "type": "address"
        }
      ],
      "stateMutability": "view",
      "type": "function"
    },
    {
      "inputs": [
        {
          "internalType": "uint256",
          "name": "tokenId",
          "type": "uint256"
        }
      ],
      "name": "getCertificateDetails",
      "outputs": [
        {
          "internalType": "string",
          "name": "facilityName",
          "type": "string"
        },
        {
          "internalType": "string",
          "name": "energySource",
          "type": "string"
        },
        {
          "internalType": "uint256",
          "name": "productionDate",
          "type": "uint256"
        },
        {
          "internalType": "uint256",
          "name": "expiryDate",
          "type": "uint256"
        },
        {
          "internalType": "uint256",
          "name": "energyAmount",
          "type": "uint256"
        },
        {
          "internalType": "address",
          "name": "owner",
          "type": "address"
        }
      ],
      "stateMutability": "view",
      "type": "function"
    },
    {
      "inputs": [
        {
          "internalType": "address",
          "name": "owner",
          "type": "address"
        },
        {
          "internalType": "address",
          "name": "operator",
          "type": "address"
        }
      ],
      "name": "isApprovedForAll",
      "outputs": [
        {
          "internalType": "bool",
          "name": "",
          "type": "bool"
        }
      ],
      "stateMutability": "view",
      "type": "function"
    },
    {
      "inputs": [
        {
          "internalType": "address",
          "name": "recipient",
          "type": "address"
        },
        {
          "internalType": "string",
          "name": "baseURI",
          "type": "string"
        },
        {
          "internalType": "string",
          "name": "facilityName",
          "type": "string"
        },
        {
          "internalType": "string",
          "name": "energySource",
          "type": "string"
        },
        {
          "internalType": "uint256",
          "name": "productionDate",
          "type": "uint256"
        },
        {
          "internalType": "uint256",
          "name": "expiryDate",
          "type": "uint256"
        },
        {
          "internalType": "uint256",
          "name": "newItemId",
          "type": "uint256"
        }
      ],
      "name": "mintCertificate",
      "outputs": [
        {
          "internalType": "uint256",
          "name": "",
          "type": "uint256"
        }
      ],
      "stateMutability": "nonpayable",
      "type": "function"
    },
    {
      "inputs": [],
      "name": "name",
      "outputs": [
        {
          "internalType": "string",
          "name": "",
          "type": "string"
        }
      ],
      "stateMutability": "view",
      "type": "function"
    },
    {
      "inputs": [],
      "name": "owner",
      "outputs": [
        {
          "internalType": "address",
          "name": "",
          "type": "address"
        }
      ],
      "stateMutability": "view",
      "type": "function"
    },
    {
      "inputs": [
        {
          "internalType": "uint256",
          "name": "tokenId",
          "type": "uint256"
        }
      ],
      "name": "ownerOf",
      "outputs": [
        {
          "internalType": "address",
          "name": "",
          "type": "address"
        }
      ],
      "stateMutability": "view",
      "type": "function"
    },
    {
      "inputs": [],
      "name": "renounceOwnership",
      "outputs": [],
      "stateMutability": "nonpayable",
      "type": "function"
    },
    {
      "inputs": [
        {
          "internalType": "address",
          "name": "from",
          "type": "address"
        },
        {
          "internalType": "address",
          "name": "to",
          "type": "address"
        },
        {
          "internalType": "uint256",
          "name": "tokenId",
          "type": "uint256"
        }
      ],
      "name": "safeTransferFrom",
      "outputs": [],
      "stateMutability": "nonpayable",
      "type": "function"
    },
    {
      "inputs": [
        {
          "internalType": "address",
          "name": "from",
          "type": "address"
        },
        {
          "internalType": "address",
          "name": "to",
          "type": "address"
        },
        {
          "internalType": "uint256",
          "name": "tokenId",
          "type": "uint256"
        },
        {
          "internalType": "bytes",
          "name": "data",
          "type": "bytes"
        }
      ],
      "name": "safeTransferFrom",
      "outputs": [],
      "stateMutability": "nonpayable",
      "type": "function"
    },
    {
      "inputs": [
        {
          "internalType": "address",
          "name": "operator",
          "type": "address"
        },
        {
          "internalType": "bool",
          "name": "approved",
          "type": "bool"
        }
      ],
      "name": "setApprovalForAll",
      "outputs": [],
      "stateMutability": "nonpayable",
      "type": "function"
    },
    {
      "inputs": [
        {
          "internalType": "string",
          "name": "newBaseURI",
          "type": "string"
        }
      ],
      "name": "setBaseURI",
      "outputs": [],
      "stateMutability": "nonpayable",
      "type": "function"
    },
    {
      "inputs": [
        {
          "internalType": "bytes4",
          "name": "interfaceId",
          "type": "bytes4"
        }
      ],
      "name": "supportsInterface",
      "outputs": [
        {
          "internalType": "bool",
          "name": "",
          "type": "bool"
        }
      ],
      "stateMutability": "view",
      "type": "function"
    },
    {
      "inputs": [],
      "name": "symbol",
      "outputs": [
        {
          "internalType": "string",
          "name": "",
          "type": "string"
        }
      ],
      "stateMutability": "view",
      "type": "function"
    },
    {
      "inputs": [
        {
          "internalType": "uint256",
          "name": "tokenId",
          "type": "uint256"
        }
      ],
      "name": "tokenURI",
      "outputs": [
        {
          "internalType": "string",
          "name": "",
          "type": "string"
        }
      ],
      "stateMutability": "view",
      "type": "function"
    },
    {
      "inputs": [
        {
          "internalType": "address",
          "name": "from",
          "type": "address"
        },
        {
          "internalType": "address",
          "name": "to",
          "type": "address"
        },
        {
          "internalType": "uint256",
          "name": "tokenId",
          "type": "uint256"
        }
      ],
      "name": "transferFrom",
      "outputs": [],
      "stateMutability": "nonpayable",
      "type": "function"
    },
    {
      "inputs": [
        {
          "internalType": "address",
          "name": "newOwner",
          "type": "address"
        }
      ],
      "name": "transferOwnership",
      "outputs": [],
      "stateMutability": "nonpayable",
      "type": "function"
    }
  ],
  "bytecode": "0x608060405234801561001057600080fd5b506040516138783803806138788339818101604052810190610032919061032c565b338383816000908161004491906105f4565b50806001908161005491906105f4565b505050600073ffffffffffffffffffffffffffffffffffffffff168173ffffffffffffffffffffffffffffffffffffffff16036100c95760006040517f1e4fbdf70000000000000000000000000000000000000000000000000000000081526004016100c09190610707565b60405180910390fd5b6100d8816100f160201b60201c565b5080600a90816100e891906105f4565b50505050610722565b6000600760009054906101000a900473ffffffffffffffffffffffffffffffffffffffff16905081600760006101000a81548173ffffffffffffffffffffffffffffffffffffffff021916908373ffffffffffffffffffffffffffffffffffffffff1602179055508173ffffffffffffffffffffffffffffffffffffffff168173ffffffffffffffffffffffffffffffffffffffff167f8be0079c531659141344cd1fd0a4f28419497f9722a3daafe3b4186f6b6457e060405160405180910390a35050565b6000604051905090565b600080fd5b600080fd5b600080fd5b600080fd5b6000601f19601f8301169050919050565b7f4e487b7100000000000000000000000000000000000000000000000000000000600052604160045260246000fd5b61021e826101d5565b810181811067ffffffffffffffff8211171561023d5761023c6101e6565b5b80604052505050565b60006102506101b7565b905061025c8282610215565b919050565b600067ffffffffffffffff82111561027c5761027b6101e6565b5b610285826101d5565b9050602081019050919050565b60005b838110156102b0578082015181840152602081019050610295565b60008484015250505050565b60006102cf6102ca84610261565b610246565b9050828152602081018484840111156102eb576102ea6101d0565b5b6102f6848285610292565b509392505050565b600082601f830112610313576103126101cb565b5b81516103238482602086016102bc565b91505092915050565b600080600060608486031215610345576103446101c1565b5b600084015167ffffffffffffffff811115610363576103626101c6565b5b61036f868287016102fe565b935050602084015167ffffffffffffffff8111156103905761038f6101c6565b5b61039c868287016102fe565b925050604084015167ffffffffffffffff8111156103bd576103bc6101c6565b5b6103c9868287016102fe565b9150509250925092565b600081519050919050565b7f4e487b7100000000000000000000000000000000000000000000000000000000600052602260045260246000fd5b6000600282049050600182168061042557607f821691505b602082108103610438576104376103de565b5b50919050565b60008190508160005260206000209050919050565b60006020601f8301049050919050565b600082821b905092915050565b6000600883026104a07fffffffffffffffffffffffffffffffffffffffffffffffffffffffffffffffff82610463565b6104aa8683610463565b95508019841693508086168417925050509392505050565b6000819050919050565b6000819050919050565b60006104f16104ec6104e7846104c2565b6104cc565b6104c2565b9050919050565b6000819050919050565b61050b836104d6565b61051f610517826104f8565b848454610470565b825550505050565b600090565b610534610527565b61053f818484610502565b505050565b5b818110156105635761055860008261052c565b600181019050610545565b5050565b601f8211156105a8576105798161043e565b61058284610453565b81016020851015610591578190505b6105a561059d85610453565b830182610544565b50505b505050565b600082821c905092915050565b60006105cb600019846008026105ad565b1980831691505092915050565b60006105e483836105ba565b9150826002028217905092915050565b6105fd826103d3565b67ffffffffffffffff811115610616576106156101e6565b5b610620825461040d565b61062b828285610567565b600060209050601f83116001811461065e576000841561064c578287015190505b61065685826105d8565b8655506106be565b601f19841661066c8661043e565b60005b828110156106945784890151825560018201915060208501945060208101905061066f565b868310156106b157848901516106ad601f8916826105ba565b8355505b6001600288020188555050505b505050505050565b600073ffffffffffffffffffffffffffffffffffffffff82169050919050565b60006106f1826106c6565b9050919050565b610701816106e6565b82525050565b600060208201905061071c60008301846106f8565b92915050565b613147806107316000396000f3fe608060405234801561001057600080fd5b50600436106101375760003560e01c806370a08231116100b8578063a22cb4651161007c578063a22cb46514610350578063a901fe5e1461036c578063b88d4fde146103a1578063c87b56dd146103bd578063e985e9c5146103ed578063f2fde38b1461041d57610137565b806370a08231146102be578063715018a6146102ee5780638da5cb5b146102f857806393b16b451461031657806395d89b411461033257610137565b806342842e0e116100ff57806342842e0e146101f257806342eaa6f41461020e57806355f804b31461023e5780636352211e1461025a578063663b3e221461028a57610137565b806301ffc9a71461013c57806306fdde031461016c578063081812fc1461018a578063095ea7b3146101ba57806323b872dd146101d6575b600080fd5b610156600480360381019061015191906122bc565b610439565b6040516101639190612304565b60405180910390f35b61017461049a565b60405161018191906123af565b60405180910390f35b6101a4600480360381019061019f9190612407565b61052c565b6040516101b19190612475565b60405180910390f35b6101d460048036038101906101cf91906124bc565b610548565b005b6101f060048036038101906101eb91906124fc565b61055e565b005b61020c600480360381019061020791906124fc565b610660565b005b61022860048036038101906102239190612684565b610680565b6040516102359190612789565b60405180910390f35b610258600480360381019061025391906127a4565b6107c6565b005b610274600480360381019061026f9190612407565b6107e1565b6040516102819190612475565b60405180910390f35b6102a4600480360381019061029f9190612407565b6107f3565b6040516102b59594939291906127ed565b60405180910390f35b6102d860048036038101906102d3919061284e565b610939565b6040516102e59190612789565b60405180910390f35b6102f66109f3565b005b610300610a07565b60405161030d9190612475565b60405180910390f35b610330600480360381019061032b9190612407565b610a31565b005b61033a610b83565b60405161034791906123af565b60405180910390f35b61036a600480360381019061036591906128a7565b610c15565b005b61038660048036038101906103819190612407565b610c2b565b604051610398969594939291906128e7565b60405180910390f35b6103bb60048036038101906103b691906129f7565b610e71565b005b6103d760048036038101906103d29190612407565b610e96565b6040516103e491906123af565b60405180910390f35b61040760048036038101906104029190612a7a565b610fa9565b6040516104149190612304565b60405180910390f35b6104376004803603810190610432919061284e565b61103d565b005b6000634906490660e01b7bffffffffffffffffffffffffffffffffffffffffffffffffffffffff1916827bffffffffffffffffffffffffffffffffffffffffffffffffffffffff191614806104935750610492826110c3565b5b9050919050565b6060600080546104a990612ae9565b80601f01602080910402602001604051908101604052809291908181526020018280546104d590612ae9565b80156105225780601f106104f757610100808354040283529160200191610522565b820191906000526020600020905b81548152906001019060200180831161050557829003601f168201915b5050505050905090565b6000610537826111a5565b506105418261122d565b9050919050565b61055a828261055561126a565b611272565b5050565b600073ffffffffffffffffffffffffffffffffffffffff168273ffffffffffffffffffffffffffffffffffffffff16036105d05760006040517f64a0ae920000000000000000000000000000000000000000000000000000000081526004016105c79190612475565b60405180910390fd5b60006105e483836105df61126a565b611284565b90508373ffffffffffffffffffffffffffffffffffffffff168173ffffffffffffffffffffffffffffffffffffffff161461065a578382826040517f64283d7b00000000000000000000000000000000000000000000000000000000815260040161065193929190612b1a565b60405180910390fd5b50505050565b61067b83838360405180602001604052806000815250610e71565b505050565b600061068a61149e565b6106948883611525565b61069e828861161e565b6040518060a00160405280878152602001868152602001858152602001848152602001620f42408152506008600084815260200190815260200160002060008201518160000190816106f09190612cfd565b5060208201518160010190816107069190612cfd565b50604082015181600201556060820151816003015560808201518160040155905050876009600084815260200190815260200160002060006101000a81548173ffffffffffffffffffffffffffffffffffffffff021916908373ffffffffffffffffffffffffffffffffffffffff1602179055507f4d660303f3cf5c0e9d967870d281fc77f88bb1d50331ac1af95e18cce14ef1f98289620f42406040516107b093929190612e0a565b60405180910390a1819050979650505050505050565b6107ce61149e565b80600a90816107dd9190612cfd565b5050565b60006107ec826111a5565b9050919050565b600860205280600052604060002060009150905080600001805461081690612ae9565b80601f016020809104026020016040519081016040528092919081815260200182805461084290612ae9565b801561088f5780601f106108645761010080835404028352916020019161088f565b820191906000526020600020905b81548152906001019060200180831161087257829003601f168201915b5050505050908060010180546108a490612ae9565b80601f01602080910402602001604051908101604052809291908181526020018280546108d090612ae9565b801561091d5780601f106108f25761010080835404028352916020019161091d565b820191906000526020600020905b81548152906001019060200180831161090057829003601f168201915b5050505050908060020154908060030154908060040154905085565b60008073ffffffffffffffffffffffffffffffffffffffff168273ffffffffffffffffffffffffffffffffffffffff16036109ac5760006040517f89c62b640000000000000000000000000000000000000000000000000000000081526004016109a39190612475565b60405180910390fd5b600360008373ffffffffffffffffffffffffffffffffffffffff1673ffffffffffffffffffffffffffffffffffffffff168152602001908152602001600020549050919050565b6109fb61149e565b610a05600061167a565b565b6000600760009054906101000a900473ffffffffffffffffffffffffffffffffffffffff16905090565b6009600082815260200190815260200160002060009054906101000a900473ffffffffffffffffffffffffffffffffffffffff1673ffffffffffffffffffffffffffffffffffffffff163373ffffffffffffffffffffffffffffffffffffffff1614610ad2576040517f08c379a0000000000000000000000000000000000000000000000000000000008152600401610ac990612eb3565b60405180910390fd5b6000600860008381526020019081526020016000206004015490506008600083815260200190815260200160002060008082016000610b1191906121f3565b600182016000610b2191906121f3565b6002820160009055600382016000905560048201600090555050610b4482611740565b7f35f384066bf07b6616bbf730515dc81145006942534dbfaa17eee53f248b532f823383604051610b7793929190612ed3565b60405180910390a15050565b606060018054610b9290612ae9565b80601f0160208091040260200160405190810160405280929190818152602001828054610bbe90612ae9565b8015610c0b5780601f10610be057610100808354040283529160200191610c0b565b820191906000526020600020905b815481529060010190602001808311610bee57829003601f168201915b5050505050905090565b610c27610c2061126a565b83836117c6565b5050565b6060806000806000806009600088815260200190815260200160002060009054906101000a900473ffffffffffffffffffffffffffffffffffffffff1673ffffffffffffffffffffffffffffffffffffffff163373ffffffffffffffffffffffffffffffffffffffff1614610cd5576040517f08c379a0000000000000000000000000000000000000000000000000000000008152600401610ccc90612f56565b60405180910390fd5b6000600860008981526020019081526020016000206040518060a0016040529081600082018054610d0590612ae9565b80601f0160208091040260200160405190810160405280929190818152602001828054610d3190612ae9565b8015610d7e5780601f10610d5357610100808354040283529160200191610d7e565b820191906000526020600020905b815481529060010190602001808311610d6157829003601f168201915b50505050508152602001600182018054610d9790612ae9565b80601f0160208091040260200160405190810160405280929190818152602001828054610dc390612ae9565b8015610e105780601f10610de557610100808354040283529160200191610e10565b820191906000526020600020905b815481529060010190602001808311610df357829003601f168201915b505050505081526020016002820154815260200160038201548152602001600482015481525050905080600001518160200151826040015183606001518460800151610e5b8d6107e1565b9650965096509650965096505091939550919395565b610e7c84848461055e565b610e90610e8761126a565b85858585611935565b50505050565b6060610ea1826111a5565b506000600660008481526020019081526020016000208054610ec290612ae9565b80601f0160208091040260200160405190810160405280929190818152602001828054610eee90612ae9565b8015610f3b5780601f10610f1057610100808354040283529160200191610f3b565b820191906000526020600020905b815481529060010190602001808311610f1e57829003601f168201915b505050505090506000610f4c611ae6565b90506000815103610f61578192505050610fa4565b600082511115610f96578082604051602001610f7e929190612fb2565b60405160208183030381529060405292505050610fa4565b610f9f84611b78565b925050505b919050565b6000600560008473ffffffffffffffffffffffffffffffffffffffff1673ffffffffffffffffffffffffffffffffffffffff16815260200190815260200160002060008373ffffffffffffffffffffffffffffffffffffffff1673ffffffffffffffffffffffffffffffffffffffff16815260200190815260200160002060009054906101000a900460ff16905092915050565b61104561149e565b600073ffffffffffffffffffffffffffffffffffffffff168173ffffffffffffffffffffffffffffffffffffffff16036110b75760006040517f1e4fbdf70000000000000000000000000000000000000000000000000000000081526004016110ae9190612475565b60405180910390fd5b6110c08161167a565b50565b60007f80ac58cd000000000000000000000000000000000000000000000000000000007bffffffffffffffffffffffffffffffffffffffffffffffffffffffff1916827bffffffffffffffffffffffffffffffffffffffffffffffffffffffff1916148061118e57507f5b5e139f000000000000000000000000000000000000000000000000000000007bffffffffffffffffffffffffffffffffffffffffffffffffffffffff1916827bffffffffffffffffffffffffffffffffffffffffffffffffffffffff1916145b8061119e575061119d82611be1565b5b9050919050565b6000806111b183611c4b565b9050600073ffffffffffffffffffffffffffffffffffffffff168173ffffffffffffffffffffffffffffffffffffffff160361122457826040517f7e27328900000000000000000000000000000000000000000000000000000000815260040161121b9190612789565b60405180910390fd5b80915050919050565b60006004600083815260200190815260200160002060009054906101000a900473ffffffffffffffffffffffffffffffffffffffff169050919050565b600033905090565b61127f8383836001611c88565b505050565b60008061129084611c4b565b9050600073ffffffffffffffffffffffffffffffffffffffff168373ffffffffffffffffffffffffffffffffffffffff16146112d2576112d1818486611e4d565b5b600073ffffffffffffffffffffffffffffffffffffffff168173ffffffffffffffffffffffffffffffffffffffff161461136357611314600085600080611c88565b6001600360008373ffffffffffffffffffffffffffffffffffffffff1673ffffffffffffffffffffffffffffffffffffffff168152602001908152602001600020600082825403925050819055505b600073ffffffffffffffffffffffffffffffffffffffff168573ffffffffffffffffffffffffffffffffffffffff16146113e6576001600360008773ffffffffffffffffffffffffffffffffffffffff1673ffffffffffffffffffffffffffffffffffffffff168152602001908152602001600020600082825401925050819055505b846002600086815260200190815260200160002060006101000a81548173ffffffffffffffffffffffffffffffffffffffff021916908373ffffffffffffffffffffffffffffffffffffffff160217905550838573ffffffffffffffffffffffffffffffffffffffff168273ffffffffffffffffffffffffffffffffffffffff167fddf252ad1be2c89b69c2b068fc378daa952ba7f163c4a11628f55a4df523b3ef60405160405180910390a4809150509392505050565b6114a661126a565b73ffffffffffffffffffffffffffffffffffffffff166114c4610a07565b73ffffffffffffffffffffffffffffffffffffffff1614611523576114e761126a565b6040517f118cdaa700000000000000000000000000000000000000000000000000000000815260040161151a9190612475565b60405180910390fd5b565b600073ffffffffffffffffffffffffffffffffffffffff168273ffffffffffffffffffffffffffffffffffffffff16036115975760006040517f64a0ae9200000000000000000000000000000000000000000000000000000000815260040161158e9190612475565b60405180910390fd5b60006115a583836000611284565b9050600073ffffffffffffffffffffffffffffffffffffffff168173ffffffffffffffffffffffffffffffffffffffff16146116195760006040517f73c6ac6e0000000000000000000000000000000000000000000000000000000081526004016116109190612475565b60405180910390fd5b505050565b8060066000848152602001908152602001600020908161163e9190612cfd565b507ff8e1a15aba9398e019f0b49df1a4fde98ee17ae345cb5f6b5e2c27f5033e8ce78260405161166e9190612789565b60405180910390a15050565b6000600760009054906101000a900473ffffffffffffffffffffffffffffffffffffffff16905081600760006101000a81548173ffffffffffffffffffffffffffffffffffffffff021916908373ffffffffffffffffffffffffffffffffffffffff1602179055508173ffffffffffffffffffffffffffffffffffffffff168173ffffffffffffffffffffffffffffffffffffffff167f8be0079c531659141344cd1fd0a4f28419497f9722a3daafe3b4186f6b6457e060405160405180910390a35050565b600061174f6000836000611284565b9050600073ffffffffffffffffffffffffffffffffffffffff168173ffffffffffffffffffffffffffffffffffffffff16036117c257816040517f7e2732890000000000000000000000000000000000000000000000000000000081526004016117b99190612789565b60405180910390fd5b5050565b600073ffffffffffffffffffffffffffffffffffffffff168273ffffffffffffffffffffffffffffffffffffffff160361183757816040517f5b08ba1800000000000000000000000000000000000000000000000000000000815260040161182e9190612475565b60405180910390fd5b80600560008573ffffffffffffffffffffffffffffffffffffffff1673ffffffffffffffffffffffffffffffffffffffff16815260200190815260200160002060008473ffffffffffffffffffffffffffffffffffffffff1673ffffffffffffffffffffffffffffffffffffffff16815260200190815260200160002060006101000a81548160ff0219169083151502179055508173ffffffffffffffffffffffffffffffffffffffff168373ffffffffffffffffffffffffffffffffffffffff167f17307eab39ab6107e8899845ad3d59bd9653f200f220920489ca2b5937696c31836040516119289190612304565b60405180910390a3505050565b60008373ffffffffffffffffffffffffffffffffffffffff163b1115611adf578273ffffffffffffffffffffffffffffffffffffffff1663150b7a02868685856040518563ffffffff1660e01b8152600401611994949392919061302b565b6020604051808303816000875af19250505080156119d057506040513d601f19601f820116820180604052508101906119cd919061308c565b60015b611a54573d8060008114611a00576040519150601f19603f3d011682016040523d82523d6000602084013e611a05565b606091505b506000815103611a4c57836040517f64a0ae92000000000000000000000000000000000000000000000000000000008152600401611a439190612475565b60405180910390fd5b805181602001fd5b63150b7a0260e01b7bffffffffffffffffffffffffffffffffffffffffffffffffffffffff1916817bffffffffffffffffffffffffffffffffffffffffffffffffffffffff191614611add57836040517f64a0ae92000000000000000000000000000000000000000000000000000000008152600401611ad49190612475565b60405180910390fd5b505b5050505050565b6060600a8054611af590612ae9565b80601f0160208091040260200160405190810160405280929190818152602001828054611b2190612ae9565b8015611b6e5780601f10611b4357610100808354040283529160200191611b6e565b820191906000526020600020905b815481529060010190602001808311611b5157829003601f168201915b5050505050905090565b6060611b83826111a5565b506000611b8e611ae6565b90506000815111611bae5760405180602001604052806000815250611bd9565b80611bb884611f11565b604051602001611bc9929190612fb2565b6040516020818303038152906040525b915050919050565b60007f01ffc9a7000000000000000000000000000000000000000000000000000000007bffffffffffffffffffffffffffffffffffffffffffffffffffffffff1916827bffffffffffffffffffffffffffffffffffffffffffffffffffffffff1916149050919050565b60006002600083815260200190815260200160002060009054906101000a900473ffffffffffffffffffffffffffffffffffffffff169050919050565b8080611cc15750600073ffffffffffffffffffffffffffffffffffffffff168273ffffffffffffffffffffffffffffffffffffffff1614155b15611df5576000611cd1846111a5565b9050600073ffffffffffffffffffffffffffffffffffffffff168373ffffffffffffffffffffffffffffffffffffffff1614158015611d3c57508273ffffffffffffffffffffffffffffffffffffffff168173ffffffffffffffffffffffffffffffffffffffff1614155b8015611d4f5750611d4d8184610fa9565b155b15611d9157826040517fa9fbf51f000000000000000000000000000000000000000000000000000000008152600401611d889190612475565b60405180910390fd5b8115611df357838573ffffffffffffffffffffffffffffffffffffffff168273ffffffffffffffffffffffffffffffffffffffff167f8c5be1e5ebec7d5bd14f71427d1e84f3dd0314c0f7b2291e5b200ac8c7c3b92560405160405180910390a45b505b836004600085815260200190815260200160002060006101000a81548173ffffffffffffffffffffffffffffffffffffffff021916908373ffffffffffffffffffffffffffffffffffffffff16021790555050505050565b611e58838383611fdf565b611f0c57600073ffffffffffffffffffffffffffffffffffffffff168373ffffffffffffffffffffffffffffffffffffffff1603611ecd57806040517f7e273289000000000000000000000000000000000000000000000000000000008152600401611ec49190612789565b60405180910390fd5b81816040517f177e802f000000000000000000000000000000000000000000000000000000008152600401611f039291906130b9565b60405180910390fd5b505050565b606060006001611f20846120a0565b01905060008167ffffffffffffffff811115611f3f57611f3e612559565b5b6040519080825280601f01601f191660200182016040528015611f715781602001600182028036833780820191505090505b509050600082602001820190505b600115611fd4578080600190039150507f3031323334353637383961626364656600000000000000000000000000000000600a86061a8153600a8581611fc857611fc76130e2565b5b04945060008503611f7f575b819350505050919050565b60008073ffffffffffffffffffffffffffffffffffffffff168373ffffffffffffffffffffffffffffffffffffffff161415801561209757508273ffffffffffffffffffffffffffffffffffffffff168473ffffffffffffffffffffffffffffffffffffffff16148061205857506120578484610fa9565b5b8061209657508273ffffffffffffffffffffffffffffffffffffffff1661207e8361122d565b73ffffffffffffffffffffffffffffffffffffffff16145b5b90509392505050565b600080600090507a184f03e93ff9f4daa797ed6e38ed64bf6a1f01000000000000000083106120fe577a184f03e93ff9f4daa797ed6e38ed64bf6a1f01000000000000000083816120f4576120f36130e2565b5b0492506040810190505b6d04ee2d6d415b85acef8100000000831061213b576d04ee2d6d415b85acef81000000008381612131576121306130e2565b5b0492506020810190505b662386f26fc10000831061216a57662386f26fc1000083816121605761215f6130e2565b5b0492506010810190505b6305f5e1008310612193576305f5e1008381612189576121886130e2565b5b0492506008810190505b61271083106121b85761271083816121ae576121ad6130e2565b5b0492506004810190505b606483106121db57606483816121d1576121d06130e2565b5b0492506002810190505b600a83106121ea576001810190505b80915050919050565b5080546121ff90612ae9565b6000825580601f106122115750612230565b601f01602090049060005260206000209081019061222f9190612233565b5b50565b5b8082111561224c576000816000905550600101612234565b5090565b6000604051905090565b600080fd5b600080fd5b60007fffffffff0000000000000000000000000000000000000000000000000000000082169050919050565b61229981612264565b81146122a457600080fd5b50565b6000813590506122b681612290565b92915050565b6000602082840312156122d2576122d161225a565b5b60006122e0848285016122a7565b91505092915050565b60008115159050919050565b6122fe816122e9565b82525050565b600060208201905061231960008301846122f5565b92915050565b600081519050919050565b600082825260208201905092915050565b60005b8381101561235957808201518184015260208101905061233e565b60008484015250505050565b6000601f19601f8301169050919050565b60006123818261231f565b61238b818561232a565b935061239b81856020860161233b565b6123a481612365565b840191505092915050565b600060208201905081810360008301526123c98184612376565b905092915050565b6000819050919050565b6123e4816123d1565b81146123ef57600080fd5b50565b600081359050612401816123db565b92915050565b60006020828403121561241d5761241c61225a565b5b600061242b848285016123f2565b91505092915050565b600073ffffffffffffffffffffffffffffffffffffffff82169050919050565b600061245f82612434565b9050919050565b61246f81612454565b82525050565b600060208201905061248a6000830184612466565b92915050565b61249981612454565b81146124a457600080fd5b50565b6000813590506124b681612490565b92915050565b600080604083850312156124d3576124d261225a565b5b60006124e1858286016124a7565b92505060206124f2858286016123f2565b9150509250929050565b6000806000606084860312156125155761251461225a565b5b6000612523868287016124a7565b9350506020612534868287016124a7565b9250506040612545868287016123f2565b9150509250925092565b600080fd5b600080fd5b7f4e487b7100000000000000000000000000000000000000000000000000000000600052604160045260246000fd5b61259182612365565b810181811067ffffffffffffffff821117156125b0576125af612559565b5b80604052505050565b60006125c3612250565b90506125cf8282612588565b919050565b600067ffffffffffffffff8211156125ef576125ee612559565b5b6125f882612365565b9050602081019050919050565b82818337600083830152505050565b6000612627612622846125d4565b6125b9565b90508281526020810184848401111561264357612642612554565b5b61264e848285612605565b509392505050565b600082601f83011261266b5761266a61254f565b5b813561267b848260208601612614565b91505092915050565b600080600080600080600060e0888a0312156126a3576126a261225a565b5b60006126b18a828b016124a7565b975050602088013567ffffffffffffffff8111156126d2576126d161225f565b5b6126de8a828b01612656565b965050604088013567ffffffffffffffff8111156126ff576126fe61225f565b5b61270b8a828b01612656565b955050606088013567ffffffffffffffff81111561272c5761272b61225f565b5b6127388a828b01612656565b94505060806127498a828b016123f2565b93505060a061275a8a828b016123f2565b92505060c061276b8a828b016123f2565b91505092959891949750929550565b612783816123d1565b82525050565b600060208201905061279e600083018461277a565b92915050565b6000602082840312156127ba576127b961225a565b5b600082013567ffffffffffffffff8111156127d8576127d761225f565b5b6127e484828501612656565b91505092915050565b600060a08201905081810360008301526128078188612376565b9050818103602083015261281b8187612376565b905061282a604083018661277a565b612837606083018561277a565b612844608083018461277a565b9695505050505050565b6000602082840312156128645761286361225a565b5b6000612872848285016124a7565b91505092915050565b612884816122e9565b811461288f57600080fd5b50565b6000813590506128a18161287b565b92915050565b600080604083850312156128be576128bd61225a565b5b60006128cc858286016124a7565b92505060206128dd85828601612892565b9150509250929050565b600060c08201905081810360008301526129018189612376565b905081810360208301526129158188612376565b9050612924604083018761277a565b612931606083018661277a565b61293e608083018561277a565b61294b60a0830184612466565b979650505050505050565b600067ffffffffffffffff82111561297157612970612559565b5b61297a82612365565b9050602081019050919050565b600061299a61299584612956565b6125b9565b9050828152602081018484840111156129b6576129b5612554565b5b6129c1848285612605565b509392505050565b600082601f8301126129de576129dd61254f565b5b81356129ee848260208601612987565b91505092915050565b60008060008060808587031215612a1157612a1061225a565b5b6000612a1f878288016124a7565b9450506020612a30878288016124a7565b9350506040612a41878288016123f2565b925050606085013567ffffffffffffffff811115612a6257612a6161225f565b5b612a6e878288016129c9565b91505092959194509250565b60008060408385031215612a9157612a9061225a565b5b6000612a9f858286016124a7565b9250506020612ab0858286016124a7565b9150509250929050565b7f4e487b7100000000000000000000000000000000000000000000000000000000600052602260045260246000fd5b60006002820490506001821680612b0157607f821691505b602082108103612b1457612b13612aba565b5b50919050565b6000606082019050612b2f6000830186612466565b612b3c602083018561277a565b612b496040830184612466565b949350505050565b60008190508160005260206000209050919050565b60006020601f8301049050919050565b600082821b905092915050565b600060088302612bb37fffffffffffffffffffffffffffffffffffffffffffffffffffffffffffffffff82612b76565b612bbd8683612b76565b95508019841693508086168417925050509392505050565b6000819050919050565b6000612bfa612bf5612bf0846123d1565b612bd5565b6123d1565b9050919050565b6000819050919050565b612c1483612bdf565b612c28612c2082612c01565b848454612b83565b825550505050565b600090565b612c3d612c30565b612c48818484612c0b565b505050565b5b81811015612c6c57612c61600082612c35565b600181019050612c4e565b5050565b601f821115612cb157612c8281612b51565b612c8b84612b66565b81016020851015612c9a578190505b612cae612ca685612b66565b830182612c4d565b50505b505050565b600082821c905092915050565b6000612cd460001984600802612cb6565b1980831691505092915050565b6000612ced8383612cc3565b9150826002028217905092915050565b612d068261231f565b67ffffffffffffffff811115612d1f57612d1e612559565b5b612d298254612ae9565b612d34828285612c70565b600060209050601f831160018114612d675760008415612d55578287015190505b612d5f8582612ce1565b865550612dc7565b601f198416612d7586612b51565b60005b82811015612d9d57848901518255600182019150602085019450602081019050612d78565b86831015612dba5784890151612db6601f891682612cc3565b8355505b6001600288020188555050505b505050505050565b6000819050919050565b6000612df4612def612dea84612dcf565b612bd5565b6123d1565b9050919050565b612e0481612dd9565b82525050565b6000606082019050612e1f600083018661277a565b612e2c6020830185612466565b612e396040830184612dfb565b949350505050565b7f4952654343657274696669636174653a2063616c6c6572206973206e6f74206f60008201527f776e6572206e6f7220617070726f766564000000000000000000000000000000602082015250565b6000612e9d60318361232a565b9150612ea882612e41565b604082019050919050565b60006020820190508181036000830152612ecc81612e90565b9050919050565b6000606082019050612ee8600083018661277a565b612ef56020830185612466565b612f02604083018461277a565b949350505050565b7f436572746966696361746520646f6573206e6f74206578697374000000000000600082015250565b6000612f40601a8361232a565b9150612f4b82612f0a565b602082019050919050565b60006020820190508181036000830152612f6f81612f33565b9050919050565b600081905092915050565b6000612f8c8261231f565b612f968185612f76565b9350612fa681856020860161233b565b80840191505092915050565b6000612fbe8285612f81565b9150612fca8284612f81565b91508190509392505050565b600081519050919050565b600082825260208201905092915050565b6000612ffd82612fd6565b6130078185612fe1565b935061301781856020860161233b565b61302081612365565b840191505092915050565b60006080820190506130406000830187612466565b61304d6020830186612466565b61305a604083018561277a565b818103606083015261306c8184612ff2565b905095945050505050565b60008151905061308681612290565b92915050565b6000602082840312156130a2576130a161225a565b5b60006130b084828501613077565b91505092915050565b60006040820190506130ce6000830185612466565b6130db602083018461277a565b9392505050565b7f4e487b7100000000000000000000000000000000000000000000000000000000600052601260045260246000fdfea264697066735822122050678d96c80e81300adf916c893531235198d481b22ecc01813f832a5cc35b6864736f6c634300081c0033",
  "linkReferences": {},
  "deployedLinkReferences": {}
}