{
  "_format": "hh-sol-artifact-1",
  "contractName": "IReCCertificate",
  "sourceName": "contracts/IReCCertificate.sol",
  "abi": [
    {
      "inputs": [
        {
          "internalType": "string",
          "name": "name",
          "type": "string"
        },
        {
          "internalType": "string",
          "name": "symbol",
          "type": "string"
        },
        {
          "internalType": "string",
          "name": "initialBaseURI",
          "type": "string"
        }
      ],
      "stateMutability": "nonpayable",
      "type": "constructor"
    },
    {
      "inputs": [
        {
          "internalType": "address",
          "name": "sender",
          "type": "address"
        },
        {
          "internalType": "uint256",
          "name": "tokenId",
          "type": "uint256"
        },
        {
          "internalType": "address",
          "name": "owner",
          "type": "address"
        }
      ],
      "name": "ERC721IncorrectOwner",
      "type": "error"
    },
    {
      "inputs": [
        {
          "internalType": "address",
          "name": "operator",
          "type": "address"
        },
        {
          "internalType": "uint256",
          "name": "tokenId",
          "type": "uint256"
        }
      ],
      "name": "ERC721InsufficientApproval",
      "type": "error"
    },
    {
      "inputs": [
        {
          "internalType": "address",
          "name": "approver",
          "type": "address"
        }
      ],
      "name": "ERC721InvalidApprover",
      "type": "error"
    },
    {
      "inputs": [
        {
          "internalType": "address",
          "name": "operator",
          "type": "address"
        }
      ],
      "name": "ERC721InvalidOperator",
      "type": "error"
    },
    {
      "inputs": [
        {
          "internalType": "address",
          "name": "owner",
          "type": "address"
        }
      ],
      "name": "ERC721InvalidOwner",
      "type": "error"
    },
    {
      "inputs": [
        {
          "internalType": "address",
          "name": "receiver",
          "type": "address"
        }
      ],
      "name": "ERC721InvalidReceiver",
      "type": "error"
    },
    {
      "inputs": [
        {
          "internalType": "address",
          "name": "sender",
          "type": "address"
        }
      ],
      "name": "ERC721InvalidSender",
      "type": "error"
    },
    {
      "inputs": [
        {
          "internalType": "uint256",
          "name": "tokenId",
          "type": "uint256"
        }
      ],
      "name": "ERC721NonexistentToken",
      "type": "error"
    },
    {
      "inputs": [
        {
          "internalType": "address",
          "name": "owner",
          "type": "address"
        }
      ],
      "name": "OwnableInvalidOwner",
      "type": "error"
    },
    {
      "inputs": [
        {
          "internalType": "address",
          "name": "account",
          "type": "address"
        }
      ],
      "name": "OwnableUnauthorizedAccount",
      "type": "error"
    },
    {
      "anonymous": false,
      "inputs": [
        {
          "indexed": true,
          "internalType": "address",
          "name": "owner",
          "type": "address"
        },
        {
          "indexed": true,
          "internalType": "address",
          "name": "approved",
          "type": "address"
        },
        {
          "indexed": true,
          "internalType": "uint256",
          "name": "tokenId",
          "type": "uint256"
        }
      ],
      "name": "Approval",
      "type": "event"
    },
    {
      "anonymous": false,
      "inputs": [
        {
          "indexed": true,
          "internalType": "address",
          "name": "owner",
          "type": "address"
        },
        {
          "indexed": true,
          "internalType": "address",
          "name": "operator",
          "type": "address"
        },
        {
          "indexed": false,
          "internalType": "bool",
          "name": "approved",
          "type": "bool"
        }
      ],
      "name": "ApprovalForAll",
      "type": "event"
    },
    {
      "anonymous": false,
      "inputs": [
        {
          "indexed": false,
          "internalType": "uint256",
          "name": "_fromTokenId",
          "type": "uint256"
        },
        {
          "indexed": false,
          "internalType": "uint256",
          "name": "_toTokenId",
          "type": "uint256"
        }
      ],
      "name": "BatchMetadataUpdate",
      "type": "event"
    },
    {
      "anonymous": false,
      "inputs": [
        {
          "indexed": false,
          "internalType": "uint256",
          "name": "tokenId",
          "type": "uint256"
        },
        {
          "indexed": false,
          "internalType": "address",
          "name": "burner",
          "type": "address"
        },
        {
          "indexed": false,
          "internalType": "uint256",
          "name": "energyAmount",
          "type": "uint256"
        }
      ],
      "name": "CertificateBurned",
      "type": "event"
    },
    {
      "anonymous": false,
      "inputs": [
        {
          "indexed": false,
          "internalType": "uint256",
          "name": "tokenId",
          "type": "uint256"
        }
      ],
      "name": "CertificateDetailsUpdated",
      "type": "event"
    },
    {
      "anonymous": false,
      "inputs": [
        {
          "indexed": false,
          "internalType": "uint256",
          "name": "tokenId",
          "type": "uint256"
        },
        {
          "indexed": false,
          "internalType": "address",
          "name": "owner",
          "type": "address"
        },
        {
          "indexed": false,
          "internalType": "uint256",
          "name": "energyAmount",
          "type": "uint256"
        }
      ],
      "name": "CertificateMinted",
      "type": "event"
    },
    {
      "anonymous": false,
      "inputs": [
        {
          "indexed": false,
          "internalType": "uint256",
          "name": "_tokenId",
          "type": "uint256"
        }
      ],
      "name": "MetadataUpdate",
      "type": "event"
    },
    {
      "anonymous": false,
      "inputs": [
        {
          "indexed": true,
          "internalType": "address",
          "name": "previousOwner",
          "type": "address"
        },
        {
          "indexed": true,
          "internalType": "address",
          "name": "newOwner",
          "type": "address"
        }
      ],
      "name": "OwnershipTransferred",
      "type": "event"
    },
    {
      "anonymous": false,
      "inputs": [
        {
          "indexed": true,
          "internalType": "address",
          "name": "from",
          "type": "address"
        },
        {
          "indexed": true,
          "internalType": "address",
          "name": "to",
          "type": "address"
        },
        {
          "indexed": true,
          "internalType": "uint256",
          "name": "tokenId",
          "type": "uint256"
        }
      ],
      "name": "Transfer",
      "type": "event"
    },
    {
      "inputs": [
        {
          "internalType": "address",
          "name": "to",
          "type": "address"
        },
        {
          "internalType": "uint256",
          "name": "tokenId",
          "type": "uint256"
        }
      ],
      "name": "approve",
      "outputs": [],
      "stateMutability": "nonpayable",
      "type": "function"
    },
    {
      "inputs": [
        {
          "internalType": "address",
          "name": "owner",
          "type": "address"
        }
      ],
      "name": "balanceOf",
      "outputs": [
        {
          "internalType": "uint256",
          "name": "",
          "type": "uint256"
        }
      ],
      "stateMutability": "view",
      "type": "function"
    },
    {
      "inputs": [
        {
          "internalType": "uint256",
          "name": "tokenId",
          "type": "uint256"
        }
      ],
      "name": "burnCertificate",
      "outputs": [],
      "stateMutability": "nonpayable",
      "type": "function"
    },
    {
      "inputs": [
        {
          "internalType": "uint256",
          "name": "",
          "type": "uint256"
        }
      ],
      "name": "certificates",
      "outputs": [
        {
          "internalType": "string",
          "name": "facilityName",
          "type": "string"
        },
        {
          "internalType": "string",
          "name": "energySource",
          "type": "string"
        },
        {
          "internalType": "uint256",
          "name": "productionDate",
          "type": "uint256"
        },
        {
          "internalType": "uint256",
          "name": "expiryDate",
          "type": "uint256"
        },
        {
          "internalType": "uint256",
          "name": "energyAmount",
          "type": "uint256"
        }
      ],
      "stateMutability": "view",
      "type": "function"
    },
    {
      "inputs": [
        {
          "internalType": "uint256",
          "name": "tokenId",
          "type": "uint256"
        }
      ],
      "name": "getApproved",
      "outputs": [
        {
          "internalType": "address",
          "name": "",
          "type": "address"
        }
      ],
      "stateMutability": "view",
      "type": "function"
    },
    {
      "inputs": [
        {
          "internalType": "uint256",
          "name": "tokenId",
          "type": "uint256"
        }
      ],
      "name": "getCertificateDetails",
      "outputs": [
        {
          "internalType": "string",
          "name": "facilityName",
          "type": "string"
        },
        {
          "internalType": "string",
          "name": "energySource",
          "type": "string"
        },
        {
          "internalType": "uint256",
          "name": "productionDate",
          "type": "uint256"
        },
        {
          "internalType": "uint256",
          "name": "expiryDate",
          "type": "uint256"
        },
        {
          "internalType": "uint256",
          "name": "energyAmount",
          "type": "uint256"
        },
        {
          "internalType": "address",
          "name": "owner",
          "type": "address"
        }
      ],
      "stateMutability": "view",
      "type": "function"
    },
    {
      "inputs": [
        {
          "internalType": "address",
          "name": "owner",
          "type": "address"
        },
        {
          "internalType": "address",
          "name": "operator",
          "type": "address"
        }
      ],
      "name": "isApprovedForAll",
      "outputs": [
        {
          "internalType": "bool",
          "name": "",
          "type": "bool"
        }
      ],
      "stateMutability": "view",
      "type": "function"
    },
    {
      "inputs": [
        {
          "internalType": "address",
          "name": "recipient",
          "type": "address"
        },
        {
          "internalType": "string",
          "name": "baseURI",
          "type": "string"
        },
        {
          "internalType": "string",
          "name": "facilityName",
          "type": "string"
        },
        {
          "internalType": "string",
          "name": "energySource",
          "type": "string"
        },
        {
          "internalType": "uint256",
          "name": "productionDate",
          "type": "uint256"
        },
        {
          "internalType": "uint256",
          "name": "expiryDate",
          "type": "uint256"
        },
        {
          "internalType": "uint256",
          "name": "newItemId",
          "type": "uint256"
        }
      ],
      "name": "mintCertificate",
      "outputs": [
        {
          "internalType": "uint256",
          "name": "",
          "type": "uint256"
        }
      ],
      "stateMutability": "nonpayable",
      "type": "function"
    },
    {
      "inputs": [],
      "name": "name",
      "outputs": [
        {
          "internalType": "string",
          "name": "",
          "type": "string"
        }
      ],
      "stateMutability": "view",
      "type": "function"
    },
    {
      "inputs": [],
      "name": "owner",
      "outputs": [
        {
          "internalType": "address",
          "name": "",
          "type": "address"
        }
      ],
      "stateMutability": "view",
      "type": "function"
    },
    {
      "inputs": [
        {
          "internalType": "uint256",
          "name": "tokenId",
          "type": "uint256"
        }
      ],
      "name": "ownerOf",
      "outputs": [
        {
          "internalType": "address",
          "name": "",
          "type": "address"
        }
      ],
      "stateMutability": "view",
      "type": "function"
    },
    {
      "inputs": [],
      "name": "renounceOwnership",
      "outputs": [],
      "stateMutability": "nonpayable",
      "type": "function"
    },
    {
      "inputs": [
        {
          "internalType": "address",
          "name": "from",
          "type": "address"
        },
        {
          "internalType": "address",
          "name": "to",
          "type": "address"
        },
        {
          "internalType": "uint256",
          "name": "tokenId",
          "type": "uint256"
        }
      ],
      "name": "safeTransferFrom",
      "outputs": [],
      "stateMutability": "nonpayable",
      "type": "function"
    },
    {
      "inputs": [
        {
          "internalType": "address",
          "name": "from",
          "type": "address"
        },
        {
          "internalType": "address",
          "name": "to",
          "type": "address"
        },
        {
          "internalType": "uint256",
          "name": "tokenId",
          "type": "uint256"
        },
        {
          "internalType": "bytes",
          "name": "data",
          "type": "bytes"
        }
      ],
      "name": "safeTransferFrom",
      "outputs": [],
      "stateMutability": "nonpayable",
      "type": "function"
    },
    {
      "inputs": [
        {
          "internalType": "address",
          "name": "operator",
          "type": "address"
        },
        {
          "internalType": "bool",
          "name": "approved",
          "type": "bool"
        }
      ],
      "name": "setApprovalForAll",
      "outputs": [],
      "stateMutability": "nonpayable",
      "type": "function"
    },
    {
      "inputs": [
        {
          "internalType": "string",
          "name": "newBaseURI",
          "type": "string"
        }
      ],
      "name": "setBaseURI",
      "outputs": [],
      "stateMutability": "nonpayable",
      "type": "function"
    },
    {
      "inputs": [
        {
          "internalType": "bytes4",
          "name": "interfaceId",
          "type": "bytes4"
        }
      ],
      "name": "supportsInterface",
      "outputs": [
        {
          "internalType": "bool",
          "name": "",
          "type": "bool"
        }
      ],
      "stateMutability": "view",
      "type": "function"
    },
    {
      "inputs": [],
      "name": "symbol",
      "outputs": [
        {
          "internalType": "string",
          "name": "",
          "type": "string"
        }
      ],
      "stateMutability": "view",
      "type": "function"
    },
    {
      "inputs": [
        {
          "internalType": "uint256",
          "name": "tokenId",
          "type": "uint256"
        }
      ],
      "name": "tokenURI",
      "outputs": [
        {
          "internalType": "string",
          "name": "",
          "type": "string"
        }
      ],
      "stateMutability": "view",
      "type": "function"
    },
    {
      "inputs": [
        {
          "internalType": "address",
          "name": "from",
          "type": "address"
        },
        {
          "internalType": "address",
          "name": "to",
          "type": "address"
        },
        {
          "internalType": "uint256",
          "name": "tokenId",
          "type": "uint256"
        }
      ],
      "name": "transferFrom",
      "outputs": [],
      "stateMutability": "nonpayable",
      "type": "function"
    },
    {
      "inputs": [
        {
          "internalType": "address",
          "name": "newOwner",
          "type": "address"
        }
      ],
      "name": "transferOwnership",
      "outputs": [],
      "stateMutability": "nonpayable",
      "type": "function"
    }
  ],
  "bytecode": "0x608060405234801561001057600080fd5b506040516138793803806138798339818101604052810190610032919061032c565b338383816000908161004491906105f4565b50806001908161005491906105f4565b505050600073ffffffffffffffffffffffffffffffffffffffff168173ffffffffffffffffffffffffffffffffffffffff16036100c95760006040517f1e4fbdf70000000000000000000000000000000000000000000000000000000081526004016100c09190610707565b60405180910390fd5b6100d8816100f160201b60201c565b5080600a90816100e891906105f4565b50505050610722565b6000600760009054906101000a900473ffffffffffffffffffffffffffffffffffffffff16905081600760006101000a81548173ffffffffffffffffffffffffffffffffffffffff021916908373ffffffffffffffffffffffffffffffffffffffff1602179055508173ffffffffffffffffffffffffffffffffffffffff168173ffffffffffffffffffffffffffffffffffffffff167f8be0079c531659141344cd1fd0a4f28419497f9722a3daafe3b4186f6b6457e060405160405180910390a35050565b6000604051905090565b600080fd5b600080fd5b600080fd5b600080fd5b6000601f19601f8301169050919050565b7f4e487b7100000000000000000000000000000000000000000000000000000000600052604160045260246000fd5b61021e826101d5565b810181811067ffffffffffffffff8211171561023d5761023c6101e6565b5b80604052505050565b60006102506101b7565b905061025c8282610215565b919050565b600067ffffffffffffffff82111561027c5761027b6101e6565b5b610285826101d5565b9050602081019050919050565b60005b838110156102b0578082015181840152602081019050610295565b60008484015250505050565b60006102cf6102ca84610261565b610246565b9050828152602081018484840111156102eb576102ea6101d0565b5b6102f6848285610292565b509392505050565b600082601f830112610313576103126101cb565b5b81516103238482602086016102bc565b91505092915050565b600080600060608486031215610345576103446101c1565b5b600084015167ffffffffffffffff811115610363576103626101c6565b5b61036f868287016102fe565b935050602084015167ffffffffffffffff8111156103905761038f6101c6565b5b61039c868287016102fe565b925050604084015167ffffffffffffffff8111156103bd576103bc6101c6565b5b6103c9868287016102fe565b9150509250925092565b600081519050919050565b7f4e487b7100000000000000000000000000000000000000000000000000000000600052602260045260246000fd5b6000600282049050600182168061042557607f821691505b602082108103610438576104376103de565b5b50919050565b60008190508160005260206000209050919050565b60006020601f8301049050919050565b600082821b905092915050565b6000600883026104a07fffffffffffffffffffffffffffffffffffffffffffffffffffffffffffffffff82610463565b6104aa8683610463565b95508019841693508086168417925050509392505050565b6000819050919050565b6000819050919050565b60006104f16104ec6104e7846104c2565b6104cc565b6104c2565b9050919050565b6000819050919050565b61050b836104d6565b61051f610517826104f8565b848454610470565b825550505050565b600090565b610534610527565b61053f818484610502565b505050565b5b818110156105635761055860008261052c565b600181019050610545565b5050565b601f8211156105a8576105798161043e565b61058284610453565b81016020851015610591578190505b6105a561059d85610453565b830182610544565b50505b505050565b600082821c905092915050565b60006105cb600019846008026105ad565b1980831691505092915050565b60006105e483836105ba565b9150826002028217905092915050565b6105fd826103d3565b67ffffffffffffffff811115610616576106156101e6565b5b610620825461040d565b61062b828285610567565b600060209050601f83116001811461065e576000841561064c578287015190505b61065685826105d8565b8655506106be565b601f19841661066c8661043e565b60005b828110156106945784890151825560018201915060208501945060208101905061066f565b868310156106b157848901516106ad601f8916826105ba565b8355505b6001600288020188555050505b505050505050565b600073ffffffffffffffffffffffffffffffffffffffff82169050919050565b60006106f1826106c6565b9050919050565b610701816106e6565b82525050565b600060208201905061071c60008301846106f8565b92915050565b613148806107316000396000f3fe608060405234801561001057600080fd5b50600436106101375760003560e01c806370a08231116100b8578063a22cb4651161007c578063a22cb46514610350578063a901fe5e1461036c578063b88d4fde146103a1578063c87b56dd146103bd578063e985e9c5146103ed578063f2fde38b1461041d57610137565b806370a08231146102be578063715018a6146102ee5780638da5cb5b146102f857806393b16b451461031657806395d89b411461033257610137565b806342842e0e116100ff57806342842e0e146101f257806342eaa6f41461020e57806355f804b31461023e5780636352211e1461025a578063663b3e221461028a57610137565b806301ffc9a71461013c57806306fdde031461016c578063081812fc1461018a578063095ea7b3146101ba57806323b872dd146101d6575b600080fd5b610156600480360381019061015191906122bd565b610439565b6040516101639190612305565b60405180910390f35b61017461049a565b60405161018191906123b0565b60405180910390f35b6101a4600480360381019061019f9190612408565b61052c565b6040516101b19190612476565b60405180910390f35b6101d460048036038101906101cf91906124bd565b610548565b005b6101f060048036038101906101eb91906124fd565b61055e565b005b61020c600480360381019061020791906124fd565b610660565b005b61022860048036038101906102239190612685565b610680565b604051610235919061278a565b60405180910390f35b610258600480360381019061025391906127a5565b6107c6565b005b610274600480360381019061026f9190612408565b6107e1565b6040516102819190612476565b60405180910390f35b6102a4600480360381019061029f9190612408565b6107f3565b6040516102b59594939291906127ee565b60405180910390f35b6102d860048036038101906102d3919061284f565b610939565b6040516102e5919061278a565b60405180910390f35b6102f66109f3565b005b610300610a07565b60405161030d9190612476565b60405180910390f35b610330600480360381019061032b9190612408565b610a31565b005b61033a610b83565b60405161034791906123b0565b60405180910390f35b61036a600480360381019061036591906128a8565b610c15565b005b61038660048036038101906103819190612408565b610c2b565b604051610398969594939291906128e8565b60405180910390f35b6103bb60048036038101906103b691906129f8565b610e72565b005b6103d760048036038101906103d29190612408565b610e97565b6040516103e491906123b0565b60405180910390f35b61040760048036038101906104029190612a7b565b610faa565b6040516104149190612305565b60405180910390f35b6104376004803603810190610432919061284f565b61103e565b005b6000634906490660e01b7bffffffffffffffffffffffffffffffffffffffffffffffffffffffff1916827bffffffffffffffffffffffffffffffffffffffffffffffffffffffff191614806104935750610492826110c4565b5b9050919050565b6060600080546104a990612aea565b80601f01602080910402602001604051908101604052809291908181526020018280546104d590612aea565b80156105225780601f106104f757610100808354040283529160200191610522565b820191906000526020600020905b81548152906001019060200180831161050557829003601f168201915b5050505050905090565b6000610537826111a6565b506105418261122e565b9050919050565b61055a828261055561126b565b611273565b5050565b600073ffffffffffffffffffffffffffffffffffffffff168273ffffffffffffffffffffffffffffffffffffffff16036105d05760006040517f64a0ae920000000000000000000000000000000000000000000000000000000081526004016105c79190612476565b60405180910390fd5b60006105e483836105df61126b565b611285565b90508373ffffffffffffffffffffffffffffffffffffffff168173ffffffffffffffffffffffffffffffffffffffff161461065a578382826040517f64283d7b00000000000000000000000000000000000000000000000000000000815260040161065193929190612b1b565b60405180910390fd5b50505050565b61067b83838360405180602001604052806000815250610e72565b505050565b600061068a61149f565b6106948883611526565b61069e828861161f565b6040518060a00160405280878152602001868152602001858152602001848152602001620f42408152506008600084815260200190815260200160002060008201518160000190816106f09190612cfe565b5060208201518160010190816107069190612cfe565b50604082015181600201556060820151816003015560808201518160040155905050876009600084815260200190815260200160002060006101000a81548173ffffffffffffffffffffffffffffffffffffffff021916908373ffffffffffffffffffffffffffffffffffffffff1602179055507f4d660303f3cf5c0e9d967870d281fc77f88bb1d50331ac1af95e18cce14ef1f98289620f42406040516107b093929190612e0b565b60405180910390a1819050979650505050505050565b6107ce61149f565b80600a90816107dd9190612cfe565b5050565b60006107ec826111a6565b9050919050565b600860205280600052604060002060009150905080600001805461081690612aea565b80601f016020809104026020016040519081016040528092919081815260200182805461084290612aea565b801561088f5780601f106108645761010080835404028352916020019161088f565b820191906000526020600020905b81548152906001019060200180831161087257829003601f168201915b5050505050908060010180546108a490612aea565b80601f01602080910402602001604051908101604052809291908181526020018280546108d090612aea565b801561091d5780601f106108f25761010080835404028352916020019161091d565b820191906000526020600020905b81548152906001019060200180831161090057829003601f168201915b5050505050908060020154908060030154908060040154905085565b60008073ffffffffffffffffffffffffffffffffffffffff168273ffffffffffffffffffffffffffffffffffffffff16036109ac5760006040517f89c62b640000000000000000000000000000000000000000000000000000000081526004016109a39190612476565b60405180910390fd5b600360008373ffffffffffffffffffffffffffffffffffffffff1673ffffffffffffffffffffffffffffffffffffffff168152602001908152602001600020549050919050565b6109fb61149f565b610a05600061167b565b565b6000600760009054906101000a900473ffffffffffffffffffffffffffffffffffffffff16905090565b6009600082815260200190815260200160002060009054906101000a900473ffffffffffffffffffffffffffffffffffffffff1673ffffffffffffffffffffffffffffffffffffffff163373ffffffffffffffffffffffffffffffffffffffff1614610ad2576040517f08c379a0000000000000000000000000000000000000000000000000000000008152600401610ac990612eb4565b60405180910390fd5b6000600860008381526020019081526020016000206004015490506008600083815260200190815260200160002060008082016000610b1191906121f4565b600182016000610b2191906121f4565b6002820160009055600382016000905560048201600090555050610b4482611741565b7f35f384066bf07b6616bbf730515dc81145006942534dbfaa17eee53f248b532f823383604051610b7793929190612ed4565b60405180910390a15050565b606060018054610b9290612aea565b80601f0160208091040260200160405190810160405280929190818152602001828054610bbe90612aea565b8015610c0b5780601f10610be057610100808354040283529160200191610c0b565b820191906000526020600020905b815481529060010190602001808311610bee57829003601f168201915b5050505050905090565b610c27610c2061126b565b83836117c7565b5050565b606080600080600080600073ffffffffffffffffffffffffffffffffffffffff166009600089815260200190815260200160002060009054906101000a900473ffffffffffffffffffffffffffffffffffffffff1673ffffffffffffffffffffffffffffffffffffffff1603610cd6576040517f08c379a0000000000000000000000000000000000000000000000000000000008152600401610ccd90612f57565b60405180910390fd5b6000600860008981526020019081526020016000206040518060a0016040529081600082018054610d0690612aea565b80601f0160208091040260200160405190810160405280929190818152602001828054610d3290612aea565b8015610d7f5780601f10610d5457610100808354040283529160200191610d7f565b820191906000526020600020905b815481529060010190602001808311610d6257829003601f168201915b50505050508152602001600182018054610d9890612aea565b80601f0160208091040260200160405190810160405280929190818152602001828054610dc490612aea565b8015610e115780601f10610de657610100808354040283529160200191610e11565b820191906000526020600020905b815481529060010190602001808311610df457829003601f168201915b505050505081526020016002820154815260200160038201548152602001600482015481525050905080600001518160200151826040015183606001518460800151610e5c8d6107e1565b9650965096509650965096505091939550919395565b610e7d84848461055e565b610e91610e8861126b565b85858585611936565b50505050565b6060610ea2826111a6565b506000600660008481526020019081526020016000208054610ec390612aea565b80601f0160208091040260200160405190810160405280929190818152602001828054610eef90612aea565b8015610f3c5780601f10610f1157610100808354040283529160200191610f3c565b820191906000526020600020905b815481529060010190602001808311610f1f57829003601f168201915b505050505090506000610f4d611ae7565b90506000815103610f62578192505050610fa5565b600082511115610f97578082604051602001610f7f929190612fb3565b60405160208183030381529060405292505050610fa5565b610fa084611b79565b925050505b919050565b6000600560008473ffffffffffffffffffffffffffffffffffffffff1673ffffffffffffffffffffffffffffffffffffffff16815260200190815260200160002060008373ffffffffffffffffffffffffffffffffffffffff1673ffffffffffffffffffffffffffffffffffffffff16815260200190815260200160002060009054906101000a900460ff16905092915050565b61104661149f565b600073ffffffffffffffffffffffffffffffffffffffff168173ffffffffffffffffffffffffffffffffffffffff16036110b85760006040517f1e4fbdf70000000000000000000000000000000000000000000000000000000081526004016110af9190612476565b60405180910390fd5b6110c18161167b565b50565b60007f80ac58cd000000000000000000000000000000000000000000000000000000007bffffffffffffffffffffffffffffffffffffffffffffffffffffffff1916827bffffffffffffffffffffffffffffffffffffffffffffffffffffffff1916148061118f57507f5b5e139f000000000000000000000000000000000000000000000000000000007bffffffffffffffffffffffffffffffffffffffffffffffffffffffff1916827bffffffffffffffffffffffffffffffffffffffffffffffffffffffff1916145b8061119f575061119e82611be2565b5b9050919050565b6000806111b283611c4c565b9050600073ffffffffffffffffffffffffffffffffffffffff168173ffffffffffffffffffffffffffffffffffffffff160361122557826040517f7e27328900000000000000000000000000000000000000000000000000000000815260040161121c919061278a565b60405180910390fd5b80915050919050565b60006004600083815260200190815260200160002060009054906101000a900473ffffffffffffffffffffffffffffffffffffffff169050919050565b600033905090565b6112808383836001611c89565b505050565b60008061129184611c4c565b9050600073ffffffffffffffffffffffffffffffffffffffff168373ffffffffffffffffffffffffffffffffffffffff16146112d3576112d2818486611e4e565b5b600073ffffffffffffffffffffffffffffffffffffffff168173ffffffffffffffffffffffffffffffffffffffff161461136457611315600085600080611c89565b6001600360008373ffffffffffffffffffffffffffffffffffffffff1673ffffffffffffffffffffffffffffffffffffffff168152602001908152602001600020600082825403925050819055505b600073ffffffffffffffffffffffffffffffffffffffff168573ffffffffffffffffffffffffffffffffffffffff16146113e7576001600360008773ffffffffffffffffffffffffffffffffffffffff1673ffffffffffffffffffffffffffffffffffffffff168152602001908152602001600020600082825401925050819055505b846002600086815260200190815260200160002060006101000a81548173ffffffffffffffffffffffffffffffffffffffff021916908373ffffffffffffffffffffffffffffffffffffffff160217905550838573ffffffffffffffffffffffffffffffffffffffff168273ffffffffffffffffffffffffffffffffffffffff167fddf252ad1be2c89b69c2b068fc378daa952ba7f163c4a11628f55a4df523b3ef60405160405180910390a4809150509392505050565b6114a761126b565b73ffffffffffffffffffffffffffffffffffffffff166114c5610a07565b73ffffffffffffffffffffffffffffffffffffffff1614611524576114e861126b565b6040517f118cdaa700000000000000000000000000000000000000000000000000000000815260040161151b9190612476565b60405180910390fd5b565b600073ffffffffffffffffffffffffffffffffffffffff168273ffffffffffffffffffffffffffffffffffffffff16036115985760006040517f64a0ae9200000000000000000000000000000000000000000000000000000000815260040161158f9190612476565b60405180910390fd5b60006115a683836000611285565b9050600073ffffffffffffffffffffffffffffffffffffffff168173ffffffffffffffffffffffffffffffffffffffff161461161a5760006040517f73c6ac6e0000000000000000000000000000000000000000000000000000000081526004016116119190612476565b60405180910390fd5b505050565b8060066000848152602001908152602001600020908161163f9190612cfe565b507ff8e1a15aba9398e019f0b49df1a4fde98ee17ae345cb5f6b5e2c27f5033e8ce78260405161166f919061278a565b60405180910390a15050565b6000600760009054906101000a900473ffffffffffffffffffffffffffffffffffffffff16905081600760006101000a81548173ffffffffffffffffffffffffffffffffffffffff021916908373ffffffffffffffffffffffffffffffffffffffff1602179055508173ffffffffffffffffffffffffffffffffffffffff168173ffffffffffffffffffffffffffffffffffffffff167f8be0079c531659141344cd1fd0a4f28419497f9722a3daafe3b4186f6b6457e060405160405180910390a35050565b60006117506000836000611285565b9050600073ffffffffffffffffffffffffffffffffffffffff168173ffffffffffffffffffffffffffffffffffffffff16036117c357816040517f7e2732890000000000000000000000000000000000000000000000000000000081526004016117ba919061278a565b60405180910390fd5b5050565b600073ffffffffffffffffffffffffffffffffffffffff168273ffffffffffffffffffffffffffffffffffffffff160361183857816040517f5b08ba1800000000000000000000000000000000000000000000000000000000815260040161182f9190612476565b60405180910390fd5b80600560008573ffffffffffffffffffffffffffffffffffffffff1673ffffffffffffffffffffffffffffffffffffffff16815260200190815260200160002060008473ffffffffffffffffffffffffffffffffffffffff1673ffffffffffffffffffffffffffffffffffffffff16815260200190815260200160002060006101000a81548160ff0219169083151502179055508173ffffffffffffffffffffffffffffffffffffffff168373ffffffffffffffffffffffffffffffffffffffff167f17307eab39ab6107e8899845ad3d59bd9653f200f220920489ca2b5937696c31836040516119299190612305565b60405180910390a3505050565b60008373ffffffffffffffffffffffffffffffffffffffff163b1115611ae0578273ffffffffffffffffffffffffffffffffffffffff1663150b7a02868685856040518563ffffffff1660e01b8152600401611995949392919061302c565b6020604051808303816000875af19250505080156119d157506040513d601f19601f820116820180604052508101906119ce919061308d565b60015b611a55573d8060008114611a01576040519150601f19603f3d011682016040523d82523d6000602084013e611a06565b606091505b506000815103611a4d57836040517f64a0ae92000000000000000000000000000000000000000000000000000000008152600401611a449190612476565b60405180910390fd5b805181602001fd5b63150b7a0260e01b7bffffffffffffffffffffffffffffffffffffffffffffffffffffffff1916817bffffffffffffffffffffffffffffffffffffffffffffffffffffffff191614611ade57836040517f64a0ae92000000000000000000000000000000000000000000000000000000008152600401611ad59190612476565b60405180910390fd5b505b5050505050565b6060600a8054611af690612aea565b80601f0160208091040260200160405190810160405280929190818152602001828054611b2290612aea565b8015611b6f5780601f10611b4457610100808354040283529160200191611b6f565b820191906000526020600020905b815481529060010190602001808311611b5257829003601f168201915b5050505050905090565b6060611b84826111a6565b506000611b8f611ae7565b90506000815111611baf5760405180602001604052806000815250611bda565b80611bb984611f12565b604051602001611bca929190612fb3565b6040516020818303038152906040525b915050919050565b60007f01ffc9a7000000000000000000000000000000000000000000000000000000007bffffffffffffffffffffffffffffffffffffffffffffffffffffffff1916827bffffffffffffffffffffffffffffffffffffffffffffffffffffffff1916149050919050565b60006002600083815260200190815260200160002060009054906101000a900473ffffffffffffffffffffffffffffffffffffffff169050919050565b8080611cc25750600073ffffffffffffffffffffffffffffffffffffffff168273ffffffffffffffffffffffffffffffffffffffff1614155b15611df6576000611cd2846111a6565b9050600073ffffffffffffffffffffffffffffffffffffffff168373ffffffffffffffffffffffffffffffffffffffff1614158015611d3d57508273ffffffffffffffffffffffffffffffffffffffff168173ffffffffffffffffffffffffffffffffffffffff1614155b8015611d505750611d4e8184610faa565b155b15611d9257826040517fa9fbf51f000000000000000000000000000000000000000000000000000000008152600401611d899190612476565b60405180910390fd5b8115611df457838573ffffffffffffffffffffffffffffffffffffffff168273ffffffffffffffffffffffffffffffffffffffff167f8c5be1e5ebec7d5bd14f71427d1e84f3dd0314c0f7b2291e5b200ac8c7c3b92560405160405180910390a45b505b836004600085815260200190815260200160002060006101000a81548173ffffffffffffffffffffffffffffffffffffffff021916908373ffffffffffffffffffffffffffffffffffffffff16021790555050505050565b611e59838383611fe0565b611f0d57600073ffffffffffffffffffffffffffffffffffffffff168373ffffffffffffffffffffffffffffffffffffffff1603611ece57806040517f7e273289000000000000000000000000000000000000000000000000000000008152600401611ec5919061278a565b60405180910390fd5b81816040517f177e802f000000000000000000000000000000000000000000000000000000008152600401611f049291906130ba565b60405180910390fd5b505050565b606060006001611f21846120a1565b01905060008167ffffffffffffffff811115611f4057611f3f61255a565b5b6040519080825280601f01601f191660200182016040528015611f725781602001600182028036833780820191505090505b509050600082602001820190505b600115611fd5578080600190039150507f3031323334353637383961626364656600000000000000000000000000000000600a86061a8153600a8581611fc957611fc86130e3565b5b04945060008503611f80575b819350505050919050565b60008073ffffffffffffffffffffffffffffffffffffffff168373ffffffffffffffffffffffffffffffffffffffff161415801561209857508273ffffffffffffffffffffffffffffffffffffffff168473ffffffffffffffffffffffffffffffffffffffff16148061205957506120588484610faa565b5b8061209757508273ffffffffffffffffffffffffffffffffffffffff1661207f8361122e565b73ffffffffffffffffffffffffffffffffffffffff16145b5b90509392505050565b600080600090507a184f03e93ff9f4daa797ed6e38ed64bf6a1f01000000000000000083106120ff577a184f03e93ff9f4daa797ed6e38ed64bf6a1f01000000000000000083816120f5576120f46130e3565b5b0492506040810190505b6d04ee2d6d415b85acef8100000000831061213c576d04ee2d6d415b85acef81000000008381612132576121316130e3565b5b0492506020810190505b662386f26fc10000831061216b57662386f26fc100008381612161576121606130e3565b5b0492506010810190505b6305f5e1008310612194576305f5e100838161218a576121896130e3565b5b0492506008810190505b61271083106121b95761271083816121af576121ae6130e3565b5b0492506004810190505b606483106121dc57606483816121d2576121d16130e3565b5b0492506002810190505b600a83106121eb576001810190505b80915050919050565b50805461220090612aea565b6000825580601f106122125750612231565b601f0160209004906000526020600020908101906122309190612234565b5b50565b5b8082111561224d576000816000905550600101612235565b5090565b6000604051905090565b600080fd5b600080fd5b60007fffffffff0000000000000000000000000000000000000000000000000000000082169050919050565b61229a81612265565b81146122a557600080fd5b50565b6000813590506122b781612291565b92915050565b6000602082840312156122d3576122d261225b565b5b60006122e1848285016122a8565b91505092915050565b60008115159050919050565b6122ff816122ea565b82525050565b600060208201905061231a60008301846122f6565b92915050565b600081519050919050565b600082825260208201905092915050565b60005b8381101561235a57808201518184015260208101905061233f565b60008484015250505050565b6000601f19601f8301169050919050565b600061238282612320565b61238c818561232b565b935061239c81856020860161233c565b6123a581612366565b840191505092915050565b600060208201905081810360008301526123ca8184612377565b905092915050565b6000819050919050565b6123e5816123d2565b81146123f057600080fd5b50565b600081359050612402816123dc565b92915050565b60006020828403121561241e5761241d61225b565b5b600061242c848285016123f3565b91505092915050565b600073ffffffffffffffffffffffffffffffffffffffff82169050919050565b600061246082612435565b9050919050565b61247081612455565b82525050565b600060208201905061248b6000830184612467565b92915050565b61249a81612455565b81146124a557600080fd5b50565b6000813590506124b781612491565b92915050565b600080604083850312156124d4576124d361225b565b5b60006124e2858286016124a8565b92505060206124f3858286016123f3565b9150509250929050565b6000806000606084860312156125165761251561225b565b5b6000612524868287016124a8565b9350506020612535868287016124a8565b9250506040612546868287016123f3565b9150509250925092565b600080fd5b600080fd5b7f4e487b7100000000000000000000000000000000000000000000000000000000600052604160045260246000fd5b61259282612366565b810181811067ffffffffffffffff821117156125b1576125b061255a565b5b80604052505050565b60006125c4612251565b90506125d08282612589565b919050565b600067ffffffffffffffff8211156125f0576125ef61255a565b5b6125f982612366565b9050602081019050919050565b82818337600083830152505050565b6000612628612623846125d5565b6125ba565b90508281526020810184848401111561264457612643612555565b5b61264f848285612606565b509392505050565b600082601f83011261266c5761266b612550565b5b813561267c848260208601612615565b91505092915050565b600080600080600080600060e0888a0312156126a4576126a361225b565b5b60006126b28a828b016124a8565b975050602088013567ffffffffffffffff8111156126d3576126d2612260565b5b6126df8a828b01612657565b965050604088013567ffffffffffffffff811115612700576126ff612260565b5b61270c8a828b01612657565b955050606088013567ffffffffffffffff81111561272d5761272c612260565b5b6127398a828b01612657565b945050608061274a8a828b016123f3565b93505060a061275b8a828b016123f3565b92505060c061276c8a828b016123f3565b91505092959891949750929550565b612784816123d2565b82525050565b600060208201905061279f600083018461277b565b92915050565b6000602082840312156127bb576127ba61225b565b5b600082013567ffffffffffffffff8111156127d9576127d8612260565b5b6127e584828501612657565b91505092915050565b600060a08201905081810360008301526128088188612377565b9050818103602083015261281c8187612377565b905061282b604083018661277b565b612838606083018561277b565b612845608083018461277b565b9695505050505050565b6000602082840312156128655761286461225b565b5b6000612873848285016124a8565b91505092915050565b612885816122ea565b811461289057600080fd5b50565b6000813590506128a28161287c565b92915050565b600080604083850312156128bf576128be61225b565b5b60006128cd858286016124a8565b92505060206128de85828601612893565b9150509250929050565b600060c08201905081810360008301526129028189612377565b905081810360208301526129168188612377565b9050612925604083018761277b565b612932606083018661277b565b61293f608083018561277b565b61294c60a0830184612467565b979650505050505050565b600067ffffffffffffffff8211156129725761297161255a565b5b61297b82612366565b9050602081019050919050565b600061299b61299684612957565b6125ba565b9050828152602081018484840111156129b7576129b6612555565b5b6129c2848285612606565b509392505050565b600082601f8301126129df576129de612550565b5b81356129ef848260208601612988565b91505092915050565b60008060008060808587031215612a1257612a1161225b565b5b6000612a20878288016124a8565b9450506020612a31878288016124a8565b9350506040612a42878288016123f3565b925050606085013567ffffffffffffffff811115612a6357612a62612260565b5b612a6f878288016129ca565b91505092959194509250565b60008060408385031215612a9257612a9161225b565b5b6000612aa0858286016124a8565b9250506020612ab1858286016124a8565b9150509250929050565b7f4e487b7100000000000000000000000000000000000000000000000000000000600052602260045260246000fd5b60006002820490506001821680612b0257607f821691505b602082108103612b1557612b14612abb565b5b50919050565b6000606082019050612b306000830186612467565b612b3d602083018561277b565b612b4a6040830184612467565b949350505050565b60008190508160005260206000209050919050565b60006020601f8301049050919050565b600082821b905092915050565b600060088302612bb47fffffffffffffffffffffffffffffffffffffffffffffffffffffffffffffffff82612b77565b612bbe8683612b77565b95508019841693508086168417925050509392505050565b6000819050919050565b6000612bfb612bf6612bf1846123d2565b612bd6565b6123d2565b9050919050565b6000819050919050565b612c1583612be0565b612c29612c2182612c02565b848454612b84565b825550505050565b600090565b612c3e612c31565b612c49818484612c0c565b505050565b5b81811015612c6d57612c62600082612c36565b600181019050612c4f565b5050565b601f821115612cb257612c8381612b52565b612c8c84612b67565b81016020851015612c9b578190505b612caf612ca785612b67565b830182612c4e565b50505b505050565b600082821c905092915050565b6000612cd560001984600802612cb7565b1980831691505092915050565b6000612cee8383612cc4565b9150826002028217905092915050565b612d0782612320565b67ffffffffffffffff811115612d2057612d1f61255a565b5b612d2a8254612aea565b612d35828285612c71565b600060209050601f831160018114612d685760008415612d56578287015190505b612d608582612ce2565b865550612dc8565b601f198416612d7686612b52565b60005b82811015612d9e57848901518255600182019150602085019450602081019050612d79565b86831015612dbb5784890151612db7601f891682612cc4565b8355505b6001600288020188555050505b505050505050565b6000819050919050565b6000612df5612df0612deb84612dd0565b612bd6565b6123d2565b9050919050565b612e0581612dda565b82525050565b6000606082019050612e20600083018661277b565b612e2d6020830185612467565b612e3a6040830184612dfc565b949350505050565b7f4952654343657274696669636174653a2063616c6c6572206973206e6f74206f60008201527f776e6572206e6f7220617070726f766564000000000000000000000000000000602082015250565b6000612e9e60318361232b565b9150612ea982612e42565b604082019050919050565b60006020820190508181036000830152612ecd81612e91565b9050919050565b6000606082019050612ee9600083018661277b565b612ef66020830185612467565b612f03604083018461277b565b949350505050565b7f436572746966696361746520646f6573206e6f74206578697374000000000000600082015250565b6000612f41601a8361232b565b9150612f4c82612f0b565b602082019050919050565b60006020820190508181036000830152612f7081612f34565b9050919050565b600081905092915050565b6000612f8d82612320565b612f978185612f77565b9350612fa781856020860161233c565b80840191505092915050565b6000612fbf8285612f82565b9150612fcb8284612f82565b91508190509392505050565b600081519050919050565b600082825260208201905092915050565b6000612ffe82612fd7565b6130088185612fe2565b935061301881856020860161233c565b61302181612366565b840191505092915050565b60006080820190506130416000830187612467565b61304e6020830186612467565b61305b604083018561277b565b818103606083015261306d8184612ff3565b905095945050505050565b60008151905061308781612291565b92915050565b6000602082840312156130a3576130a261225b565b5b60006130b184828501613078565b91505092915050565b60006040820190506130cf6000830185612467565b6130dc602083018461277b565b9392505050565b7f4e487b7100000000000000000000000000000000000000000000000000000000600052601260045260246000fdfea26469706673582212208f8249af9b29b6b8eb9045e19389014a879a7250f6d3121886782c5e811fb3f364736f6c634300081c0033",
  "linkReferences": {},
  "deployedLinkReferences": {}
}