{
  "_format": "hh-sol-artifact-1",
  "contractName": "Marketplace",
  "sourceName": "contracts/Marketplace.sol",
  "abi": [
    {
      "inputs": [
        {
          "internalType": "address",
          "name": "initialOwner",
          "type": "address"
        }
      ],
      "stateMutability": "nonpayable",
      "type": "constructor"
    },
    {
      "inputs": [
        {
          "internalType": "address",
          "name": "owner",
          "type": "address"
        }
      ],
      "name": "OwnableInvalidOwner",
      "type": "error"
    },
    {
      "inputs": [
        {
          "internalType": "address",
          "name": "account",
          "type": "address"
        }
      ],
      "name": "OwnableUnauthorizedAccount",
      "type": "error"
    },
    {
      "inputs": [],
      "name": "ReentrancyGuardReentrantCall",
      "type": "error"
    },
    {
      "anonymous": false,
      "inputs": [
        {
          "indexed": true,
          "internalType": "address",
          "name": "token",
          "type": "address"
        },
        {
          "indexed": true,
          "internalType": "address",
          "name": "seller",
          "type": "address"
        },
        {
          "indexed": false,
          "internalType": "uint256",
          "name": "amount",
          "type": "uint256"
        },
        {
          "indexed": false,
          "internalType": "uint256",
          "name": "pricePerToken",
          "type": "uint256"
        }
      ],
      "name": "Listed",
      "type": "event"
    },
    {
      "anonymous": false,
      "inputs": [
        {
          "indexed": true,
          "internalType": "address",
          "name": "token",
          "type": "address"
        },
        {
          "indexed": true,
          "internalType": "address",
          "name": "seller",
          "type": "address"
        }
      ],
      "name": "ListingCancelled",
      "type": "event"
    },
    {
      "anonymous": false,
      "inputs": [
        {
          "indexed": true,
          "internalType": "address",
          "name": "previousOwner",
          "type": "address"
        },
        {
          "indexed": true,
          "internalType": "address",
          "name": "newOwner",
          "type": "address"
        }
      ],
      "name": "OwnershipTransferred",
      "type": "event"
    },
    {
      "anonymous": false,
      "inputs": [
        {
          "indexed": true,
          "internalType": "address",
          "name": "token",
          "type": "address"
        },
        {
          "indexed": true,
          "internalType": "address",
          "name": "buyer",
          "type": "address"
        },
        {
          "indexed": false,
          "internalType": "uint256",
          "name": "amount",
          "type": "uint256"
        },
        {
          "indexed": false,
          "internalType": "uint256",
          "name": "totalCost",
          "type": "uint256"
        }
      ],
      "name": "Purchased",
      "type": "event"
    },
    {
      "anonymous": false,
      "inputs": [
        {
          "indexed": true,
          "internalType": "address",
          "name": "seller",
          "type": "address"
        },
        {
          "indexed": false,
          "internalType": "uint256",
          "name": "amount",
          "type": "uint256"
        }
      ],
      "name": "Withdrawn",
      "type": "event"
    },
    {
      "inputs": [
        {
          "internalType": "address",
          "name": "tokenAddress",
          "type": "address"
        },
        {
          "internalType": "address",
          "name": "seller",
          "type": "address"
        },
        {
          "internalType": "uint256",
          "name": "amountToBuy",
          "type": "uint256"
        }
      ],
      "name": "buyTokens",
      "outputs": [],
      "stateMutability": "payable",
      "type": "function"
    },
    {
      "inputs": [
        {
          "internalType": "address",
          "name": "tokenAddress",
          "type": "address"
        }
      ],
      "name": "cancelListing",
      "outputs": [],
      "stateMutability": "nonpayable",
      "type": "function"
    },
    {
      "inputs": [
        {
          "internalType": "address",
          "name": "tokenAddress",
          "type": "address"
        },
        {
          "internalType": "address",
          "name": "seller",
          "type": "address"
        }
      ],
      "name": "getListing",
      "outputs": [
        {
          "internalType": "address",
          "name": "sellerAddress",
          "type": "address"
        },
        {
          "internalType": "uint256",
          "name": "pricePerToken",
          "type": "uint256"
        },
        {
          "internalType": "uint256",
          "name": "amountAvailable",
          "type": "uint256"
        }
      ],
      "stateMutability": "view",
      "type": "function"
    },
    {
      "inputs": [
        {
          "internalType": "address",
          "name": "tokenAddress",
          "type": "address"
        },
        {
          "internalType": "uint256",
          "name": "amount",
          "type": "uint256"
        },
        {
          "internalType": "uint256",
          "name": "pricePerToken",
          "type": "uint256"
        }
      ],
      "name": "listTokens",
      "outputs": [],
      "stateMutability": "nonpayable",
      "type": "function"
    },
    {
      "inputs": [
        {
          "internalType": "address",
          "name": "",
          "type": "address"
        },
        {
          "internalType": "address",
          "name": "",
          "type": "address"
        }
      ],
      "name": "listings",
      "outputs": [
        {
          "internalType": "address",
          "name": "seller",
          "type": "address"
        },
        {
          "internalType": "uint256",
          "name": "pricePerToken",
          "type": "uint256"
        },
        {
          "internalType": "uint256",
          "name": "amountAvailable",
          "type": "uint256"
        }
      ],
      "stateMutability": "view",
      "type": "function"
    },
    {
      "inputs": [],
      "name": "owner",
      "outputs": [
        {
          "internalType": "address",
          "name": "",
          "type": "address"
        }
      ],
      "stateMutability": "view",
      "type": "function"
    },
    {
      "inputs": [],
      "name": "renounceOwnership",
      "outputs": [],
      "stateMutability": "nonpayable",
      "type": "function"
    },
    {
      "inputs": [
        {
          "internalType": "address",
          "name": "newOwner",
          "type": "address"
        }
      ],
      "name": "transferOwnership",
      "outputs": [],
      "stateMutability": "nonpayable",
      "type": "function"
    }
  ],
  "bytecode": "0x608060405234801561001057600080fd5b506040516117b83803806117b8833981810160405281019061003291906101e9565b80600073ffffffffffffffffffffffffffffffffffffffff168173ffffffffffffffffffffffffffffffffffffffff16036100a55760006040517f1e4fbdf700000000000000000000000000000000000000000000000000000000815260040161009c9190610225565b60405180910390fd5b6100b4816100c260201b60201c565b506001808190555050610240565b60008060009054906101000a900473ffffffffffffffffffffffffffffffffffffffff169050816000806101000a81548173ffffffffffffffffffffffffffffffffffffffff021916908373ffffffffffffffffffffffffffffffffffffffff1602179055508173ffffffffffffffffffffffffffffffffffffffff168173ffffffffffffffffffffffffffffffffffffffff167f8be0079c531659141344cd1fd0a4f28419497f9722a3daafe3b4186f6b6457e060405160405180910390a35050565b600080fd5b600073ffffffffffffffffffffffffffffffffffffffff82169050919050565b60006101b68261018b565b9050919050565b6101c6816101ab565b81146101d157600080fd5b50565b6000815190506101e3816101bd565b92915050565b6000602082840312156101ff576101fe610186565b5b600061020d848285016101d4565b91505092915050565b61021f816101ab565b82525050565b600060208201905061023a6000830184610216565b92915050565b6115698061024f6000396000f3fe60806040526004361061007b5760003560e01c8063db931fcd1161004e578063db931fcd1461012a578063dcefa53814610169578063f2fde38b14610185578063fa982ad1146101ae5761007b565b80634724da6f14610080578063715018a6146100a95780638da5cb5b146100c0578063b369f6ad146100eb575b600080fd5b34801561008c57600080fd5b506100a760048036038101906100a29190610e5a565b6101d7565b005b3480156100b557600080fd5b506100be6103b2565b005b3480156100cc57600080fd5b506100d56103c6565b6040516100e29190610e96565b60405180910390f35b3480156100f757600080fd5b50610112600480360381019061010d9190610eb1565b6103ef565b60405161012193929190610f0a565b60405180910390f35b34801561013657600080fd5b50610151600480360381019061014c9190610eb1565b610505565b60405161016093929190610f0a565b60405180910390f35b610183600480360381019061017e9190610f6d565b61055c565b005b34801561019157600080fd5b506101ac60048036038101906101a79190610e5a565b610889565b005b3480156101ba57600080fd5b506101d560048036038101906101d09190610fc0565b61090f565b005b6000600260008373ffffffffffffffffffffffffffffffffffffffff1673ffffffffffffffffffffffffffffffffffffffff16815260200190815260200160002060003373ffffffffffffffffffffffffffffffffffffffff1673ffffffffffffffffffffffffffffffffffffffff1681526020019081526020016000209050600081600201541161029e576040517f08c379a000000000000000000000000000000000000000000000000000000000815260040161029590611070565b60405180910390fd5b600260008373ffffffffffffffffffffffffffffffffffffffff1673ffffffffffffffffffffffffffffffffffffffff16815260200190815260200160002060003373ffffffffffffffffffffffffffffffffffffffff1673ffffffffffffffffffffffffffffffffffffffff168152602001908152602001600020600080820160006101000a81549073ffffffffffffffffffffffffffffffffffffffff02191690556001820160009055600282016000905550503373ffffffffffffffffffffffffffffffffffffffff168273ffffffffffffffffffffffffffffffffffffffff167f796ebe8ba5d6045889c70272f8e2dad46d17b785eebaf80794d94e1d7de0f08260405160405180910390a35050565b6103ba610c55565b6103c46000610cdc565b565b60008060009054906101000a900473ffffffffffffffffffffffffffffffffffffffff16905090565b600080600080600260008773ffffffffffffffffffffffffffffffffffffffff1673ffffffffffffffffffffffffffffffffffffffff16815260200190815260200160002060008673ffffffffffffffffffffffffffffffffffffffff1673ffffffffffffffffffffffffffffffffffffffff1681526020019081526020016000206040518060600160405290816000820160009054906101000a900473ffffffffffffffffffffffffffffffffffffffff1673ffffffffffffffffffffffffffffffffffffffff1673ffffffffffffffffffffffffffffffffffffffff168152602001600182015481526020016002820154815250509050806000015181602001518260400151935093509350509250925092565b6002602052816000526040600020602052806000526040600020600091509150508060000160009054906101000a900473ffffffffffffffffffffffffffffffffffffffff16908060010154908060020154905083565b610564610da0565b6000600260008573ffffffffffffffffffffffffffffffffffffffff1673ffffffffffffffffffffffffffffffffffffffff16815260200190815260200160002060008473ffffffffffffffffffffffffffffffffffffffff1673ffffffffffffffffffffffffffffffffffffffff1681526020019081526020016000209050818160020154101561062b576040517f08c379a0000000000000000000000000000000000000000000000000000000008152600401610622906110dc565b60405180910390fd5b600082826001015461063d919061112b565b905080341015610682576040517f08c379a0000000000000000000000000000000000000000000000000000000008152600401610679906111b9565b60405180910390fd5b8473ffffffffffffffffffffffffffffffffffffffff166323b872dd8360000160009054906101000a900473ffffffffffffffffffffffffffffffffffffffff1633866040518463ffffffff1660e01b81526004016106e3939291906111d9565b6020604051808303816000875af1158015610702573d6000803e3d6000fd5b505050506040513d601f19601f820116820180604052508101906107269190611248565b508282600201600082825461073b9190611275565b9250508190555060008260000160009054906101000a900473ffffffffffffffffffffffffffffffffffffffff1673ffffffffffffffffffffffffffffffffffffffff168260405161078c906112da565b60006040518083038185875af1925050503d80600081146107c9576040519150601f19603f3d011682016040523d82523d6000602084013e6107ce565b606091505b5050905080610812576040517f08c379a00000000000000000000000000000000000000000000000000000000081526004016108099061133b565b60405180910390fd5b3373ffffffffffffffffffffffffffffffffffffffff168673ffffffffffffffffffffffffffffffffffffffff167fa326259ec721617acd3cb2a00bcbeac91eefe409880e49aa2bbf473ed648da49868560405161087192919061135b565b60405180910390a3505050610884610de6565b505050565b610891610c55565b600073ffffffffffffffffffffffffffffffffffffffff168173ffffffffffffffffffffffffffffffffffffffff16036109035760006040517f1e4fbdf70000000000000000000000000000000000000000000000000000000081526004016108fa9190610e96565b60405180910390fd5b61090c81610cdc565b50565b60008211801561091f5750600081115b61095e576040517f08c379a0000000000000000000000000000000000000000000000000000000008152600401610955906113d0565b60405180910390fd5b6000839050828173ffffffffffffffffffffffffffffffffffffffff1663dd62ed3e33306040518363ffffffff1660e01b815260040161099f9291906113f0565b602060405180830381865afa1580156109bc573d6000803e3d6000fd5b505050506040513d601f19601f820116820180604052508101906109e0919061142e565b1015610a21576040517f08c379a0000000000000000000000000000000000000000000000000000000008152600401610a18906114a7565b60405180910390fd5b828173ffffffffffffffffffffffffffffffffffffffff166370a08231336040518263ffffffff1660e01b8152600401610a5b9190610e96565b602060405180830381865afa158015610a78573d6000803e3d6000fd5b505050506040513d601f19601f82011682018060405250810190610a9c919061142e565b1015610add576040517f08c379a0000000000000000000000000000000000000000000000000000000008152600401610ad490611513565b60405180910390fd5b60405180606001604052803373ffffffffffffffffffffffffffffffffffffffff16815260200183815260200184815250600260008673ffffffffffffffffffffffffffffffffffffffff1673ffffffffffffffffffffffffffffffffffffffff16815260200190815260200160002060003373ffffffffffffffffffffffffffffffffffffffff1673ffffffffffffffffffffffffffffffffffffffff16815260200190815260200160002060008201518160000160006101000a81548173ffffffffffffffffffffffffffffffffffffffff021916908373ffffffffffffffffffffffffffffffffffffffff16021790555060208201518160010155604082015181600201559050503373ffffffffffffffffffffffffffffffffffffffff168473ffffffffffffffffffffffffffffffffffffffff167fd9d69fee247951cc283dc6f5b64c36ce396a36146405a798b86ebfd113c8b5ca8585604051610c4792919061135b565b60405180910390a350505050565b610c5d610def565b73ffffffffffffffffffffffffffffffffffffffff16610c7b6103c6565b73ffffffffffffffffffffffffffffffffffffffff1614610cda57610c9e610def565b6040517f118cdaa7000000000000000000000000000000000000000000000000000000008152600401610cd19190610e96565b60405180910390fd5b565b60008060009054906101000a900473ffffffffffffffffffffffffffffffffffffffff169050816000806101000a81548173ffffffffffffffffffffffffffffffffffffffff021916908373ffffffffffffffffffffffffffffffffffffffff1602179055508173ffffffffffffffffffffffffffffffffffffffff168173ffffffffffffffffffffffffffffffffffffffff167f8be0079c531659141344cd1fd0a4f28419497f9722a3daafe3b4186f6b6457e060405160405180910390a35050565b600260015403610ddc576040517f3ee5aeb500000000000000000000000000000000000000000000000000000000815260040160405180910390fd5b6002600181905550565b60018081905550565b600033905090565b600080fd5b600073ffffffffffffffffffffffffffffffffffffffff82169050919050565b6000610e2782610dfc565b9050919050565b610e3781610e1c565b8114610e4257600080fd5b50565b600081359050610e5481610e2e565b92915050565b600060208284031215610e7057610e6f610df7565b5b6000610e7e84828501610e45565b91505092915050565b610e9081610e1c565b82525050565b6000602082019050610eab6000830184610e87565b92915050565b60008060408385031215610ec857610ec7610df7565b5b6000610ed685828601610e45565b9250506020610ee785828601610e45565b9150509250929050565b6000819050919050565b610f0481610ef1565b82525050565b6000606082019050610f1f6000830186610e87565b610f2c6020830185610efb565b610f396040830184610efb565b949350505050565b610f4a81610ef1565b8114610f5557600080fd5b50565b600081359050610f6781610f41565b92915050565b600080600060608486031215610f8657610f85610df7565b5b6000610f9486828701610e45565b9350506020610fa586828701610e45565b9250506040610fb686828701610f58565b9150509250925092565b600080600060608486031215610fd957610fd8610df7565b5b6000610fe786828701610e45565b9350506020610ff886828701610f58565b925050604061100986828701610f58565b9150509250925092565b600082825260208201905092915050565b7f4e6f206c697374696e6720746f2063616e63656c000000000000000000000000600082015250565b600061105a601483611013565b915061106582611024565b602082019050919050565b600060208201905081810360008301526110898161104d565b9050919050565b7f4e6f7420656e6f75676820746f6b656e73206c69737465640000000000000000600082015250565b60006110c6601883611013565b91506110d182611090565b602082019050919050565b600060208201905081810360008301526110f5816110b9565b9050919050565b7f4e487b7100000000000000000000000000000000000000000000000000000000600052601160045260246000fd5b600061113682610ef1565b915061114183610ef1565b925082820261114f81610ef1565b91508282048414831517611166576111656110fc565b5b5092915050565b7f496e73756666696369656e74204554482073656e740000000000000000000000600082015250565b60006111a3601583611013565b91506111ae8261116d565b602082019050919050565b600060208201905081810360008301526111d281611196565b9050919050565b60006060820190506111ee6000830186610e87565b6111fb6020830185610e87565b6112086040830184610efb565b949350505050565b60008115159050919050565b61122581611210565b811461123057600080fd5b50565b6000815190506112428161121c565b92915050565b60006020828403121561125e5761125d610df7565b5b600061126c84828501611233565b91505092915050565b600061128082610ef1565b915061128b83610ef1565b92508282039050818111156112a3576112a26110fc565b5b92915050565b600081905092915050565b50565b60006112c46000836112a9565b91506112cf826112b4565b600082019050919050565b60006112e5826112b7565b9150819050919050565b7f455448207472616e73666572206661696c656400000000000000000000000000600082015250565b6000611325601383611013565b9150611330826112ef565b602082019050919050565b6000602082019050818103600083015261135481611318565b9050919050565b60006040820190506113706000830185610efb565b61137d6020830184610efb565b9392505050565b7f496e76616c696420696e70757473000000000000000000000000000000000000600082015250565b60006113ba600e83611013565b91506113c582611384565b602082019050919050565b600060208201905081810360008301526113e9816113ad565b9050919050565b60006040820190506114056000830185610e87565b6114126020830184610e87565b9392505050565b60008151905061142881610f41565b92915050565b60006020828403121561144457611443610df7565b5b600061145284828501611419565b91505092915050565b7f4d61726b6574706c616365206e6f7420617070726f7665640000000000000000600082015250565b6000611491601883611013565b915061149c8261145b565b602082019050919050565b600060208201905081810360008301526114c081611484565b9050919050565b7f496e73756666696369656e742062616c616e6365000000000000000000000000600082015250565b60006114fd601483611013565b9150611508826114c7565b602082019050919050565b6000602082019050818103600083015261152c816114f0565b905091905056fea2646970667358221220494703a62b5149ab7b68a4a6c6b8fd1debc9eea6bdee8645fb30aba2ac3f77f464736f6c634300081c0033",
  "linkReferences": {},
  "deployedLinkReferences": {}
}