{
  "_format": "hh-sol-artifact-1",
  "contractName": "FractionalCertificateToken",
  "sourceName": "contracts/FractionalCertificateToken.sol",
  "abi": [
    {
      "inputs": [
        {
          "internalType": "uint256",
          "name": "totalFractions",
          "type": "uint256"
        },
        {
          "internalType": "string",
          "name": "tokenName",
          "type": "string"
        },
        {
          "internalType": "string",
          "name": "tokenSymbol",
          "type": "string"
        },
        {
          "internalType": "address",
          "name": "certificateContractAddress",
          "type": "address"
        },
        {
          "internalType": "uint256",
          "name": "certificateTokenId_",
          "type": "uint256"
        }
      ],
      "stateMutability": "nonpayable",
      "type": "constructor"
    },
    {
      "inputs": [],
      "name": "ECDSAInvalidSignature",
      "type": "error"
    },
    {
      "inputs": [
        {
          "internalType": "uint256",
          "name": "length",
          "type": "uint256"
        }
      ],
      "name": "ECDSAInvalidSignatureLength",
      "type": "error"
    },
    {
      "inputs": [
        {
          "internalType": "bytes32",
          "name": "s",
          "type": "bytes32"
        }
      ],
      "name": "ECDSAInvalidSignatureS",
      "type": "error"
    },
    {
      "inputs": [
        {
          "internalType": "address",
          "name": "spender",
          "type": "address"
        },
        {
          "internalType": "uint256",
          "name": "allowance",
          "type": "uint256"
        },
        {
          "internalType": "uint256",
          "name": "needed",
          "type": "uint256"
        }
      ],
      "name": "ERC20InsufficientAllowance",
      "type": "error"
    },
    {
      "inputs": [
        {
          "internalType": "address",
          "name": "sender",
          "type": "address"
        },
        {
          "internalType": "uint256",
          "name": "balance",
          "type": "uint256"
        },
        {
          "internalType": "uint256",
          "name": "needed",
          "type": "uint256"
        }
      ],
      "name": "ERC20InsufficientBalance",
      "type": "error"
    },
    {
      "inputs": [
        {
          "internalType": "address",
          "name": "approver",
          "type": "address"
        }
      ],
      "name": "ERC20InvalidApprover",
      "type": "error"
    },
    {
      "inputs": [
        {
          "internalType": "address",
          "name": "receiver",
          "type": "address"
        }
      ],
      "name": "ERC20InvalidReceiver",
      "type": "error"
    },
    {
      "inputs": [
        {
          "internalType": "address",
          "name": "sender",
          "type": "address"
        }
      ],
      "name": "ERC20InvalidSender",
      "type": "error"
    },
    {
      "inputs": [
        {
          "internalType": "address",
          "name": "spender",
          "type": "address"
        }
      ],
      "name": "ERC20InvalidSpender",
      "type": "error"
    },
    {
      "inputs": [
        {
          "internalType": "uint256",
          "name": "deadline",
          "type": "uint256"
        }
      ],
      "name": "ERC2612ExpiredSignature",
      "type": "error"
    },
    {
      "inputs": [
        {
          "internalType": "address",
          "name": "signer",
          "type": "address"
        },
        {
          "internalType": "address",
          "name": "owner",
          "type": "address"
        }
      ],
      "name": "ERC2612InvalidSigner",
      "type": "error"
    },
    {
      "inputs": [
        {
          "internalType": "address",
          "name": "account",
          "type": "address"
        },
        {
          "internalType": "uint256",
          "name": "currentNonce",
          "type": "uint256"
        }
      ],
      "name": "InvalidAccountNonce",
      "type": "error"
    },
    {
      "inputs": [],
      "name": "InvalidShortString",
      "type": "error"
    },
    {
      "inputs": [
        {
          "internalType": "address",
          "name": "owner",
          "type": "address"
        }
      ],
      "name": "OwnableInvalidOwner",
      "type": "error"
    },
    {
      "inputs": [
        {
          "internalType": "address",
          "name": "account",
          "type": "address"
        }
      ],
      "name": "OwnableUnauthorizedAccount",
      "type": "error"
    },
    {
      "inputs": [
        {
          "internalType": "string",
          "name": "str",
          "type": "string"
        }
      ],
      "name": "StringTooLong",
      "type": "error"
    },
    {
      "anonymous": false,
      "inputs": [
        {
          "indexed": true,
          "internalType": "address",
          "name": "owner",
          "type": "address"
        },
        {
          "indexed": true,
          "internalType": "address",
          "name": "spender",
          "type": "address"
        },
        {
          "indexed": false,
          "internalType": "uint256",
          "name": "value",
          "type": "uint256"
        }
      ],
      "name": "Approval",
      "type": "event"
    },
    {
      "anonymous": false,
      "inputs": [
        {
          "indexed": false,
          "internalType": "uint256",
          "name": "tokenId",
          "type": "uint256"
        },
        {
          "indexed": false,
          "internalType": "uint256",
          "name": "totalFractions",
          "type": "uint256"
        },
        {
          "indexed": true,
          "internalType": "address",
          "name": "initiator",
          "type": "address"
        }
      ],
      "name": "CertificateFractionalized",
      "type": "event"
    },
    {
      "anonymous": false,
      "inputs": [],
      "name": "EIP712DomainChanged",
      "type": "event"
    },
    {
      "anonymous": false,
      "inputs": [
        {
          "indexed": true,
          "internalType": "address",
          "name": "previousOwner",
          "type": "address"
        },
        {
          "indexed": true,
          "internalType": "address",
          "name": "newOwner",
          "type": "address"
        }
      ],
      "name": "OwnershipTransferred",
      "type": "event"
    },
    {
      "anonymous": false,
      "inputs": [
        {
          "indexed": true,
          "internalType": "address",
          "name": "from",
          "type": "address"
        },
        {
          "indexed": true,
          "internalType": "address",
          "name": "to",
          "type": "address"
        },
        {
          "indexed": false,
          "internalType": "uint256",
          "name": "value",
          "type": "uint256"
        }
      ],
      "name": "Transfer",
      "type": "event"
    },
    {
      "inputs": [],
      "name": "DOMAIN_SEPARATOR",
      "outputs": [
        {
          "internalType": "bytes32",
          "name": "",
          "type": "bytes32"
        }
      ],
      "stateMutability": "view",
      "type": "function"
    },
    {
      "inputs": [
        {
          "internalType": "address",
          "name": "owner",
          "type": "address"
        },
        {
          "internalType": "address",
          "name": "spender",
          "type": "address"
        }
      ],
      "name": "allowance",
      "outputs": [
        {
          "internalType": "uint256",
          "name": "",
          "type": "uint256"
        }
      ],
      "stateMutability": "view",
      "type": "function"
    },
    {
      "inputs": [
        {
          "internalType": "address",
          "name": "spender",
          "type": "address"
        },
        {
          "internalType": "uint256",
          "name": "value",
          "type": "uint256"
        }
      ],
      "name": "approve",
      "outputs": [
        {
          "internalType": "bool",
          "name": "",
          "type": "bool"
        }
      ],
      "stateMutability": "nonpayable",
      "type": "function"
    },
    {
      "inputs": [
        {
          "internalType": "address",
          "name": "account",
          "type": "address"
        }
      ],
      "name": "balanceOf",
      "outputs": [
        {
          "internalType": "uint256",
          "name": "",
          "type": "uint256"
        }
      ],
      "stateMutability": "view",
      "type": "function"
    },
    {
      "inputs": [],
      "name": "certificateTokenId",
      "outputs": [
        {
          "internalType": "uint256",
          "name": "",
          "type": "uint256"
        }
      ],
      "stateMutability": "view",
      "type": "function"
    },
    {
      "inputs": [],
      "name": "decimals",
      "outputs": [
        {
          "internalType": "uint8",
          "name": "",
          "type": "uint8"
        }
      ],
      "stateMutability": "view",
      "type": "function"
    },
    {
      "inputs": [],
      "name": "eip712Domain",
      "outputs": [
        {
          "internalType": "bytes1",
          "name": "fields",
          "type": "bytes1"
        },
        {
          "internalType": "string",
          "name": "name",
          "type": "string"
        },
        {
          "internalType": "string",
          "name": "version",
          "type": "string"
        },
        {
          "internalType": "uint256",
          "name": "chainId",
          "type": "uint256"
        },
        {
          "internalType": "address",
          "name": "verifyingContract",
          "type": "address"
        },
        {
          "internalType": "bytes32",
          "name": "salt",
          "type": "bytes32"
        },
        {
          "internalType": "uint256[]",
          "name": "extensions",
          "type": "uint256[]"
        }
      ],
      "stateMutability": "view",
      "type": "function"
    },
    {
      "inputs": [],
      "name": "fractionalizeCertificate",
      "outputs": [],
      "stateMutability": "nonpayable",
      "type": "function"
    },
    {
      "inputs": [],
      "name": "getFractionInfo",
      "outputs": [
        {
          "internalType": "address",
          "name": "nftAddress",
          "type": "address"
        },
        {
          "internalType": "uint256",
          "name": "tokenId",
          "type": "uint256"
        },
        {
          "internalType": "uint256",
          "name": "totalFractions",
          "type": "uint256"
        },
        {
          "internalType": "address",
          "name": "ownerAddress",
          "type": "address"
        }
      ],
      "stateMutability": "view",
      "type": "function"
    },
    {
      "inputs": [],
      "name": "iRecCertificateContract",
      "outputs": [
        {
          "internalType": "contract IERC721",
          "name": "",
          "type": "address"
        }
      ],
      "stateMutability": "view",
      "type": "function"
    },
    {
      "inputs": [],
      "name": "isFractionalized",
      "outputs": [
        {
          "internalType": "bool",
          "name": "",
          "type": "bool"
        }
      ],
      "stateMutability": "view",
      "type": "function"
    },
    {
      "inputs": [],
      "name": "name",
      "outputs": [
        {
          "internalType": "string",
          "name": "",
          "type": "string"
        }
      ],
      "stateMutability": "view",
      "type": "function"
    },
    {
      "inputs": [
        {
          "internalType": "address",
          "name": "owner",
          "type": "address"
        }
      ],
      "name": "nonces",
      "outputs": [
        {
          "internalType": "uint256",
          "name": "",
          "type": "uint256"
        }
      ],
      "stateMutability": "view",
      "type": "function"
    },
    {
      "inputs": [
        {
          "internalType": "address",
          "name": "",
          "type": "address"
        },
        {
          "internalType": "address",
          "name": "",
          "type": "address"
        },
        {
          "internalType": "uint256",
          "name": "",
          "type": "uint256"
        },
        {
          "internalType": "bytes",
          "name": "",
          "type": "bytes"
        }
      ],
      "name": "onERC721Received",
      "outputs": [
        {
          "internalType": "bytes4",
          "name": "",
          "type": "bytes4"
        }
      ],
      "stateMutability": "nonpayable",
      "type": "function"
    },
    {
      "inputs": [],
      "name": "owner",
      "outputs": [
        {
          "internalType": "address",
          "name": "",
          "type": "address"
        }
      ],
      "stateMutability": "view",
      "type": "function"
    },
    {
      "inputs": [
        {
          "internalType": "address",
          "name": "owner",
          "type": "address"
        },
        {
          "internalType": "address",
          "name": "spender",
          "type": "address"
        },
        {
          "internalType": "uint256",
          "name": "value",
          "type": "uint256"
        },
        {
          "internalType": "uint256",
          "name": "deadline",
          "type": "uint256"
        },
        {
          "internalType": "uint8",
          "name": "v",
          "type": "uint8"
        },
        {
          "internalType": "bytes32",
          "name": "r",
          "type": "bytes32"
        },
        {
          "internalType": "bytes32",
          "name": "s",
          "type": "bytes32"
        }
      ],
      "name": "permit",
      "outputs": [],
      "stateMutability": "nonpayable",
      "type": "function"
    },
    {
      "inputs": [],
      "name": "renounceOwnership",
      "outputs": [],
      "stateMutability": "nonpayable",
      "type": "function"
    },
    {
      "inputs": [],
      "name": "symbol",
      "outputs": [
        {
          "internalType": "string",
          "name": "",
          "type": "string"
        }
      ],
      "stateMutability": "view",
      "type": "function"
    },
    {
      "inputs": [],
      "name": "totalSupply",
      "outputs": [
        {
          "internalType": "uint256",
          "name": "",
          "type": "uint256"
        }
      ],
      "stateMutability": "view",
      "type": "function"
    },
    {
      "inputs": [
        {
          "internalType": "address",
          "name": "to",
          "type": "address"
        },
        {
          "internalType": "uint256",
          "name": "value",
          "type": "uint256"
        }
      ],
      "name": "transfer",
      "outputs": [
        {
          "internalType": "bool",
          "name": "",
          "type": "bool"
        }
      ],
      "stateMutability": "nonpayable",
      "type": "function"
    },
    {
      "inputs": [
        {
          "internalType": "address",
          "name": "from",
          "type": "address"
        },
        {
          "internalType": "address",
          "name": "to",
          "type": "address"
        },
        {
          "internalType": "uint256",
          "name": "value",
          "type": "uint256"
        }
      ],
      "name": "transferFrom",
      "outputs": [
        {
          "internalType": "bool",
          "name": "",
          "type": "bool"
        }
      ],
      "stateMutability": "nonpayable",
      "type": "function"
    },
    {
      "inputs": [
        {
          "internalType": "address",
          "name": "newOwner",
          "type": "address"
        }
      ],
      "name": "transferOwnership",
      "outputs": [],
      "stateMutability": "nonpayable",
      "type": "function"
    }
  ],
  "bytecode": "0x6101a060405234801561001157600080fd5b506040516134de3803806134de833981810160405281019061003391906108ae565b83806040518060400160405280600181526020017f3100000000000000000000000000000000000000000000000000000000000000815250338787816003908161007d9190610b78565b50806004908161008d9190610b78565b505050600073ffffffffffffffffffffffffffffffffffffffff168173ffffffffffffffffffffffffffffffffffffffff16036101025760006040517f1e4fbdf70000000000000000000000000000000000000000000000000000000081526004016100f99190610c59565b60405180910390fd5b6101118161021560201b60201c565b506101266006836102db60201b90919060201c565b61012081815250506101426007826102db60201b90919060201c565b6101408181525050818051906020012060e08181525050808051906020012061010081815250504660a0818152505061017f61032b60201b60201c565b608081815250503073ffffffffffffffffffffffffffffffffffffffff1660c08173ffffffffffffffffffffffffffffffffffffffff16815250505050508173ffffffffffffffffffffffffffffffffffffffff166101608173ffffffffffffffffffffffffffffffffffffffff168152505080610180818152505061020b338661038660201b60201c565b5050505050610ea7565b6000600560009054906101000a900473ffffffffffffffffffffffffffffffffffffffff16905081600560006101000a81548173ffffffffffffffffffffffffffffffffffffffff021916908373ffffffffffffffffffffffffffffffffffffffff1602179055508173ffffffffffffffffffffffffffffffffffffffff168173ffffffffffffffffffffffffffffffffffffffff167f8be0079c531659141344cd1fd0a4f28419497f9722a3daafe3b4186f6b6457e060405160405180910390a35050565b60006020835110156102fd576102f68361040e60201b60201c565b9050610325565b8261030d8361047660201b60201c565b600001908161031c9190610b78565b5060ff60001b90505b92915050565b60007f8b73c3c69bb8fe3d512ecc4cf759cc79239f7b179b0ffacaa9a75d522b39400f60e05161010051463060405160200161036b959493929190610c9c565b60405160208183030381529060405280519060200120905090565b600073ffffffffffffffffffffffffffffffffffffffff168273ffffffffffffffffffffffffffffffffffffffff16036103f85760006040517fec442f050000000000000000000000000000000000000000000000000000000081526004016103ef9190610c59565b60405180910390fd5b61040a6000838361048060201b60201c565b5050565b600080829050601f8151111561045b57826040517f305a27a90000000000000000000000000000000000000000000000000000000081526004016104529190610d39565b60405180910390fd5b80518161046790610d8b565b60001c1760001b915050919050565b6000819050919050565b600073ffffffffffffffffffffffffffffffffffffffff168373ffffffffffffffffffffffffffffffffffffffff16036104d25780600260008282546104c69190610e21565b925050819055506105a5565b60008060008573ffffffffffffffffffffffffffffffffffffffff1673ffffffffffffffffffffffffffffffffffffffff1681526020019081526020016000205490508181101561055e578381836040517fe450d38c00000000000000000000000000000000000000000000000000000000815260040161055593929190610e55565b60405180910390fd5b8181036000808673ffffffffffffffffffffffffffffffffffffffff1673ffffffffffffffffffffffffffffffffffffffff16815260200190815260200160002081905550505b600073ffffffffffffffffffffffffffffffffffffffff168273ffffffffffffffffffffffffffffffffffffffff16036105ee578060026000828254039250508190555061063b565b806000808473ffffffffffffffffffffffffffffffffffffffff1673ffffffffffffffffffffffffffffffffffffffff168152602001908152602001600020600082825401925050819055505b8173ffffffffffffffffffffffffffffffffffffffff168373ffffffffffffffffffffffffffffffffffffffff167fddf252ad1be2c89b69c2b068fc378daa952ba7f163c4a11628f55a4df523b3ef836040516106989190610e8c565b60405180910390a3505050565b6000604051905090565b600080fd5b600080fd5b6000819050919050565b6106cc816106b9565b81146106d757600080fd5b50565b6000815190506106e9816106c3565b92915050565b600080fd5b600080fd5b6000601f19601f8301169050919050565b7f4e487b7100000000000000000000000000000000000000000000000000000000600052604160045260246000fd5b610742826106f9565b810181811067ffffffffffffffff821117156107615761076061070a565b5b80604052505050565b60006107746106a5565b90506107808282610739565b919050565b600067ffffffffffffffff8211156107a05761079f61070a565b5b6107a9826106f9565b9050602081019050919050565b60005b838110156107d45780820151818401526020810190506107b9565b60008484015250505050565b60006107f36107ee84610785565b61076a565b90508281526020810184848401111561080f5761080e6106f4565b5b61081a8482856107b6565b509392505050565b600082601f830112610837576108366106ef565b5b81516108478482602086016107e0565b91505092915050565b600073ffffffffffffffffffffffffffffffffffffffff82169050919050565b600061087b82610850565b9050919050565b61088b81610870565b811461089657600080fd5b50565b6000815190506108a881610882565b92915050565b600080600080600060a086880312156108ca576108c96106af565b5b60006108d8888289016106da565b955050602086015167ffffffffffffffff8111156108f9576108f86106b4565b5b61090588828901610822565b945050604086015167ffffffffffffffff811115610926576109256106b4565b5b61093288828901610822565b935050606061094388828901610899565b9250506080610954888289016106da565b9150509295509295909350565b600081519050919050565b7f4e487b7100000000000000000000000000000000000000000000000000000000600052602260045260246000fd5b600060028204905060018216806109b357607f821691505b6020821081036109c6576109c561096c565b5b50919050565b60008190508160005260206000209050919050565b60006020601f8301049050919050565b600082821b905092915050565b600060088302610a2e7fffffffffffffffffffffffffffffffffffffffffffffffffffffffffffffffff826109f1565b610a3886836109f1565b95508019841693508086168417925050509392505050565b6000819050919050565b6000610a75610a70610a6b846106b9565b610a50565b6106b9565b9050919050565b6000819050919050565b610a8f83610a5a565b610aa3610a9b82610a7c565b8484546109fe565b825550505050565b600090565b610ab8610aab565b610ac3818484610a86565b505050565b5b81811015610ae757610adc600082610ab0565b600181019050610ac9565b5050565b601f821115610b2c57610afd816109cc565b610b06846109e1565b81016020851015610b15578190505b610b29610b21856109e1565b830182610ac8565b50505b505050565b600082821c905092915050565b6000610b4f60001984600802610b31565b1980831691505092915050565b6000610b688383610b3e565b9150826002028217905092915050565b610b8182610961565b67ffffffffffffffff811115610b9a57610b9961070a565b5b610ba4825461099b565b610baf828285610aeb565b600060209050601f831160018114610be25760008415610bd0578287015190505b610bda8582610b5c565b865550610c42565b601f198416610bf0866109cc565b60005b82811015610c1857848901518255600182019150602085019450602081019050610bf3565b86831015610c355784890151610c31601f891682610b3e565b8355505b6001600288020188555050505b505050505050565b610c5381610870565b82525050565b6000602082019050610c6e6000830184610c4a565b92915050565b6000819050919050565b610c8781610c74565b82525050565b610c96816106b9565b82525050565b600060a082019050610cb16000830188610c7e565b610cbe6020830187610c7e565b610ccb6040830186610c7e565b610cd86060830185610c8d565b610ce56080830184610c4a565b9695505050505050565b600082825260208201905092915050565b6000610d0b82610961565b610d158185610cef565b9350610d258185602086016107b6565b610d2e816106f9565b840191505092915050565b60006020820190508181036000830152610d538184610d00565b905092915050565b600081519050919050565b6000819050602082019050919050565b6000610d828251610c74565b80915050919050565b6000610d9682610d5b565b82610da084610d66565b9050610dab81610d76565b92506020821015610deb57610de67fffffffffffffffffffffffffffffffffffffffffffffffffffffffffffffffff836020036008026109f1565b831692505b5050919050565b7f4e487b7100000000000000000000000000000000000000000000000000000000600052601160045260246000fd5b6000610e2c826106b9565b9150610e37836106b9565b9250828201905080821115610e4f57610e4e610df2565b5b92915050565b6000606082019050610e6a6000830186610c4a565b610e776020830185610c8d565b610e846040830184610c8d565b949350505050565b6000602082019050610ea16000830184610c8d565b92915050565b60805160a05160c05160e05161010051610120516101405161016051610180516125a4610f3a60003960008181610565015281816106670152818161072b0152610bbb0152600081816106290152818161091b0152610b9a0152600061102c01526000610ff1015260006115410152600061152001526000610d9f01526000610df501526000610e1e01526125a46000f3fe608060405234801561001057600080fd5b50600436106101425760003560e01c8063715018a6116100b8578063a9059cbb1161007c578063a9059cbb1461035f578063b01d6d821461038f578063d505accf146103ad578063dd62ed3e146103c9578063f2fde38b146103f9578063fb647cd91461041557610142565b8063715018a6146102c55780637ecebe00146102cf57806384b0196e146102ff5780638da5cb5b1461032357806395d89b411461034157610142565b8063313ce5671161010a578063313ce567146102135780633644e515146102315780633fb3ca201461024f5780634b24691f1461026d57806370a082311461028b57806370be42a6146102bb57610142565b806306fdde0314610147578063095ea7b314610165578063150b7a021461019557806318160ddd146101c557806323b872dd146101e3575b600080fd5b61014f610436565b60405161015c9190611a2e565b60405180910390f35b61017f600480360381019061017a9190611af8565b6104c8565b60405161018c9190611b53565b60405180910390f35b6101af60048036038101906101aa9190611ca3565b6104eb565b6040516101bc9190611d61565b60405180910390f35b6101cd6104ff565b6040516101da9190611d8b565b60405180910390f35b6101fd60048036038101906101f89190611da6565b610509565b60405161020a9190611b53565b60405180910390f35b61021b610538565b6040516102289190611e15565b60405180910390f35b610239610541565b6040516102469190611e49565b60405180910390f35b610257610550565b6040516102649190611b53565b60405180910390f35b610275610563565b6040516102829190611d8b565b60405180910390f35b6102a560048036038101906102a09190611e64565b610587565b6040516102b29190611d8b565b60405180910390f35b6102c36105cf565b005b6102cd61076a565b005b6102e960048036038101906102e49190611e64565b61077e565b6040516102f69190611d8b565b60405180910390f35b610307610790565b60405161031a9796959493929190611f99565b60405180910390f35b61032b61083a565b604051610338919061201d565b60405180910390f35b610349610864565b6040516103569190611a2e565b60405180910390f35b61037960048036038101906103749190611af8565b6108f6565b6040516103869190611b53565b60405180910390f35b610397610919565b6040516103a49190612097565b60405180910390f35b6103c760048036038101906103c2919061210a565b61093d565b005b6103e360048036038101906103de91906121ac565b610a85565b6040516103f09190611d8b565b60405180910390f35b610413600480360381019061040e9190611e64565b610b0c565b005b61041d610b92565b60405161042d94939291906121ec565b60405180910390f35b60606003805461044590612260565b80601f016020809104026020016040519081016040528092919081815260200182805461047190612260565b80156104be5780601f10610493576101008083540402835291602001916104be565b820191906000526020600020905b8154815290600101906020018083116104a157829003601f168201915b5050505050905090565b6000806104d3610bf8565b90506104e0818585610c00565b600191505092915050565b600063150b7a0260e01b9050949350505050565b6000600254905090565b600080610514610bf8565b9050610521858285610c12565b61052c858585610ca7565b60019150509392505050565b60006012905090565b600061054b610d9b565b905090565b600960009054906101000a900460ff1681565b7f000000000000000000000000000000000000000000000000000000000000000081565b60008060008373ffffffffffffffffffffffffffffffffffffffff1673ffffffffffffffffffffffffffffffffffffffff168152602001908152602001600020549050919050565b6105d7610e52565b600960009054906101000a900460ff1615610627576040517f08c379a000000000000000000000000000000000000000000000000000000000815260040161061e90612303565b60405180910390fd5b7f000000000000000000000000000000000000000000000000000000000000000073ffffffffffffffffffffffffffffffffffffffff166342842e0e33307f00000000000000000000000000000000000000000000000000000000000000006040518463ffffffff1660e01b81526004016106a493929190612323565b600060405180830381600087803b1580156106be57600080fd5b505af11580156106d2573d6000803e3d6000fd5b505050506001600960006101000a81548160ff0219169083151502179055503373ffffffffffffffffffffffffffffffffffffffff167f467dbdf4e2cf848cda2e91cd4fe12eed702c327975f0ca15fc227e822e72ca5b7f00000000000000000000000000000000000000000000000000000000000000006107526104ff565b60405161076092919061235a565b60405180910390a2565b610772610e52565b61077c6000610ed9565b565b600061078982610f9f565b9050919050565b6000606080600080600060606107a4610fe8565b6107ac611023565b46306000801b600067ffffffffffffffff8111156107cd576107cc611b78565b5b6040519080825280602002602001820160405280156107fb5781602001602082028036833780820191505090505b507f0f00000000000000000000000000000000000000000000000000000000000000959493929190965096509650965096509650965090919293949596565b6000600560009054906101000a900473ffffffffffffffffffffffffffffffffffffffff16905090565b60606004805461087390612260565b80601f016020809104026020016040519081016040528092919081815260200182805461089f90612260565b80156108ec5780601f106108c1576101008083540402835291602001916108ec565b820191906000526020600020905b8154815290600101906020018083116108cf57829003601f168201915b5050505050905090565b600080610901610bf8565b905061090e818585610ca7565b600191505092915050565b7f000000000000000000000000000000000000000000000000000000000000000081565b8342111561098257836040517f627913020000000000000000000000000000000000000000000000000000000081526004016109799190611d8b565b60405180910390fd5b60007f6e71edae12b1b97f4d1f60370fef10105fa2faae0126114a169c64845d6126c98888886109b18c61105e565b896040516020016109c796959493929190612383565b60405160208183030381529060405280519060200120905060006109ea826110b5565b905060006109fa828787876110cf565b90508973ffffffffffffffffffffffffffffffffffffffff168173ffffffffffffffffffffffffffffffffffffffff1614610a6e57808a6040517f4b800e46000000000000000000000000000000000000000000000000000000008152600401610a659291906123e4565b60405180910390fd5b610a798a8a8a610c00565b50505050505050505050565b6000600160008473ffffffffffffffffffffffffffffffffffffffff1673ffffffffffffffffffffffffffffffffffffffff16815260200190815260200160002060008373ffffffffffffffffffffffffffffffffffffffff1673ffffffffffffffffffffffffffffffffffffffff16815260200190815260200160002054905092915050565b610b14610e52565b600073ffffffffffffffffffffffffffffffffffffffff168173ffffffffffffffffffffffffffffffffffffffff1603610b865760006040517f1e4fbdf7000000000000000000000000000000000000000000000000000000008152600401610b7d919061201d565b60405180910390fd5b610b8f81610ed9565b50565b6000806000807f00000000000000000000000000000000000000000000000000000000000000007f0000000000000000000000000000000000000000000000000000000000000000610be26104ff565b610bea61083a565b935093509350935090919293565b600033905090565b610c0d83838360016110ff565b505050565b6000610c1e8484610a85565b90507fffffffffffffffffffffffffffffffffffffffffffffffffffffffffffffffff811015610ca15781811015610c91578281836040517ffb8f41b2000000000000000000000000000000000000000000000000000000008152600401610c889392919061240d565b60405180910390fd5b610ca0848484840360006110ff565b5b50505050565b600073ffffffffffffffffffffffffffffffffffffffff168373ffffffffffffffffffffffffffffffffffffffff1603610d195760006040517f96c6fd1e000000000000000000000000000000000000000000000000000000008152600401610d10919061201d565b60405180910390fd5b600073ffffffffffffffffffffffffffffffffffffffff168273ffffffffffffffffffffffffffffffffffffffff1603610d8b5760006040517fec442f05000000000000000000000000000000000000000000000000000000008152600401610d82919061201d565b60405180910390fd5b610d968383836112d6565b505050565b60007f000000000000000000000000000000000000000000000000000000000000000073ffffffffffffffffffffffffffffffffffffffff163073ffffffffffffffffffffffffffffffffffffffff16148015610e1757507f000000000000000000000000000000000000000000000000000000000000000046145b15610e44577f00000000000000000000000000000000000000000000000000000000000000009050610e4f565b610e4c6114fb565b90505b90565b610e5a610bf8565b73ffffffffffffffffffffffffffffffffffffffff16610e7861083a565b73ffffffffffffffffffffffffffffffffffffffff1614610ed757610e9b610bf8565b6040517f118cdaa7000000000000000000000000000000000000000000000000000000008152600401610ece919061201d565b60405180910390fd5b565b6000600560009054906101000a900473ffffffffffffffffffffffffffffffffffffffff16905081600560006101000a81548173ffffffffffffffffffffffffffffffffffffffff021916908373ffffffffffffffffffffffffffffffffffffffff1602179055508173ffffffffffffffffffffffffffffffffffffffff168173ffffffffffffffffffffffffffffffffffffffff167f8be0079c531659141344cd1fd0a4f28419497f9722a3daafe3b4186f6b6457e060405160405180910390a35050565b6000600860008373ffffffffffffffffffffffffffffffffffffffff1673ffffffffffffffffffffffffffffffffffffffff168152602001908152602001600020549050919050565b606061101e60067f000000000000000000000000000000000000000000000000000000000000000061159190919063ffffffff16565b905090565b606061105960077f000000000000000000000000000000000000000000000000000000000000000061159190919063ffffffff16565b905090565b6000600860008373ffffffffffffffffffffffffffffffffffffffff1673ffffffffffffffffffffffffffffffffffffffff1681526020019081526020016000206000815480929190600101919050559050919050565b60006110c86110c2610d9b565b83611641565b9050919050565b6000806000806110e188888888611682565b9250925092506110f18282611776565b829350505050949350505050565b600073ffffffffffffffffffffffffffffffffffffffff168473ffffffffffffffffffffffffffffffffffffffff16036111715760006040517fe602df05000000000000000000000000000000000000000000000000000000008152600401611168919061201d565b60405180910390fd5b600073ffffffffffffffffffffffffffffffffffffffff168373ffffffffffffffffffffffffffffffffffffffff16036111e35760006040517f94280d620000000000000000000000000000000000000000000000000000000081526004016111da919061201d565b60405180910390fd5b81600160008673ffffffffffffffffffffffffffffffffffffffff1673ffffffffffffffffffffffffffffffffffffffff16815260200190815260200160002060008573ffffffffffffffffffffffffffffffffffffffff1673ffffffffffffffffffffffffffffffffffffffff1681526020019081526020016000208190555080156112d0578273ffffffffffffffffffffffffffffffffffffffff168473ffffffffffffffffffffffffffffffffffffffff167f8c5be1e5ebec7d5bd14f71427d1e84f3dd0314c0f7b2291e5b200ac8c7c3b925846040516112c79190611d8b565b60405180910390a35b50505050565b600073ffffffffffffffffffffffffffffffffffffffff168373ffffffffffffffffffffffffffffffffffffffff160361132857806002600082825461131c9190612473565b925050819055506113fb565b60008060008573ffffffffffffffffffffffffffffffffffffffff1673ffffffffffffffffffffffffffffffffffffffff168152602001908152602001600020549050818110156113b4578381836040517fe450d38c0000000000000000000000000000000000000000000000000000000081526004016113ab9392919061240d565b60405180910390fd5b8181036000808673ffffffffffffffffffffffffffffffffffffffff1673ffffffffffffffffffffffffffffffffffffffff16815260200190815260200160002081905550505b600073ffffffffffffffffffffffffffffffffffffffff168273ffffffffffffffffffffffffffffffffffffffff16036114445780600260008282540392505081905550611491565b806000808473ffffffffffffffffffffffffffffffffffffffff1673ffffffffffffffffffffffffffffffffffffffff168152602001908152602001600020600082825401925050819055505b8173ffffffffffffffffffffffffffffffffffffffff168373ffffffffffffffffffffffffffffffffffffffff167fddf252ad1be2c89b69c2b068fc378daa952ba7f163c4a11628f55a4df523b3ef836040516114ee9190611d8b565b60405180910390a3505050565b60007f8b73c3c69bb8fe3d512ecc4cf759cc79239f7b179b0ffacaa9a75d522b39400f7f00000000000000000000000000000000000000000000000000000000000000007f000000000000000000000000000000000000000000000000000000000000000046306040516020016115769594939291906124a7565b60405160208183030381529060405280519060200120905090565b606060ff60001b83146115ae576115a7836118da565b905061163b565b8180546115ba90612260565b80601f01602080910402602001604051908101604052809291908181526020018280546115e690612260565b80156116335780601f1061160857610100808354040283529160200191611633565b820191906000526020600020905b81548152906001019060200180831161161657829003601f168201915b505050505090505b92915050565b60006040517f190100000000000000000000000000000000000000000000000000000000000081528360028201528260228201526042812091505092915050565b60008060007f7fffffffffffffffffffffffffffffff5d576e7357a4501ddfe92f46681b20a08460001c11156116c257600060038592509250925061176c565b6000600188888888604051600081526020016040526040516116e794939291906124fa565b6020604051602081039080840390855afa158015611709573d6000803e3d6000fd5b505050602060405103519050600073ffffffffffffffffffffffffffffffffffffffff168173ffffffffffffffffffffffffffffffffffffffff160361175d57600060016000801b9350935093505061176c565b8060008060001b935093509350505b9450945094915050565b6000600381111561178a5761178961253f565b5b82600381111561179d5761179c61253f565b5b03156118d657600160038111156117b7576117b661253f565b5b8260038111156117ca576117c961253f565b5b03611801576040517ff645eedf00000000000000000000000000000000000000000000000000000000815260040160405180910390fd5b600260038111156118155761181461253f565b5b8260038111156118285761182761253f565b5b0361186d578060001c6040517ffce698f70000000000000000000000000000000000000000000000000000000081526004016118649190611d8b565b60405180910390fd5b6003808111156118805761187f61253f565b5b8260038111156118935761189261253f565b5b036118d557806040517fd78bce0c0000000000000000000000000000000000000000000000000000000081526004016118cc9190611e49565b60405180910390fd5b5b5050565b606060006118e78361194e565b90506000602067ffffffffffffffff81111561190657611905611b78565b5b6040519080825280601f01601f1916602001820160405280156119385781602001600182028036833780820191505090505b5090508181528360208201528092505050919050565b60008060ff8360001c169050601f811115611995576040517fb3512b0c00000000000000000000000000000000000000000000000000000000815260040160405180910390fd5b80915050919050565b600081519050919050565b600082825260208201905092915050565b60005b838110156119d85780820151818401526020810190506119bd565b60008484015250505050565b6000601f19601f8301169050919050565b6000611a008261199e565b611a0a81856119a9565b9350611a1a8185602086016119ba565b611a23816119e4565b840191505092915050565b60006020820190508181036000830152611a4881846119f5565b905092915050565b6000604051905090565b600080fd5b600080fd5b600073ffffffffffffffffffffffffffffffffffffffff82169050919050565b6000611a8f82611a64565b9050919050565b611a9f81611a84565b8114611aaa57600080fd5b50565b600081359050611abc81611a96565b92915050565b6000819050919050565b611ad581611ac2565b8114611ae057600080fd5b50565b600081359050611af281611acc565b92915050565b60008060408385031215611b0f57611b0e611a5a565b5b6000611b1d85828601611aad565b9250506020611b2e85828601611ae3565b9150509250929050565b60008115159050919050565b611b4d81611b38565b82525050565b6000602082019050611b686000830184611b44565b92915050565b600080fd5b600080fd5b7f4e487b7100000000000000000000000000000000000000000000000000000000600052604160045260246000fd5b611bb0826119e4565b810181811067ffffffffffffffff82111715611bcf57611bce611b78565b5b80604052505050565b6000611be2611a50565b9050611bee8282611ba7565b919050565b600067ffffffffffffffff821115611c0e57611c0d611b78565b5b611c17826119e4565b9050602081019050919050565b82818337600083830152505050565b6000611c46611c4184611bf3565b611bd8565b905082815260208101848484011115611c6257611c61611b73565b5b611c6d848285611c24565b509392505050565b600082601f830112611c8a57611c89611b6e565b5b8135611c9a848260208601611c33565b91505092915050565b60008060008060808587031215611cbd57611cbc611a5a565b5b6000611ccb87828801611aad565b9450506020611cdc87828801611aad565b9350506040611ced87828801611ae3565b925050606085013567ffffffffffffffff811115611d0e57611d0d611a5f565b5b611d1a87828801611c75565b91505092959194509250565b60007fffffffff0000000000000000000000000000000000000000000000000000000082169050919050565b611d5b81611d26565b82525050565b6000602082019050611d766000830184611d52565b92915050565b611d8581611ac2565b82525050565b6000602082019050611da06000830184611d7c565b92915050565b600080600060608486031215611dbf57611dbe611a5a565b5b6000611dcd86828701611aad565b9350506020611dde86828701611aad565b9250506040611def86828701611ae3565b9150509250925092565b600060ff82169050919050565b611e0f81611df9565b82525050565b6000602082019050611e2a6000830184611e06565b92915050565b6000819050919050565b611e4381611e30565b82525050565b6000602082019050611e5e6000830184611e3a565b92915050565b600060208284031215611e7a57611e79611a5a565b5b6000611e8884828501611aad565b91505092915050565b60007fff0000000000000000000000000000000000000000000000000000000000000082169050919050565b611ec681611e91565b82525050565b611ed581611a84565b82525050565b600081519050919050565b600082825260208201905092915050565b6000819050602082019050919050565b611f1081611ac2565b82525050565b6000611f228383611f07565b60208301905092915050565b6000602082019050919050565b6000611f4682611edb565b611f508185611ee6565b9350611f5b83611ef7565b8060005b83811015611f8c578151611f738882611f16565b9750611f7e83611f2e565b925050600181019050611f5f565b5085935050505092915050565b600060e082019050611fae600083018a611ebd565b8181036020830152611fc081896119f5565b90508181036040830152611fd481886119f5565b9050611fe36060830187611d7c565b611ff06080830186611ecc565b611ffd60a0830185611e3a565b81810360c083015261200f8184611f3b565b905098975050505050505050565b60006020820190506120326000830184611ecc565b92915050565b6000819050919050565b600061205d61205861205384611a64565b612038565b611a64565b9050919050565b600061206f82612042565b9050919050565b600061208182612064565b9050919050565b61209181612076565b82525050565b60006020820190506120ac6000830184612088565b92915050565b6120bb81611df9565b81146120c657600080fd5b50565b6000813590506120d8816120b2565b92915050565b6120e781611e30565b81146120f257600080fd5b50565b600081359050612104816120de565b92915050565b600080600080600080600060e0888a03121561212957612128611a5a565b5b60006121378a828b01611aad565b97505060206121488a828b01611aad565b96505060406121598a828b01611ae3565b955050606061216a8a828b01611ae3565b945050608061217b8a828b016120c9565b93505060a061218c8a828b016120f5565b92505060c061219d8a828b016120f5565b91505092959891949750929550565b600080604083850312156121c3576121c2611a5a565b5b60006121d185828601611aad565b92505060206121e285828601611aad565b9150509250929050565b60006080820190506122016000830187611ecc565b61220e6020830186611d7c565b61221b6040830185611d7c565b6122286060830184611ecc565b95945050505050565b7f4e487b7100000000000000000000000000000000000000000000000000000000600052602260045260246000fd5b6000600282049050600182168061227857607f821691505b60208210810361228b5761228a612231565b5b50919050565b7f436572746966696361746520616c7265616479206672616374696f6e616c697a60008201527f6564000000000000000000000000000000000000000000000000000000000000602082015250565b60006122ed6022836119a9565b91506122f882612291565b604082019050919050565b6000602082019050818103600083015261231c816122e0565b9050919050565b60006060820190506123386000830186611ecc565b6123456020830185611ecc565b6123526040830184611d7c565b949350505050565b600060408201905061236f6000830185611d7c565b61237c6020830184611d7c565b9392505050565b600060c0820190506123986000830189611e3a565b6123a56020830188611ecc565b6123b26040830187611ecc565b6123bf6060830186611d7c565b6123cc6080830185611d7c565b6123d960a0830184611d7c565b979650505050505050565b60006040820190506123f96000830185611ecc565b6124066020830184611ecc565b9392505050565b60006060820190506124226000830186611ecc565b61242f6020830185611d7c565b61243c6040830184611d7c565b949350505050565b7f4e487b7100000000000000000000000000000000000000000000000000000000600052601160045260246000fd5b600061247e82611ac2565b915061248983611ac2565b92508282019050808211156124a1576124a0612444565b5b92915050565b600060a0820190506124bc6000830188611e3a565b6124c96020830187611e3a565b6124d66040830186611e3a565b6124e36060830185611d7c565b6124f06080830184611ecc565b9695505050505050565b600060808201905061250f6000830187611e3a565b61251c6020830186611e06565b6125296040830185611e3a565b6125366060830184611e3a565b95945050505050565b7f4e487b7100000000000000000000000000000000000000000000000000000000600052602160045260246000fdfea2646970667358221220ec7868eb7d9e106443ab1c303b6b14fea11647bc9475ffbd02317b24b9c48c3e64736f6c634300081c0033",
  "linkReferences": {},
  "deployedLinkReferences": {}
}